:4000000000800020110000001D3600001D36000008B5044B1A6803F53F5302331A6003F005FB00BFFA46004010B5054C237833B9044B13B10448AFF300800123237010BDCE
:400040005081FF1F00000000E4500000084B10B51BB108490848AFF300800848036803B910BD074B002BFBD0BDE81040184700BF000000005481FF1FE4500000C880FF1F8A
:400080000000000010B590B062B601F0B7FF00F029F900F0E7FA634B1B7813F0FF0F0AD00022604B1A7003F023FB5F4B186803F033FB03F06FFB5D4B1B7813F0FF0F02D13E
:4000C00000F0E4FAE7E75A4B1B7813F0FF0FE2D00024574B1C7002F0DBFA04F07DF8554B1B680793544B1B680693544B1B680593534B1B680493534B1B680393524B1B6826
:400100000293524B1B680193514B1B680093514B1C7004F065F89DF81C308DF820309DF81D308DF821309DF81E308DF822309DF81F308DF823309DF818308DF824309DF81C
:4001400019308DF825309DF81A308DF826309DF81B308DF827309DF814308DF828309DF815308DF829309DF816308DF82A309DF817308DF82B309DF810308DF82C309DF8B7
:4001800011308DF82D309DF812308DF82E309DF813308DF82F309DF80C308DF830309DF80D308DF831309DF80E308DF832309DF80F308DF833309DF808308DF834309DF877
:4001C00009308DF835309DF80A308DF836309DF80B308DF837309DF804308DF838309DF805308DF839309DF806308DF83A309DF807308DF83B309DF800308DF83C309DF837
:4002000001308DF83D309DF802308DF83E309DF803308DF83F3020210DEB010003F00CFF39E700BF7284FF1F7484FF1F5482FF1F6C81FF1F7C84FF1F8484FF1F7884FF1F87
:400240008084FF1F8884FF1F8C84FF1F9084FF1F9484FF1F7184FF1F10B50446B0F59E6F01DD4FF49E6414F59E6F00DA114C002C09DD012003F08EFD002003F097FDA0B2AE
:4002800003F028FD10BD002C0ADA002003F082FD012003F08BFD604280B203F01BFD10BD002003F077FD002003F080FD002003F011FD10BD10FBFFFF08B5002003F06AFD2A
:4002C000002003F073FD002003F004FD08BD00BF08B503F01BFA0122014B1A7008BD00BF6C81FF1F10B503F047FDFFF7E5FF03F0AFFA03F05FFB03F06DFA054C606003F079
:4003000049FA044803F0F8FA00232370238110BD6C81FF1FD102000038B505460C4603F00BFB286003F056FA074A5368C31A5060B3F5004F01DB47F6FF7313F5004F00DAAA
:40034000024B238038BD00BF6C81FF1F0080FFFF38B50546002405E0012003F05BFC0134AC4206D203F0C4FD0028F5D003F08EFD38BDFE2038BD00BF08B503F0EFFD08BD62
:4003800070B582B0064600250135EDB2322D37D800240BE04FF4FA70FFF7DAFF02AB234403F8040CFE282DD00134E4B2032CF1D9002407E002AB234413F8040CFFF7DCFF96
:4003C0000134E4B2032CF5D94FF4FA70FFF7C0FFFE2819D041280FD1FFF7CEFF9DF8043033709DF8053073709DF80630B3709DF80730F370012008E04E20FFF7BDFFC3E7AF
:40040000002002E0002000E0002002B070BD00BF30B59BB04FF4FA70FFF79AFF04464FF4FA70FFF795FFFE2C01D0FE2803D14520FFF7A2FFBCE044EA0025ADB2D82D08D1F2
:4004400000252C4616E03220FFF782FF0134A4B200E000246B1C9C42F5D34520FFF78CFFA6E04FF4FA70FFF773FF524B185545400134A4B2D72CF4D94FF4FA70FFF768FFF5
:40048000854203D04520FFF777FF91E0494B1D785C78987802F082F82946002001F0DAFD002318E0591C434A12F821008DF864009B00581D105C8DF86500981D105C8DF853
:4004C0006600D81D125C8DF867201AAA1344199A43F8682C8BB2182BE4D919226946002001F0C6FD2146012001F0B4FD00231DE003F11A022F4911F822208DF864209A00CF
:4005000002F16900085C8DF8650002F16A00085C8DF8660002F16B00095C8DF867101AA90A44199942F8681C01339BB2182BDFD919226946012001F09BFD1E4C94F8CC3023
:400540008DF8643094F8CD308DF8653094F8CE308DF8663094F8CF308DF86730199D94F8D0308DF8643094F8D1308DF8653094F8D2308DF8663094F8D3308DF8673019986C
:4005800094F8D4308DF8643094F8D5308DF8653094F8D6308DF8663094F8D7308DF86730199902F051F8C4F8D8504B20FFF7E4FE1BB030BD7881FF1F294B93F8DC30DBB210
:4005C000012B4BD130B583B042E003F05FFC244B93F8DD30CBB973280DD1FFF76DFE02F023F81F4C002584F8DC504B20FFF7C4FE84F8DD5030E075282AD1194B012283F80B
:40060000DD20002283F8DE2022E0154991F8DE20531CDBB281F8DE300A4482F8E000032B16D90C4691F8E0308DF8043091F8E1308DF8053091F8E2308DF8063091F8E33009
:400640008DF80730019801F0F9FF002384F8DD3003F04EFC0028B8D103B030BD704700BF7881FF1F08B503F003FC064803F09CFD054B002283F8DC2083F8DD2083F8DE2012
:4006800008BD00BFB90500007881FF1F70B582B003F02EFC002800F0918003F0F7FB6638102800F28B80DFE800F01C8989698989898989895589097E89896100FFF7FCFD41
:4006C00001F0B2FF00223E4B1A703E4B83F8DC200021C3F8D81083F8DD204B20FFF74CFE6CE05220FFF748FE01A8FFF749FE68B39DF804308DF800309DF805308DF8013043
:400700009DF806308DF802309DF807308DF80330009C4FF07C51204604F030F890B12A49204604F017F868B12146284803F01EFF04F054F8441E02F0DBFF204602F0ECFFBB
:4007400003F028F84B20FFF717FE37E02120FFF713FE33E0FFF75CFE30E01A4D285DFFF70BFE2B5D5E400134A4B201E000263446D72CF2D93046FFF7FFFD1FE0FFF79CFD3D
:4007800000230F4A13700F4C84F8DD3084F8DE30D4F8D80001F00AFF012384F8DC304B20FFF7EAFD0AE0FFF787FD01F03DFF0022044B83F8DC204B20FFF7DEFD02B070BDA6
:4007C0006C81FF1F7881FF1F00401C46001BB74B70B505460E461446114603F0CFFF30B93146284603F0ACFF18B1304670BD204670BD284670BD00BF0138C0B203288CBFFC
:4008000000200120704700BF0338C0B201288CBF00200120704700BFF8B504460E46406803F0F0FD616B03F0E5FC0546A76BA168304603F0E7FD0146384603F0DBFC074627
:40084000216A284603F0DEFD0146384603F0D0FC6063E76BE168304603F0D4FD0146384603F0C8FC0746616A284603F0CBFD0146384603F0BDFCA063276C2169304603F0DE
:40088000C1FD0146384603F0B5FC0746A16A284603F0B8FD0146384603F0AAFCE063676C6169304603F0AEFD0146384603F0A2FC0746E16A284603F0A5FD0146384603F0A8
:4008C00097FC2064A169304603F09CFD0646216B284603F097FD0146304603F089FC60642846F8BD2DE9F04385B006460C461746D0F8A0502946206803F038FE80464FF096
:400900007E5103F031FF60B94449404603F018FF50B94FF09E41404603F074FD03F038FF04E06FF0004001E04FF0004002902946606803F01BFE04464FF07E5103F014FF3E
:4009400060B93649204603F0FBFE50B94FF09E41204603F057FD03F01BFF04E06FF0004001E04FF0004003902946384603F0FEFD04464FF07E5103F0F7FE68B92749204624
:4009800003F0DEFE58B94FF09E41204603F03AFD03F0FEFE044604E06FF0004401E04FF000446B46022202A906F1BC0001F0E4FF0099490C019B41EAC331D6F8D4204FEADA
:4009C000E279E71704FB09F002FB0700A4FB02230344D00F40EA4300C317421843EBE173B2F1004F73F1000406DAB2F1004F73F1FF3304DB084404E06FF0004001E04FF005
:400A0000004003F0ABFC4FF0405103F0FBFC0146284603F0F7FC05B0BDE8F083000080BF70B588B004460E46D0F8A05000F18801FFF758FF0146304603F0DAFB294603F01A
:400A400095FD06464FF07E5103F08EFE68B93C49304603F075FE58B94FF09E41304603F0D1FC03F095FE014604E06FF0004101E04FF000410223009306AB002204F1CC0026
:400A800002F034F82946D4F8880003F06FFD06464FF07E5103F068FE60B92949304603F04FFE50B94FF09E41304603F0ABFC03F06FFE04E06FF0004001E04FF000400490F4
:400AC0002946D4F88C0003F051FD06464FF07E5103F04AFE60B91A49304603F031FE50B94FF09E41304603F08DFC03F051FE04E06FF0004001E04FF000400590022302AAA1
:400B000006A904A802F0ECF8029803F027FC4FF0405103F077FC0146284603F073FCC4F88000039803F01AFC4FF0405103F06AFC0146284603F066FCC4F8840008B070BD4F
:400B4000000080BF2DE9F04389B006460F4690461D46D0F8A0402146386803F007FD81464FF07E5103F000FE60B95A49484603F0E7FD50B94FF09E41484603F043FC03F073
:400B800007FE04E06FF0004001E04FF0004006902146786803F0EAFC07464FF07E5103F0E3FD60B94B49384603F0CAFD50B94FF09E41384603F026FC03F0EAFD04E06FF0AD
:400BC000004001E04FF0004007902146404603F0CDFC07464FF07E5103F0C6FD68B93D49384603F0ADFD58B94FF09E41384603F009FC03F0CDFD014604E06FF0004101E034
:400C00004FF000410227009704AB002206F1B40001F06CFF02AB3A4606A906F1A40001F0ABFE029B5B0C039A43EAC23304984FEAE07910EB030849EBE379B8F1004F79F1A2
:400C4000000206DAB8F1004F79F1FF3204DB184404E06FF0004001E04FF0004003F07EFB4FF0405103F0CEFB0146204603F0CAFB286002AB022206A906F1AC0001F07CFE6E
:400C8000029B5B0C039A43EAC2330598C717C61847EBE377B6F1004F77F1000206DAB6F1004F77F1FF3204DB184404E06FF0004001E04FF0004003F051FB4FF0405103F09D
:400CC000A1FB0146204603F09DFB686009B0BDE8F08300BF000080BF2DE9F0418AB0044688461F46D0F8A05000F180063146FFF7F9FD0146404603F07BFA294603F036FC30
:400D000080464FF07E5103F02FFD68B93F49404603F016FD58B94FF09E41404603F072FB03F036FD804604E06FF0004801E04FF0004808AB3A4631462046FFF703FF02236A
:400D4000009306AB0022414604F1CC0001F0CEFE2946089803F00AFC06464FF07E5103F003FD60B92949304603F0EAFC50B94FF09E41304603F046FB03F00AFD04E06FF0CB
:400D8000004001E04FF0004004902946099803F0EDFB06464FF07E5103F0E6FC60B91B49304603F0CDFC50B94FF09E41304603F029FB03F0EDFC04E06FF0004001E04FF003
:400DC00000400590022302AA06A904A801F088FF029803F0C3FA4FF0405103F013FB0146284603F00FFBC4F88000039803F0B6FA4FF0405103F006FB0146284603F002FBCA
:400E0000C4F884000AB0BDE8F08100BF000080BF10B500F188030A4600F18001FFF792FE10BD00BFF0B585B00446D0F8A0603146D0F8800003F09AFB05464FF07E5103F010
:400E400093FC60B94449284603F07AFC50B94FF09E41284603F0D6FA03F09AFC04E06FF0004001E04FF0004002903146D4F8840003F07CFB05464FF07E5103F075FC60B909
:400E80003549284603F05CFC50B94FF09E41284603F0B8FA03F07CFC04E06FF0004001E04FF0004003906B46022202A904F1C40001F062FD009D6D0C019B45EAC3352F4609
:400EC0002078FFF7A1FC28B1D4F89010E06F03F099FA04E0D4F89410E06F03F093FA314603F044FB04464FF07E5103F03DFC60B91949204603F024FC50B94FF09E412046DC
:400F000003F080FA03F044FC04E06FF0004001E04FF00040C317C21B63EBE773B2F1004F73F1000106DAB2F1004F73F1FF3304DB401B04E06FF0004001E04FF0004003F000
:400F40000DFA4FF0405103F05DFA0146304603F059FA05B0F0BD00BF000080BF2DE9F04184B005460E461746D0F8A0402146306803F0FCFA80464FF07E5103F0F5FB68B90E
:400F80004849404603F0DCFB58B94FF08E41404603F038FA03F0FCFB00B203E047F6FF7000E04148ADF80C002146706803F0DEFA06464FF07E5103F0D7FB68B939493046FF
:400FC00003F0BEFB58B94FF08E41304603F01AFA03F0DEFB00B203E047F6FF7000E03248ADF80E002146384603F0C0FA06464FF07E5103F0B9FB68B92A49304603F0A0FB64
:4010000058B94FF08E41304603F0FCF903F0C0FB06B203E047F6FF7600E0234E6B46022203A905F1E80001F04BFF009BDB0B019A43EA4243B3F5004F04DA13F5004F04DB74
:4010400018B203E047F6FF7000E01748B5F9F43003FB06F3DB13B3F5004F04DA13F5004F04DB1BB203E047F6FF7300E00E4B1A18B2F5004F04DA12F5004F04DB10B203E09E
:4010800047F6FF7000E0084803F068F94FF0605103F0B8F90146204603F0B4F904B0BDE8F08100BF000080BF0080FFFF70B586B004460E46D0F8A05000F18801FFF74EFF6B
:4010C0000146304603F094F8294603F04FFA06464FF07E5103F048FB68B93E49304603F02FFB58B94FF08E41304603F08BF903F04FFB01B203E047F6FF7100E0364902232E
:40110000009305AB002204F1F00001F021FF2946D4F8880003F02AFA06464FF07E5103F023FB68B92B49304603F00AFB58B94FF08E41304603F066F903F02AFB00B203E078
:4011400047F6FF7000E02448ADF810002946D4F88C0003F00BFA06464FF07E5103F004FB68B91C49304603F0EBFA58B94FF08E41304603F047F903F00BFB00B203E047F650
:40118000FF7000E01448ADF81200022303AA05A904A801F025FFBDF90C0003F0DFF84FF0605103F02FF90146284603F02BF9C4F88000BDF90E0003F0D1F84FF0605103F08A
:4011C00021F90146284603F01DF9C4F8840006B070BD00BF000080BF0080FFFF2DE9F04387B006460F4690461D46D0F8A0402146386803F0BBF981464FF07E5103F0B4FA52
:4012000068B95E49484603F09BFA58B94FF08E41484603F0F7F803F0BBFA00B203E047F6FF7000E05648ADF814002146786803F09DF907464FF07E5103F096FA68B94F49BA
:40124000384603F07DFA58B94FF08E41384603F0D9F803F09DFA00B203E047F6FF7000E04748ADF816002146404603F07FF907464FF07E5103F078FA68B94049384603F0FD
:401280005FFA58B94FF08E41384603F0BBF803F07FFA01B203E047F6FF7100E038490227009704AB002206F1E40001F051FE02AB3A4605A906F1DC0001F002FE029BDB0BB4
:4012C000039A43EA4243B3F5004F04DA13F5004F04DB1BB203E047F6FF7300E0284BBDF91000C218B2F5004F04DA12F5004F04DB10B203E047F6FF7000E0214803F02EF886
:401300004FF0605103F07EF80146204603F07AF8286002AB022205A906F1E00001F0D0FD029BDB0B039A43EA4243B3F5004F04DA13F5004F04DB1BB203E047F6FF7300E08A
:401340000F4BBDF91200C218B2F5004F04DA12F5004F04DB10B203E047F6FF7000E0084802F0FCFF4FF0605103F04CF80146204603F048F8686007B0BDE8F083000080BF1D
:401380000080FFFF2DE9F04188B0044688461F46D0F8A05000F180063146FFF7DFFD0146404602F025FF294603F0E0F880464FF07E5103F0D9F970B94149404603F0C0F9A0
:4013C00060B94FF08E41404603F01CF803F0E0F90FFA80F804E047F6FF7801E0DFF8E48006AB3A4631462046FFF7F8FE0223009305AB0022414604F1F00001F0A9FD294642
:40140000069803F0B3F806464FF07E5103F0ACF968B92B49304603F093F958B94FF08E41304602F0EFFF03F0B3F900B203E047F6FF7000E02348ADF810002946079803F09E
:4014400095F806464FF07E5103F08EF968B91C49304603F075F958B94FF08E41304602F0D1FF03F095F900B203E047F6FF7000E01448ADF81200022303AA05A904A801F085
:40148000AFFDBDF90C0002F069FF4FF0605102F0B9FF0146284602F0B5FFC4F88000BDF90E0002F05BFF4FF0605102F0ABFF0146284602F0A7FFC4F8840008B0BDE8F0813C
:4014C000000080BF0080FFFF10B500F188030A4600F18001FFF782FE10BD00BF70B584B00546D0F8A0603146D0F8800003F03EF804464FF07E5103F037F968B94649204645
:4015000003F01EF958B94FF08E41204602F07AFF03F03EF900B203E047F6FF7000E03F48ADF80C003146D5F8840003F01FF804464FF07E5103F018F968B93749204603F006
:40154000FFF858B94FF08E41204602F05BFF03F01FF900B203E047F6FF7000E02F48ADF80E006B46022203A905F1EC0001F0A8FC009BDB0B019A43EA4243B3F5004F04DAB2
:4015800013F5004F04DB1CB203E047F6FF7400E0224C2878FFF738F928B1D5F89010E86F02F030FF04E0D5F89410E86F02F02AFF314602F0DBFF05464FF07E5103F0D4F89F
:4015C00068B91549284603F0BBF858B94FF08E41284602F017FF03F0DBF800B203E047F6FF7000E00D48031BB3F5004F04DA13F5004F04DB18B203E047F6FF7000E00748D6
:4016000002F0ACFE4FF0605102F0FCFE0146304602F0F8FE04B070BD000080BF0080FFFF2DE9F04182B006460C461746D0F8A0502946206802F09AFF80464FF07E5103F07A
:4016400093F868B94649404603F07AF850B94FF08641404602F0D6FE03F09AF840B203E07F2001E06FF07F008DF804002946606802F07CFF04464FF07E5103F075F868B92B
:401680003749204603F05CF850B94FF08641204602F0B8FE03F07CF840B203E07F2001E06FF07F008DF805002946384602F05EFF04464FF07E5103F057F868B928492046EE
:4016C00003F03EF850B94FF08641204602F09AFE03F05EF844B203E07F2401E06FF07F046B46022201A906F1FE0001F015FD0098C01103B27F2B04DC13F1800F03DB40B2B8
:4017000003E07F2001E06FF07F0096F9043104FB03F3DB111AB27F2A04DC12F1800F03DB5BB203E07F2301E06FF07F03C2187F2A04DC12F1800F03DB50B203E07F2001E072
:401740006FF07F0002F00AFE4FF0705102F05AFE0146284602F056FE02B0BDE8F08100BF000080BF70B586B004460E46D0F8A05000F18801FFF754FF0146304602F038FD2E
:40178000294602F0F3FE06464FF07E5102F0ECFF68B93E49304602F0D3FF50B94FF08641304602F02FFE02F0F3FF41B203E07F2101E06FF07F010223009305AB002204F57D
:4017C000817001F00FFD2946D4F8880002F0CEFE06464FF07E5102F0C7FF68B92B49304602F0AEFF50B94FF08641304602F00AFE02F0CEFF40B203E07F2001E06FF07F004D
:401800008DF810002946D4F88C0002F0AFFE06464FF07E5102F0A8FF68B91C49304602F08FFF50B94FF08641304602F0EBFD02F0AFFF40B203E07F2001E06FF07F008DF887
:401840001100022303AA05A904A801F019FD9DF90C0002F083FD4FF0705102F0D3FD0146284602F0CFFDC4F880009DF90D0002F075FD4FF0705102F0C5FD0146284602F03D
:40188000C1FDC4F8840006B070BD00BF000080BF2DE9F04387B006460F4690461D46D0F8A0402146386802F061FE81464FF07E5102F05AFF68B95A49484602F041FF50B942
:4018C0004FF08641484602F09DFD02F061FF40B203E07F2001E06FF07F008DF814002146786802F043FE07464FF07E5102F03CFF68B94B49384602F023FF50B94FF0864152
:40190000384602F07FFD02F043FF40B203E07F2001E06FF07F008DF815002146404602F025FE07464FF07E5102F01EFF68B93C49384602F005FF50B94FF08641384602F0B5
:4019400061FD02F025FF41B203E07F2101E06FF07F010227009704AB002206F1FC0001F041FC03AB3A4605A906F1F80001F0D4FB039BDB111AB27F2A04DC12F1800F03DB31
:401980005BB203E07F2301E06FF07F039DF910001A187F2A04DC12F1800F03DB50B203E07F2001E06FF07F0002F0D8FC4FF0705102F028FD0146204602F024FD286003ABEC
:4019C000022205A906F1FA0001F0A6FB039BDB111AB27F2A04DC12F1800F03DB5BB203E07F2301E06FF07F039DF911001A187F2A04DC12F1800F03DB50B203E07F2001E0B8
:401A00006FF07F0002F0AAFC4FF0705102F0FAFC0146204602F0F6FC686007B0BDE8F083000080BF2DE9F04188B0044688461F46D0F8A05000F180063146FFF7F1FD014614
:401A4000404602F0D5FB294602F090FD80464FF07E5102F089FE70B94149404602F070FE60B94FF08641404602F0CCFC02F090FE4FFA80F804E04FF07F0801E06FF07F0839
:401A800006AB3A4631462046FFF702FF0223009305AB0022414604F5817001F0A3FB2946069802F063FD06464FF07E5102F05CFE68B92B49304602F043FE50B94FF0864145
:401AC000304602F09FFC02F063FE40B203E07F2001E06FF07F008DF810002946079802F045FD06464FF07E5102F03EFE68B91C49304602F025FE50B94FF08641304602F076
:401B000081FC02F045FE40B203E07F2001E06FF07F008DF81100022303AA05A904A801F0AFFB9DF90C0002F019FC4FF0705102F069FC0146284602F065FCC4F880009DF989
:401B40000D0002F00BFC4FF0705102F05BFC0146284602F057FCC4F8840008B0BDE8F081000080BF10B500F188030A4600F18001FFF78EFE10BD00BF70B582B00446D0F855
:401B8000A0603146D0F8800002F0F0FC05464FF07E5102F0E9FD68B94449284602F0D0FD50B94FF08641284602F02CFC02F0F0FD40B203E07F2001E06FF07F008DF804004A
:401BC0003146D4F8840002F0D1FC05464FF07E5102F0CAFD68B93549284602F0B1FD50B94FF08641284602F00DFC02F0D1FD40B203E07F2001E06FF07F008DF805006B46FA
:401C0000022201A904F5807001F086FA009DED112BB27F2B04DC13F1800F03DB6DB203E07F2501E06FF07F052078FEF7EDFD28B1D4F89010E06F02F0E5FB04E0D4F894106E
:401C4000E06F02F0DFFB314602F090FC04464FF07E5102F089FD68B91449204602F070FD50B94FF08641204602F0CCFB02F090FD40B203E07F2001E06FF07F00431B7F2B59
:401C800004DC13F1800F03DB58B203E07F2001E06FF07F0002F062FB4FF0705102F0B2FB0146304602F0AEFB02B070BD000080BF30B583B00446154602AB002243F8042D2C
:401CC0000222603000F0C4FD2946A06E02F09AFB019902F08FFA03B030BD00BF70B582B004460E4600F188052946FFF7E1FF0146304602F07DFA02236A46014604F16C00AC
:401D000000F0F6FD022304F180026946284600F057FD02B070BD00BF08B50A4B1B78042B06D0052B07D0032B08D1FEF779FE08BDFFF7BCF908BDFFF715FD08BDFFF7CEFF3C
:401D400008BD00BF5C82FF1FF8B505460F4616461C460222483000F07BFD3146A86D02F051FB0146206802F045FA234643F8040B0222394605F1500000F06AFDE96D30464B
:401D800002F040FB0146606802F034FA6060F8BDF0B585B005460E461F4600F180042146FFF786FF0146304602F022FA064602AB3A4621462846FFF7C7FF02236A463146FC
:401DC00005F16C0000F094FD02232246694602A800F0F6FC05B0F0BD10B50A4C2478042C06D0052C07D0032C08D1FEF775FF10BDFFF7C8FA10BDFFF715FE10BDFFF7C8FFBB
:401E000010BD00BF5C82FF1F10B500F188030A4600F18001FFF798FF10BD00BF08B50A4B1B78042B06D0052B07D0032B08D1FEF7EFFF08BDFFF748FB08BDFFF793FE08BD54
:401E4000FFF7E2FF08BD00BF5C82FF1F10B582B0044602AB002243F8042D022200F18001743000F0F5FC2078FEF7CEFC28B1D4F89010E06F02F0C6FA04E0D4F89410E06F34
:401E800002F0C0FA019902F0B3F902B010BD00BF08B50A4B1B78042B06D0052B07D0032B08D1FEF7BFFF08BDFFF718FB08BDFFF763FE08BDFFF7CAFF08BD00BF5C82FF1FA7
:401EC0002DE9F84304460E46D0F898700078052800F28D80DFE800F0030C490C4988D4F8940002F085F901462046FEF795FC7FE0FEF78AFC58B13146D4F8940002F078F973
:401F00000146D4F8900002F075F9C4F890002046FFF7BEFF0546384B5A681968FEF758FC80462078FEF770FCA0B1D4F87C900021484602F0FBFB68B92946404602F058F907
:401F4000494602F013FB0146D4F8900002F052F9C4F8900043463A4631462046FFF73CFFC4F898802846BDE8F8833A462046FFF7D3FE2078FEF748FC58B13146D4F89400CF
:401F800002F036F90146D4F8900002F033F9C4F890002046FFF77CFF0546174B5A681968FEF716FC06462078FEF72EFC98B1E76F0021384602F0BAFB68B92946304602F045
:401FC00017F9394602F0D2FA0146D4F8900002F011F9C4F8900031462046FFF71FFFC4F898602846BDE8F883D4F8940000E00020C4F89800BDE8F883CC80FF1F10B54FF430
:4020000004720021114803F064F8002312E010485A01D418E100014406240C710124A1F8A0401A44D10001444FF07E52C1F8A4202344DBB2012BEAD9054B002283F814223C
:402040001A7083F8152283F8162210BD6082FF1F5C82FF1F012808D8062900D9062100EB4010C300014A1344197170475C82FF1F012800F28C82002900F089820F2A40F2DB
:4020800086822DE9F04F83B017460D46044606464FF07C51A86B02F0ADF802F09FFB014600B9012104EB4412D300BE4A1344A3F8A010D5F83C804FF07C51404602F05EFBBE
:4020C000D8B1B949404602F045FBB0B141464FF07E5002F04BFAB54B98604146B44802F045FA02F07BFB012800D802200138AD4BC3F81802012283F81622102F0DD92F6C9E
:402100000021384602F03AFB38B104EB4412D300A44A1344C3F8A47008E004EB4412D300A04A13444FF07E52C3F8A42004EB4412D3009C4A13441879A0B16BE055F8217095
:40214000984A7001304443000B4402EB83008760881D55F82000063302EB830398600131C9B200E000210529E8D904EB4412D3008C4A13441F6A0021384602F0D7FA002804
:402180003BD14FF07E51384602F0D0FA88B134E0730133445D004544824B03EB85053946A86802F0E3F9A86008F101085FFA88F801E04FF00008B8F1050FE9D94FF0010839
:4021C00010E072013244530043440633754D05EB83053946A86802F0C9F9A86008F101085FFA88F8B8F1050FEBD904EB4412D3006C4A13444FF07E521A6204EB4414E30038
:4022000030336C4A134400225A609A60DA601A615A61B9E1FEF7F0FA002800F0B5812A6860494FEA441A0AEB0403DE000E44F2646B683365AB687365EB68B3652B69F36520
:402240006B693366AB697366EB69B3662B6AF3666B6A3367AB6A7367EB6AB3672B6BF3676B6BC6F8803001F104090AEB0402D300803309EB0301002249F803204A600AEB0B
:402280000401CB00883309EB030149F803204A600023C6F894300AEB04034FEAC308434608F14808C844A03309EB030104221144404600F097FD0AEB0403DF003B465837CF
:4022C0004F44B03309EB030102220431384600F089FD0AEB0403DD002B4660354D44B83309EB030102220431284600F07BFD0AEB0402D30070334B440433184600930AEB84
:402300000402D300C03309EB03010222043100F069FD0AEB0402D3001A4668334B440433184601931346C83309EB03010222043100F058FDF66E4FF07E51304602F014FAD7
:4023400060B91D49304602F0FBF950B94FF09E41304602F057F802F01BFA04E06FF0004001E04FF0004062012244D3000D4A1344C3F8D800D3F880604FF07E51304602F0BC
:40238000F3F960B90C49304602F0DAF9B0B94FF09E41304602F036F802F0FAF910E06FF000400DE05C82FF1F00401C46CC80FF1F001BB74B6082FF1F000080BF4FF0004027
:4023C000734B660132194FEAC20B9B44CBF8DC0003F104093219D300D83309EB030104221144404600F048FE3219D300E03309EB030102220431384600F03EFE33194FEADF
:40240000C30A0AF1E80ACA4402225146284600F033FE02220AF10401009800F02DFE2644F100F03102224944019800F025FEDBF86C604FF07E51304602F096F968B9554977
:40244000304602F07DF958B94FF08E41304601F0D9FF02F09DF900B203E047F6FF7000E04D4862012244D300494A1344A3F8F800D3F880604FF07E51304602F075F968B919
:402480004449304602F05CF958B94FF08E41304601F0B8FF02F07CF900B203E047F6FF7000E03D483A4B4FEA441909EB04024FEAC20A52469A44AAF8FA0003F1040B1646FD
:4024C000F8365E4404223146404600F023FF0222311D384600F01EFF0222B11D284600F019FFA1444FEAC90303F580739B4402225946009800F00EFF02220BEB02010198B0
:4025000000F008FFDAF86C504FF07E51284602F02BF968B91F49284602F012F950B94FF08641284601F06EFF02F032F940B203E07F2001E06FF07F0062012244D300144A6B
:40254000134483F80801D3F880504FF07E51284602F00AF968B90F49284602F0F1F850B94FF08641284601F04DFF02F011F940B203E07F2001E06FF07F0004EB4414E3009F
:40258000034A134483F8090103B0BDE8F08F70475C82FF1F000080BF0080FFFF052800D90020014B187070475C82FF1FF0B4002327E01C4E351D5901CA18D40030342C4490
:4025C00000226260A260E26022616261CF18FC0080342F192A517A60CF18FC0088342F192A517A60CD18EC0034440025C4F89450C4F89C501944CC002644A6F8A220013320
:40260000DBB2012BD5D9074BC3F898000022C3F8A021002283F81522012283F81422F0BC704700BF5C82FF1F08B50022024B83F81422FDF741FE08BD5C82FF1F014BC3F852
:40264000980070475C82FF1F38B505460C460D4902F076F800B10B4D0B4B1D600B49204602F08CF808B1094900E02146064B5960284602F083F820B1034B024A1A60034A5A
:402680005A6038BD00009EC4CC80FF1F00009E4470B582B0454B93F8143213B9FDF70CFE81E00DF1020101A8FDF736FEBDF9020001F054FE3E4901F0A5FE3E4B996801F077
:4026C00055FF0446019801F049FE3B4901F09AFE0546364BD3F8A40193F80C31062B18D0324AB2F8AA3101339BB2A2F8AA31B2F8A82193420DD32D4E0023A6F8AA3129469C
:4027000006F58670FFF7DCFB3379062B01D0C6F89800264B1B79062B0FD021462748FFF7CFFB0646234B5A681968FEF751F802F02FF800B2FDF790FD13E01C4B93F80C3183
:40274000062B0BD01B4B5A681968FEF741F8064602F01EF800B2FDF77FFD02E0FDF7ACFD002601F039FD114BC3F81C62C3F82042D3F89820C3F82422C3F82852D3F884205A
:40278000C3F82C22D3F88820C3F83022D3F88C21C3F83422D3F89021C3F83822012283F8152201F01DFD02B070BD00BF5C82FF1FFBF7C53BCC80FF1FBEB5243A6082FF1FCF
:4027C0002DE9F04F85B004460D46164603939F0823E0D4F804A0D5F804B0D4F80880D5F80890E3680193EA6802922968206801F001FD30605946504601F0FCFC7060494692
:40280000404601F0F7FCB0600299019801F0F2FCF060103410351036013F002FD9D1039B03F003070EE006F1040A04F1040805F104092968206801F0DDFC3060013F5646F2
:402840004D464446002FEED105B0BDE8F08F00BF2DE9F84F04460D4690469946970800262AE02968206801F0CDFD0146304601F0C1FC06466968606801F0C4FD01463046A4
:4028800001F0B8FC0646A968A06801F0BBFD0146304601F0AFFC064604F1100A05F1100BE968E06801F0AEFD0146304601F0A2FC0646013F5D465446002FD2D108F0030782
:4028C0000FE004F1040805F1040A2968206801F099FD0146304601F08DFC0646013F55464446002FEDD1C9F80060BDE8F88F00BF2DE9F04F83B004460E46154601939F08A7
:4029000022E0D4F804903146206801F07BFD8246D4F808803146484601F074FD8146D4F80CB04146304601F06DFD80465946304601F068FDC5F800A0C5F80490C5F808807F
:40294000E86010341035013F002FDAD1019B03F003070BE005F1040904F104082168304601F050FD2860013F4D464446002FF1D103B0BDE8F08F00BF2DE9F04F8FB08246DF
:402980008B460A920B934FEA920E4FF000084FF00009CDE90889CDF81CE07AE0DAF80010DAF80420DAF808C0DBF80000DBF80430DBF808E0CD174FEAE0792C4600FB04F460
:4029C00001FB0944A0FB01012144860B46EA81468F13DDE9088918EB060849EB0709D5171846D917CDE9080103FB05F0099902FB0101A3FB02230B44910B41EA83410091FB
:402A00009B130193DDE9003413EB080344EB09049846A1466046C1177246D3170EFB01F10CFB0311AEFB0C230B44910B41EA834102919B130393DDE9023413EB080344EB5D
:402A400009049846A146DAF80C30D917DBF80C30DD17DBF80C4004FB01F1DAF80C0000FB0511A4FB00230B44910B41EA834104919B130593DDE9043413EB080344EB0904CA
:402A8000CDE90834079B013B07930BF1100B0AF1100A079B002B81D1DDE908890A9B03F003021BE0DAF800E07046C117DBF800C06646F7170CFB01F30EFB0733ACFB0E01F1
:402AC0001944840B44EA81448D1318EB040849EB0509013A0BF1040B0AF1040A002AE1D10B9BC3E900890FB0BDE8F08F2DE9F04F87B0013252B222F07F0464B225460594AB
:402B0000109CA408002D60D0ABE00668D0F804C04FEAE67B4FEAE17906FB09F501FB0B55A6FB01673D446646F71701FB07FE0CFB09EEA1FB0C67BE4487684FEAE77B01FBF9
:402B40000BFC866806FB09CCA1FB0667BC44C7684FEAE77B01FB0BF6C76807FB09683E46A1FB066708EB070605FA02F80EFA02F748FA02F94D4503D06FF0004888EAE57879
:402B800047FA02F5AE4503D06FF0004787EAEE770CFA02FE06FA02F5C3F800805F604EFA02F7BC4503D06FF0004E8EEAEC7E45FA02F7BE4203D06FF0004585EAE675C3F8CC
:402BC00008E0DD6010301033013C002C9DD14AE0D0F800804568D0F808E0D0F80CC04646F717CDE902670E46CF17CDE9006708FB07FA039E01FB06AAA8FB0189CA444FEA1E
:402C0000E57901FB09F8019E05FB0688A1FB056708EB07057646F71701FB07F8019E0EFB0688A1FB0E6708EB070E6646F71701FB07F7019E0CFB0678A1FB0C6747445642E7
:402C40004AFA06FA45FA06FC4EFA06F547FA06F6C3F800A0C3F804C09D60DE6010301033013C002CB4D1109C04F00305059CE4B130E000F1040E06684FEAE67901FB09F0DD
:402C80004FEAE17906FB0900A1FB0667384400FA02F444FA02F6B04203D06FF0004484EAE0741C60013D04337046002DE1D113E006684FEAE67901FB09F44FEAE17906FB96
:402CC0000944A1FB06673C44564234411C60013D04330430002DEBD107B0BDE8F08F00BF2DE9F04F83B00E46924601934FEA930B5A4652E0D0F80080D0F804E0D6F800C0D6
:402D00007768856800F1100BC468B36806F11009F6686046C11710EB080041EBE871C444B1EBEC7F03D06FF0004C8CEAE17CCAF800C03846F91710EB0E0041EBEE71774441
:402D4000B1EBE77F03D06FF0004787EAE177CAF804701846D917401941EBE5712B44B1EBE37F03D06FF0004383EAE173CAF808300AF110033046F117001941EBE471344475
:402D8000B1EBE47F03D06FF0004484EAE174CAF80C40013A9A464E465846002AAAD1019B03F0030319E00AF10407051D046806F1040E32681046D117001941EBE4712244D8
:402DC000B1EBE27F03D06FF0004282EAE172CAF80020013BBA4676462846002BE3D103B0BDE8F08F2DE9F84304460D461646970846E04FF09E41206801F004FB01F00EFD04
:402E00000346B1EBE07F03D06FF0004383EAE1732B604FF09E41606801F0F4FA01F0FEFC0346B1EBE07F03D06FF0004383EAE1736B604FF09E41A06801F0E4FA01F0EEFCC8
:402E40000346B1EBE07F03D06FF0004383EAE173AB6005F1100804F110094FF09E41E06801F0D0FA01F0DAFC0346B1EBE07F03D06FF0004383EAE173EB60013F4C464546A7
:402E8000002FB6D106F0030615E02F1D04F104084FF09E41206801F0B5FA01F0BFFC0346B1EBE07F03D06FF0004383EAE1732B60013E44463D46002EE7D1BDE8F88300BF13
:402EC0002DE9F0479C4693080026002724E0054655F808AB8E465EF8084B0FFA8AF80FFA84F94FEA2A4A241404FB0AF409FB0844361947EBE4774068496804B20FFA81F83F
:402F00000014091401FB00F108FB0411761847EBE177013B71462846002BD8D102F0030210E0B0F90030B1F900504FEA234E2C1404FB0EF405FB0343F61847EBE377013A4E
:402F400002310230002AECD1CCE90067BDE8F087F0B5059EC2F10F0252B2B7082CE0054655F8084B40684FEA244C01FB0CFC24B204FB01F44FEA204E0EFB01FE00B200FB8C
:402F800001F04CFA02FC14414EFA02FE10410CF30F0C04F30F040EF30F0E00F30F00A4B244EA0C449C464CF8084B80B240EA0E405860013F63462846002FD0D106F00306D5
:402FC0000AE0B0F9004001FB04F4144104F30F041C80013E02330230002EF2D1F0BD00BF2DE9F0434FEA930E2FE0064656F8089BD0F804C00F4657F8088B4D680FFA89F0A3
:403000000FFA88F1084400F30F0084B24FEA284808EB294000F30F0044EA0040144644F8080B0FFA8CF128B2014401F30F0188B2291401EB2C4101F30F0140EA01415160D2
:403040000EF1FF3E224639463046BEF1000FCCD103F003030BE0B0F90050B1F900402C4404F30F041480013B023202310230002BF1D1BDE8F08300BF2DE9F84304460D4600
:40308000164697082EE04FF08E41206801F0BAF901F07EFB00F30F0028804FF08E41606801F0B0F901F074FB00F30F0068804FF08E41A06801F0A6F901F06AFB00F30F0001
:4030C000A88005F1080804F110094FF08E41E06801F098F901F05CFB00F30F00E880013F4C464546002FCED106F003060FE0AF1C04F104084FF08E41206801F083F901F031
:4031000047FB00F30F002880013E44463D46002EEDD1BDE8F88300BF2DE9F0439C4693084FF0000E45E004680D684FEA34277EB21FFA86F847F31706360C360448EA060607
:4031400067B21FFA87F844F317073F0C3F0447EA08074FEA35244FFA84F81FFA88F944F317044FEA14484FEA084849EA08086CB21FFA84F945F317052C0C240449EA040434
:4031800035B20FFA88F936144FEA284808FB06F809FB0588F0443DB20FFA84FE3F14241404FB07F40EFB054404EB080E013B04310430002BB7D102F003020DE090F900309A
:4031C00091F900501E142C1404FB06F405FB03439E44013A01310130002AEFD1CCF800E0BDE8F0832DE9F041DDF818E0C2F1070252B24FEA9E072EE090F9008090F901606B
:4032000090F9025090F903C001FB08F848FA02F808F3070801FB06F6164106F3070676B201FB05F5154105F307056DB201FB0CFC4CFA02FC0CF3070C5FFA88F43602B6B26A
:4032400034432D0405F47F052C4344EA0C641C60013F04330430002FCED10EF003070AE090F9004001FB04F4144104F307041C70013F01330130002FF2D1BDE8F08100BF29
:403280002DE9F0414FEA930C2DE005680F684FFA85FE7CB2A6440EF3070E5FFA8EFE45F3072647F30724344404F3070445F3074847F30746464406F307063F1607EB25656C
:4032C00005F30705360406F47F0646EA0565240204F47F4425434EEA050515600CF1FF3C043204310430BCF1000FCED103F003030BE090F9005091F900402C4404F307044C
:403300001470013B013201310130002BF1D1BDE8F08100BF2DE9F84304460D46164697082EE04FF08641206801F06CF801F030FA00F3070028704FF08641606801F062F8D5
:4033400001F026FA00F3070068704FF08641A06801F058F801F01CFA00F30700A87005F1040804F110094FF08641E06801F04AF801F00EFA00F30700E870013F4C464546C9
:40338000002FCED106F003060FE06F1C04F104084FF08641206801F035F801F0F9F900F307002870013E44463D46002EEDD1BDE8F88300BFFEE700BFF0B40022174611E0D5
:4033C00050F82760F3B226F0FF0608E001EB420511F812406D78A5550132013BDBB2002BF4D10137222FEBD9F0BC7047064B1B78DBB203F00701054A11701B090132137037
:403400004422034B1A707047CF0100496E5800407658004008B50A46002101F05AFE08BD38B50223264A13801C210232117017210232118018210232117002F27A22137029
:4034400008224FF040231A70032103F5007319701C4B1B78DBB21C490B701C4B1A8041F25122023B1A80002419250CE0184B1B7803F0010343EA440404F003044FF4F070AB
:4034800000F0A2FE013D0DB1032CEFD115B90320FFF790FF0F4B4FF480721A8007221A7000220D490A704820023108701A700222033B1A70094A137843F00303137038BD35
:4034C0008040004008010049A146004022420040254200400440004006400040A243004008B501F0EBFD08BD38B572B6394A137843F00403137000240CE0374D6300191975
:403500004A0011462A44084691882858FFF782FF0134E4B2072CF0D900240BE02E49A3001819420088181022416B006BFFF7D8FF0134E4B2002CF1D028494FF09040FFF7D7
:403540003BFF274B274A136002F50062136002F56E522B32137843F0020313701032137843F002031370204C237843F040032370A2F58632513A137843F0100313700A22A3
:403580001A491B48FFF7ACFF0A221A491A48FFF7A7FF082219491A48FFF7A2FF0A2219491948FFF79DFF194A137843F008031370174D61232B70FFF733FF81232B70012255
:4035C000144B1A70FFF712FF0E2221461248FFF787FF38BDE8460040E85000008C00004804040084580C0140A0430040F80C0048C0510040040D004810510040100D0048AF
:4036000022510040180D004830510040224300400048004004000840B043004008B501F021FD03680C2B00D1FEE7FEE708B5104E104D16E029686B68AC68002204E051F8BF
:40364000040B43F8040B0432A242F8D1E868002203E0002143F8041B04328242F9D11035013E002EE6D101F003FDFCF70BFDFEE7010000004851000008B5104A104B1A60BA
:40368000104A136843F40073136000230AE0032B03D80D4A52F8231000E00C490C4A42F8231001332F2BF2D90A4B1A780A4B1A70074A0A4B1A60FFF717FF08BD0004FA0523
:4036C0000CED00E014ED00E0000000001D3600000080FF1FBC760040C080FF1F08ED00E0024A137843F08003137070477B650040024A137803F07F03137070477B650040ED
:40370000014B1870704700BF8A650040014B1878704700BF6A65004008B50146014800F0BBFA08BD28650040024B186820F07F40704700BF4865004008B50146014800F0EF
:40374000ABFA08BD0865004008B501E0FFF7ECFFFFF7DCFF10F0080FF8D108BD10B50B4C2046FFF7D9FF2046FFF7E6FF00F034FD074A137843F01003137000F031FDFFF7D2
:40378000E3FF0120FFF7BCFF10BD00BFBFD401009A65004008B5054B1B7823B9FFF7DEFF0122024B1A70FFF79BFF08BD9884FF1F08B50122054B1A600549002000F040FADC
:4037C0000721002000F050FA08BD00BF80E100E08538000010B50124064B1C6000F03EF9A0F5004000B2044B1B68044A1460184410BD00BF80E100E09C84FF1F00E100E0A4
:40380000024B187800F00F00704700BF6765004040F00700014B1870704700BF8765004008B50F20FFF7F4FFFFF7EAFF00F0D4FC054A137843F01003137000F0D1FC012286
:40384000024B1A6008BD00BF9765004000E100E008B500F055F94FF4004000F0F9F80022064B1A60064B1B7823B9FFF7A1FF0122034B1A70FFF7D4FF08BD00BF9C84FF1FD8
:403880009984FF1F0D4B1B78DBB213F0010F06D00B490A6802F5FF427F320A6007E013F0020F04D006490A68A2F500420A6013F0040F02D00022024B1A60704767650040EC
:4038C0009C84FF1F014B1B681865704708ED00E04001C0B2014B1870704700BF04E400E01022014B1A60704700E100E01022014B1A60704780E100E010B50446FFF7F6FF93
:403900002046FFF7DFFF0720FFF7E2FFFFF7E8FF10BD00BF08B50222054B1A600549012000F08EF90721012000F09EF908BD00BF80E100E0E939000010B50224064B1C60E6
:4039400000F006F9A0F5004000B2044B1B68044A1460184410BD00BF80E100E0A484FF1F00E100E0024B187800F00F00704700BF6E64004040F00700014B1870704700BF28
:403980008E64004008B50F20FFF7F4FFFFF7EAFF00F022FC054A137843F01003137000F01FFC0222024B1A6008BD00BF9E64004000E100E008B500F01DF94FF4004000F0BD
:4039C000C1F80022064B1A60064B1B7823B9FFF7A1FF0122034B1A70FFF7D4FF08BD00BFA484FF1FA084FF1F0D4B1B78DBB213F0010F06D00B490A6802F5FF427F320A6081
:403A000007E013F0020F04D006490A68A2F500420A6013F0040F02D00022024B1A6070476E640040A484FF1F024A137843F080031370704774650040014B1870704700BFA9
:403A400084650040014B1878704700BF64650040014B1880704700BF0C6A0040024B1B78024B188880B27047066500408C6A0040014B188880B270478C6A0040014B18802C
:403A8000704700BF4C6A0040014B1880704700BF6C6A004008B501E0FFF7EAFFFFF7D2FF10F0400FF8D108BD08B5134B1A7802F0F8021A701A7802F0FC021A70FFF7EAFFFB
:403AC0004FF40040FFF7DAFF4FF40040FFF7C0FF0020FFF7B1FFFFF7B5FF4FF40040FFF7D3FF00F079FB054A137843F01003137000F076FB08BD00BF746500409465004043
:403B000008B5054B1B7823B9FFF7CEFF0122024B1A70FFF789FF08BDA884FF1F024A137843F08003137070477D640040014B1870704700BF8C640040014B1878704700BF0B
:403B40006C640040014B1880704700BF14680040024B1B78024B188880B270470A64004094680040014B188880B2704794680040014B1880704700BF54680040014B188034
:403B8000704700BF7468004008B501E0FFF7EAFFFFF7D2FF10F0400FF8D108BD08B5134B1A7802F0F8021A701A7802F0FC021A70FFF7EAFF4FF40040FFF7DAFF4FF400406F
:403BC000FFF7C0FF0020FFF7B1FFFFF7B5FF4FF40040FFF7D3FF00F0FFFA054A137843F01003137000F0FCFA08BD00BF7D6400409C64004008B5054B1B7823B9FFF7CEFFBF
:403C00000122024B1A70FFF789FF08BDA984FF1F01BE704710B5044605E0084B186800F0D3FAA4F50044B4F5004FF6D8034B586800FB04F000F0C8FA10BD00BFD880FF1FAE
:403C400070B504460E46074B1D681F2802D90020FFF7DEFF04F01F04103455F8240045F8246070BD08ED00E038B504460D46072902D90020FFF7CCFF1F2C02D90020FFF754
:403C8000C7FF04F01F0000F1604000F564406D01EDB2057038BD00BFCBB20370C1F307234370C1F307418170704700BF024A137843F080031370704774640040014B188024
:403CC000704700BF1C680040014B1880704700BF9C680040014B1880704700BF5C680040014B1870704700BF8F640040014B1878704700BF6F640040014B188880B27047D7
:403D0000BC68004008B501E0FFF7F6FFFFF7EEFF10F0100FF8D108BD10B5154A137803F0C00343F0090313702A32137843F001031370104C237843F0010323704FF49E603C
:403D4000FFF7BCFF4FF49E60FFF7BEFF0020FFF7C1FF0020FFF7C4FF00F03EFA237843F01003237000F03CFAFFF7CCFF10BD00BF746400409F64004008B5054B1B7823B909
:403D8000FFF7CAFF0122024B1A70FFF78FFF08BDAA84FF1F044A137803F0BF03800100F0400018431070704720510040044A137803F0DF03400100F02000184310707047A2
:403DC0002051004008B511490220FFF739FF07210220FFF749FF00220D4B1A7072220D4B1A70202203331A700B490320FFF728FF07210320FFF738FF0622084B1A7047222D
:403E000010331A70022251331A7008BD61400000AC84FF1F88640040FD4000002564004010B500F0D9F904460D4A137843F0200313700332137843F010031370094A04230E
:403E4000136009490B7843F010030B70082307490B60136000F080F9204600F0C1F910BD9864004000E100E09664004080E200E008B5054B5B7823B9FFF7A4FF0122024B5C
:403E80005A70FFF7CDFF08BDAC84FF1F0422134B1A60134A53889BB2918889B2927912F0FF0F01D18B4212D00E4AD05CC0B201339BB2B3F5FA7F00D30023094A5380937930
:403EC00013F0FF0F06D00022054B9A7102E0064B1878C0B20422054B1A60704780E100E0AC84FF1FB086FF1F4864004000E100E00422174B1A60174B5A8892B29B889BB2F8
:403F00009A4207D1134B9B7913F0FF0F1BD04FF4FA7019E00F4B5A8892B29B889BB29A4207D20C4A908883B2508880B2181A80B20AE0084A908883B2508880B2181A00F549
:403F4000FA7080B200E000200422034B1A60704780E100E0AC84FF1F00E100E0114B5B78FBB10822104B1A600E4A13899BB25289934207D10D4B1B7813F0040F02D10C4BE2
:403F800018700BE0B2F5FA7F02D30022054B5A81044A53890749C854013353810822064B1A607047AC84FF1F80E100E06664004046640040BC84FF1F00E100E010B4194B38
:403FC00059891B899BB2994205D25A1E914214BF0022012206E0CA1A40F2F314A24214BF00220122002AEAD1994207D10E4B1B7813F0040F02D10D4B187010E0B1F5FA7F7E
:4040000000D300210A4B58540131064B5981064B1B7813F0020F02D00822064B1A6010BC704700BFAC84FF1F6664004046640040BC84FF1F00E200E0084B5B7833B9704702
:40404000305DFFF7BBFF0134A4B203E070B50D4606460024AC42F3D370BD00BFAC84FF1F1E4B1B78DBB213F01E0F05D01C4803F01E0201780A43027003F0200303F0FF0278
:40408000002B28D0174B1978C9B2174B1B889BB21648C154164B1B7813F0FF0F02D00121144B197010490B889BB201339BB20B800B889BB2B3F5FA7F02D300210A4B19809F
:4040C000094B198889B20C4B1B889BB2994202D10121074B1970002AC2D170476B640040AC84FF1F48640040B084FF1FB086FF1FB284FF1FB384FF1FAE84FF1F15E0114BF1
:404100001B889BB2B3F5FA7F02D300220D4B1A800C4A13889BB20C49CB5CDBB20B490B7013889BB201339BB21380064B1B889BB2074A1288934204D0064B1B7813F0040FA4
:40414000DDD07047B484FF1FBC84FF1F46640040B684FF1F66640040054A137843F0010313701032137843F001031370704700BFA2430040014B1B685865704708ED00E00D
:404180004001C0B2014B1870704700BF05E400E02022014B1A60704700E100E02022014B1A60704780E100E010B50446FFF7F6FF2046FFF7DFFF0720FFF7E2FFFFF7E8FFAA
:4041C00010BD00BF000000000230800803D000BF01380046FCD17047EFF3108072B6704780F31088704700BF80F0004002E000BF81F0004142001FBF5FEA410392EA030FD4
:404200007FEA226C7FEA236C6AD04FEA1262D2EB1363C1BFD218414048404140B8BF5B42192B88BF704710F0004F40F4000020F07F4018BF404211F0004F41F4000121F0E9
:404240007F4118BF494292EA030F3FD0A2F1010241FA03FC10EB0C00C3F1200301FA03F100F0004302D5494260EB4000B0F5000F13D3B0F1807F06D340084FEA310102F109
:404280000102FE2A51D2B1F1004F40EBC25008BF20F0010040EA03007047490040EB000010F4000FA2F10102EDD1B0FA80FCACF1080CB2EB0C0200FA0CF0AABF00EBC2500D
:4042C00052421843BCBFD0401843704792F0000F81F4000106BF80F400000132013BB5E74FEA41037FEA226C18BF7FEA236C21D092EA030F04D092F0000F08BF08467047F4
:4043000090EA010F1CBF0020704712F07F4F04D1400028BF40F00040704712F100723CBF00F50000704700F0004343F0FE4040F4000070477FEA226216BF08467FEA2363A4
:404340000146420206BF5FEA412390EA010F40F4800070474FF0000304E000BF10F0004348BF40425FEA000C08BF704743F0964301464FF000001CE050EA010208BF70477E
:404380004FF000030AE000BF50EA010208BF704711F0004302D5404261EB41015FEA010C02BF84460146002043F0B64308BFA3F18053A3F50003BCFA8CF2083AA3EBC253D6
:4043C00010DB01FA02FC634400FA02FCC2F12002BCF1004F20FA02F243EB020008BF20F00100704702F1200201FA02FCC2F1200250EA4C0021FA02F243EB020008BF20EA23
:40440000DC7070474FF0FF0C1CEAD0521EBF1CEAD15392EA0C0F93EA0C0F6FD01A4480EA010C400218BF5FEA41211ED04FF0006343EA501043EA5111A0FB01310CF0004044
:40444000B1F5000F3EBF490041EAD3715B0040EA010062F17F02FD2A1DD8B3F1004F40EBC25008BF20F00100704790F0000F0CF0004C08BF49024CEA502040EA51207F3ABA
:40448000C2BFD2F1FF0340EAC250704740F400004FF00003013A5DDC12F1190FDCBF00F000407047C2F10002410021FA02F1C2F1200200FA02FC5FEA310040F1000053EA73
:4044C0004C0308BF20EADC70704792F0000F00F0004C02BF400010F4000F013AF9D040EA0C0093F0000F01F0004C02BF490011F4000F013BF9D041EA0C018FE70CEAD153C4
:4045000092EA0C0F18BF93EA0C0F0AD030F0004C18BF31F0004CD8D180EA010000F00040704790F0000F17BF90F0004F084691F0000F91F0004F14D092EA0C0F01D142027D
:404540000FD193EA0C0F03D14B0218BF084608D180EA010000F0004040F0FE4040F40000704740F0FE4040F4400070474FF0FF0C1CEAD0521EBF1CEAD15392EA0C0F93EA8A
:404580000C0F69D0A2EB030280EA010C49024FEA402037D04FF0805343EA111143EA10130CF000408B4238BF5B0042F17D024FF4000C8B4224BF5B1A40EA0C00B3EB510F4D
:4045C00024BFA3EB510340EA5C00B3EB910F24BFA3EB910340EA9C00B3EBD10F24BFA3EBD10340EADC001B0118BF5FEA1C1CE0D1FD2A3FF650AF8B4240EBC25008BF20F03D
:40460000010070470CF0004C4CEA50207F32C2BFD2F1FF0340EAC250704740F400004FF00003013A37E792F0000F00F0004C02BF400010F4000F013AF9D040EA0C0093F07D
:40464000000F01F0004C02BF490011F4000F013BF9D041EA0C0195E70CEAD15392EA0C0F08D142027FF47DAF93EA0C0F7FF470AF084676E793EA0C0F04D14B023FF44CAFED
:4046800008466EE730F0004C18BF31F0004CCAD130F000427FF45CAF31F000437FF43CAF5FE700BF4FF0FF3C06E000BF4FF0010C02E000BF4FF0010C4DF804CD4FEA40027C
:4046C0004FEA41037FEA226C18BF7FEA236C11D001B052EA530C18BF90EA010F58BFB2EB030088BFC81738BF6FEAE17018BF40F0010070477FEA226C02D15FEA402C05D157
:404700007FEA236CE4D15FEA412CE1D05DF8040B704700BF844608466146FFE70FB5FFF7C9FF002848BF10F1000F0FBD4DF808EDFFF7F4FF0CBF012000205DF808FB00BF13
:404740004DF808EDFFF7EAFF34BF012000205DF808FB00BF4DF808EDFFF7E0FF94BF012000205DF808FB00BF4DF808EDFFF7D2FF94BF012000205DF808FB00BF4DF808ED35
:40478000FFF7C8FF34BF012000205DF808FB00BF4FEA4002B2F1FE4F0FD34FF09E03B3EB12620DD94FEA002343F0004310F0004F23FA02F018BF404270474FF00000704796
:4047C00012F1610F01D1420205D110F0004008BF6FF0004070474FF00000704742000ED2B2F1FE4F0BD34FF09E03B3EB126209D44FEA002343F0004323FA02F070474FF071
:404800000000704712F1610F01D1420202D14FF0FF3070474FF00000704700BF10B500210446FFF78DFF20B92046BDE8104000F009B804F1004000F005F8404261EB4101C2
:4048400010BD00BFD0B500F087F900220E4B06460F4600F0D5F900F0E5FB044600F05AF900220A4B00F0CCF902460B463046394600F012F800F0D6FB2346002242EA000252
:4048800010461946D0BD00BF0000F03D0000F04181F0004102E000BF83F0004330B54FEA41044FEA430594EA050F08BF90EA020F1FBF54EA000C55EA020C7FEA645C7FEAC1
:4048C000655C00F0E2804FEA5454D4EB5555B8BF6D420CDD2C4480EA020281EA030382EA000083EA010180EA020281EA0303362D88BF30BD11F0004F4FEA01314FF4801C12
:404900004CEA113102D0404261EB410113F0004F4FEA03334CEA133302D0524263EB430394EA050F00F0A780A4F10104D5F1200E0DDB02FA0EFC22FA05F2801841F10001E3
:4049400003FA0EF2801843FA05F359410EE0A5F120050EF1200E012A03FA0EFC28BF4CF0020C43FA05F3C01851EBE37101F0004507D54FF0000EDCF1000C7EEB00006EEB03
:404980000101B1F5801F1BD3B1F5001F0CD349085FEA30004FEA3C0C04F101044FEA445212F5800F80F09A80BCF1004F08BF5FEA500C50F1000041EB045141EA050130BDA2
:4049C0005FEA4C0C404141EB010111F4801FA4F10104E9D191F0000F04BF01460020B1FA81F308BF2033A3F10B03B3F120020CDA0C3208DD02F1140CC2F10C0201FA0CF040
:404A000021FA02F10CE002F11402D8BFC2F1200C01FA02F120FA0CFCDCBF41EA0C019040E41AA2BF01EB0451294330BD6FEA04041F3C1CDA0C340EDC04F11404C4F1200291
:404A400020FA04F001FA02F340EA030021FA04F345EA030130BDC4F10C04C4F1200220FA02F001FA04F340EA0300294630BD21FA04F0294630BD94F0000F83F4801306BFE9
:404A800081F480110134013D4EE77FEA645C18BF7FEA655C29D094EA050F08BF90EA020F05D054EA000C04BF1946104630BD91EA030F1EBF0021002030BD5FEA545C05D156
:404AC0004000494128BF41F0004130BD14F580043CBF01F5801130BD01F0004545F0FE4141F470014FF0000030BD7FEA645C1ABF194610467FEA655C1CBF0B46024650EA9F
:404B0000013406BF52EA033591EA030F41F4002130BD00BF90F0000F04BF0021704730B54FF4806404F132044FF000054FF0000150E700BF90F0000F04BF0021704730B58E
:404B40004FF4806404F1320410F0004548BF40424FF000013EE700BF42004FEAE2014FEA31014FEA02701FBF12F07F4393F07F4F81F06051704792F0000F14BF93F07F4FFC
:404B8000704730B54FF4607401F0004521F0004120E700BF50EA010208BF704730B54FF000050AE050EA010208BF704730B511F0004502D5404261EB41014FF4806404F13D
:404BC00032045FEA915C3FF4DCAE4FF003025FEADC0C18BF03325FEADC0C18BF033202EBDC02C2F1200300FA03FC20FA02F001FA03FE40EA0E0021FA02F11444C1E600BF28
:404C000070B54FF0FF0C4CF4E06C1CEA11541DBF1CEA135594EA0C0F95EA0C0F00F0DEF82C4481EA030621EA4C5123EA4C5350EA013518BF52EA033541F4801143F4801348
:404C400038D0A0FB02CE4FF00005E1FB02E506F00042E0FB03E54FF00006E1FB03569CF0000F18BF4EF0010EA4F1FF04B6F5007F64F5407404D25FEA4E0E6D4146EB060651
:404C800042EAC62141EA55514FEAC52040EA5E504FEACE2EB4F1FD0C88BFBCF5E06F1ED8BEF1004F08BF5FEA500E50F1000041EB045170BD06F0004646EA010140EA020005
:404CC00081EA0301B4EB5C04C2BFD4EB0C0541EA045170BD41F480114FF0000E013C00F3AB8014F1360FDEBF002001F0004170BDC4F10004203C35DA0C341BDC04F114040C
:404D0000C4F1200500FA05F320FA04F001FA05F240EA020001F0004221F0004110EBD37021FA04F642EB06015EEA430E08BF20EAD37070BDC4F10C04C4F1200500FA04F305
:404D400020FA05F001FA04F240EA020001F0004110EBD37041F100015EEA430E08BF20EAD37070BDC4F1200500FA05F24EEA020E20FA04F301FA05F243EA020321FA04F033
:404D800001F0004121FA04F220EA020000EBD3705EEA430E08BF20EAD37070BD94F0000F0FD101F00046400041EB010111F4801F08BF013CF7D041EA060195F0000F18BF78
:404DC000704703F00046520043EB030313F4801F08BF013DF7D043EA0603704794EA0C0F0CEA135518BF95EA0C0F0CD050EA410618BF52EA4306D1D181EA030101F000417A
:404E00004FF0000070BD50EA410606BF1046194652EA430619D094EA0C0F02D150EA013613D195EA0C0F05D152EA03361CBF104619460AD181EA030101F0004141F0FE417B
:404E400041F470014FF0000070BD41F0FE4141F4780170BD70B54FF0FF0C4CF4E06C1CEA11541DBF1CEA135594EA0C0F95EA0C0F00F0A7F8A4EB050481EA030E52EA0335DB
:404E80004FEA013100F088804FEA03334FF0805545EA131343EA12634FEA022245EA111545EA10654FEA00260EF000419D4208BF964244F1FD0404F5407402D25B084FEA50
:404EC0003202B61A65EB03055B084FEA32024FF480104FF4002CB6EB020E75EB030E22BFB61A754640EA0C005B084FEA3202B6EB020E75EB030E22BFB61A754640EA5C009C
:404F00005B084FEA3202B6EB020E75EB030E22BFB61A754640EA9C005B084FEA3202B6EB020E75EB030E22BFB61A754640EADC0055EA060E18D04FEA051545EA16754FEA68
:404F400006164FEAC30343EA52734FEAC2025FEA1C1CC0D111F4801F0BD141EA00014FF000004FF0004CB6E711F4801F04BF01430020B4F1FD0C88BFBCF5E06F3FF6AFAEB0
:404F8000B5EB030C04BFB6EB020C5FEA500C50F1000041EB045170BD0EF0004E4EEA113114EB5C04C2BFD4EB0C0541EA045170BD41F480114FF0000E013C90E645EA060E10
:404FC0008DE60CEA135594EA0C0F08BF95EA0C0F3FF43BAF94EA0C0F0AD150EA01347FF434AF95EA0C0F7FF425AF104619462CE795EA0C0F06D152EA03353FF4FDAE1046CE
:40500000194622E750EA410618BF52EA43067FF4C5AE50EA41047FF40DAF52EA43057FF4EBAE12E74A0011D212F5001211D20DD56FF47873B3EB62520ED44FEAC12343F031
:40504000004343EA505323FA02F070474FF00000704750EA013002D14FF0FF3070474FF000007047014B1868704700BF4881FF1F0E4B70B51E460E4C0025E41AA410A542E5
:4050800004D056F8253098470135F8E700F04AF8084B094C1E46E41AA4100025A54204D056F8253098470135F8E770BD3051000030510000305100003851000010B5431EBF
:4050C0000A44914204D011F8014B03F8014FF8E710BD03460244934202D003F8011BFAE77047000000000000005100401000405100403000F0510040100000000140001006
:4051000000140140000800400140000A004C0140000210500140100000500140E80C004810004300F8B500BFF8BC08BC9E4670474D00000079360000F8B500BFF8BC08BCC8
:405140009E4670472900000058510000C880FF1F88000000580700000000000000009EC400009E440AD7A33B0000E02EC05D00001800000000366E0100000000000000008A
:40518000000000000000000000000000000000000000000000000000225100000000000000000000000000000000000000000000000000000000000000000000000000007C
:4051C000000000000000000000000000000000000000000000000000E880FF1F00000000000000000000000000000000000000000000000000000000000000000000000029
:40520000000000000000000000000000000000000000000000000000000000000000000000000000000000000000000000000000000000000000000000000000000000006E
:40524000000000000000000000000000000000000000000000000000000000000000000000000000000000000000000000000000000000000000000000000000000000002E
:4052800000000000000000000000000000000000000000000000000000000000000000000000000000000000000000000000000000000000000000000000000000000000EE
:4052C00000000000000000000000000000000000000000000000000000000000000000000000000000000000000000000000000000000000000000000000000000000000AE
:020000040003F7
:0200000480007A
:40000000045200400664004003650040010101405A040140300501404D0601404F0701405108014044090140680A01404B0B0140390C0140360D0140580E01402F0F0140B3
:40004000401401404815014063160140451701406818014046190140541A01404C1B014009400140064101400742014006430140054501400248014003490140094C0140DF
:40008000084D014005500140025101401080118061806440860F88728B388C6F8E0F8F0D846F870F8A0DE204044C050E06110D140E200F0A100912101414151E182019067F
:4000C0001B181E031F012010210A2314248025182706281C2A422C502E0C30C0331E34203501361F38023E105280580459045B045C905D105F0182088407857389CF8A0745
:400100008B308C208D9E8F609001920295FD9604970298019A029C30A030A594A610A760A807AB0FAC04AD30AFC9B030B1FFB20FB802BE01BF01C004C740C9FFCA07CBFF67
:40014000CC40CD20CEF0CF05D008D804D904DA04DC09DF01E040E1A8E240E32000880494074009200A610C200E020F601008110612021546162017201AC91C101D0A1F08E4
:4001800021202208232027402B902C202D402F0830203288360838043B403C043D083F6045024A034D04550172808A80C0F5C2FFC4FFCA73CC4ECE7AD080E2800003020492
:4001C00003080503080309060A040C0A0D060E041108120815051D0820032110220C260527082B0833073510360F370839083A803F5040434105450B47EC483149FF4AFF25
:400200004BFF4EF04F44500C54015604580459045A045B045C905F0166C06A406B02841087018A108C0C8E038F05920C930394109C019E069F06A208A302A603AC01AD0610
:40024000AE0EAF01B00FB107B410BA02BB02BE10D804D904DF010020010803020480052006080780088009080A400E4010401106120214801504188019101B031D401E02D6
:4002800021012202238025042640270828402B012D052E022F08324234803540360A39043A403D083F62448046604E12560A57085D215E805F0867808740910492C89480F3
:4002C0009542962097409A20A109A208A460A504A681A790A848AC04AD01AE01C0D7C21DC43DCAE9CCD9CEFAD0C0D210D6F0D880E610E80800010104020204010507061244
:4003000009060A040D070E08130115061701180119011A021B061C021E01250226043107320C341036033A803B803E044024410142054403460E47C0482449FF4AFF4BFFB1
:400340004C624DA04EF04F41500C56025710580459045A045B045C095F016640670269106A306B106D106E106F128001820283048E048F01900292019702A801AA02AC0137
:40038000AE02B003B102B301B604B704BA02D804D904DC99DF010082044805120A400DA012081340150818801A411DA81F4020022101220823402402254026022C203208AD
:4003C0003610371639823C083D803E224440454847124E02550156805E806D106E186F0174207580762277208D10910192209414960897919B049C409D809E809F20A240B9
:40040000A308A424A541A613AD01C0F9C2C8C423CA40CCE2CEF9D0F0D210D610E61004C50506063A08A309050A5C100E12F0147F19031A011C961E6828FE29062A013307C6
:4004400034FF350739283E104014410349FF4AFF4BFF4DA04F015018580459045A045C905D095F016040628064406540668068406A806C406D206E8082028310850C8703E1
:4004800089038B0C8C018D0F9310950C9703990C9C01A202A302A401A504AD08B001B202B310B50EB701B802B980BB20BE05BF04C054C106C52CC604C73EC837C9FFCAFF62
:4004C000CBFFCDAFCE07CF01D018D418D604D804D904DA04DB04DD09DF01E040E280E440E540E680E840EA80EC40ED20EE8000040308068109A00A200B810F02100813107C
:400500001508170119201D021E401F04210422102510260427052B082C602D8032103602372438043B103C083D823E1040104140424045024E444F465480560557025E32D9
:400540006502670A89028A108E048F0191809340941496A097959D209E15A120A240A308A48CA5D0A610A703B110B301C096C28FC432CAD4CCE4CEF6D08BD230D680D8B04C
:40058000E280E4200302050409040D040E0219041E0129012C012F01310232023301360137043E403F44540F580459045B045C995D905F05830184188502860288188902AD
:4005C0008A048D02921E940E95029A019B019C109E029F02A101A816AA08AB04B001B101B21EB506B701BF41D280D804D904DB04DC99DD90DF010004030806010804092073
:400600000A200B810F021310174019011B081E021F04216023402644274029212F0631A03308361038063B903C083DA03F025D105E4A6604670470017E1088088B01924031
:40064000941096809C049E109F01A480A702B010C086C28FC482CA35CC2ECEFFD6F0D860DE400101020109010A010C0210021F0223012C01300231023301360138023E4052
:400680003F044060410249FF4AFF4BFF4DA04F045018540F5604580459045A045B045C995D915F01604062C06440654066C068C06AC06CC06EC087018B0191029A0C9B0254
:4006C0009E02A002A601AA04B002B102B204B401B501B608BE01BF10C020C106C5D1C620C80BC9FFCAFFCBFFCDAFCE0FCF04D018D405D804D904DA04DB04DC11DD11DF0122
:40070000E040E2C0E440E540E6C0E8C0EAC0ECC0EEC00010010203020A800C800F0412021502161819431C281E422101220223202788290130803621381039023C083E084C
:400740003F204120460848044E204F2555205710580459405B215F8962018201C00BC2C8C471CA01CCA8CE65D024D224D6DFD8010620070108180A040C100E0210401302C1
:40078000161E1A011B021F042240240E250128162A082C182D022E023040310132013302341E362037043E013F055280540F580459045B045C995D905F058201857F8802C9
:4007C00089A38B5C8DC58F3A9002940295FE970198029B01A50EA604A7F0AD96AE02AF68B201B406B5FFBF10D804D904DC09DF010004016007440A800B280C200F6010803E
:400800001108120813401540170819A91B101C041D101E201F0822402390270829882C202D402F103080311235103608370438083D083F6059015A085B906104621071026C
:40084000790486108C808F509008914492089348971099049A109D08A0A0A104A208A718A940AB84B410B610C057C27EC4AFCA5ACC6DCE72D60FD806DE02E010E408EE043D
:4008800008010A0214021601170218011A021B01220428012A0232033302340435013A084065410349FF4AFF4BFF4DA04F015018580459045A045C995D095F01604062803A
:4008C00064406540668068406A806C406D206E808404850E8A028C018D188F0495169604970899109B029D01A001A101A401A518A702AA04AB1EB004B11EB202B301B60175
:40090000B880B908BE41C065C103C53EC6C2C704C81FC9FFCAFFCBFFCDAFCE07CF01D018D40FD604D804D904DA04DB04DC99DD99DF01E040E280E440E540E680E840EA8074
:40094000EC40ED20EE80008001080308070409080E181080110C132814801710181019801A401B401E1820202360271429022B1430A032083604371039043B40410845086A
:40098000484049864A804B104F9050845210530459115A405B086102810182088C808D0292089540974099109D08A020A10CA208A450A680A790A820C047C264C45ECA07FA
:4009C000CC6ECE0AD042D23CD60FD801E610EA01007F0102030405020610070408020C110D020F04100313011473160C18041D041E631F02201C22432301241F2620280CFB
:400A00002C08320F347C350137063A283B80404149FF4AFF4BFF4F015018580459045A045C905D095F016040624064406540668068806A806C806E808110849E86608702E5
:400A400088CF8A308B1C8D048F08909492609473951C99049A0F9B089C309EC99F01A320A51CA8FDAA02AB10B0FFB102B33CB501BE01C014C9FFCAFFCBFFCD83CE03CF0196
:400A8000D018D804D904DA04DC90DD09DF01E040E240E440E540E680E880EA80EC80EE8000040308040205940A280B810C600E601004131014801602172419011C081E2008
:400AC00020902204230425102680281029012B082F80300432403320368238103B853C803E013F04410143C0464158105A2082408D409002911192319380945C95889608F1
:400B0000971198409A029B259D129F02A020A204A308A444A510A611A840C0F6C2FFC4F2CA87CC9ECEDFD099E210E60100010105030A041806040818090F0A020D030F0CBC
:400B4000101012021416150C1608170319071F10221E2310240E250A27053001330F341E37103E013F40401445EC4720482349FF4AFF4BFF4D834E034F01501854015804E9
:400B800059045A045B045C995D995F016040624064406540668068806A806C806E8080C0844A861588A489018A128CD08E28910194C09501983E9EC0A2C0A6C0A83EB03860
:400BC000B201B406B6C0B701D280D804D904DB04DD90DF010004010103080442051006200B900D800E281010130114801510170418841B201C401D141E422240231025802D
:400C000027022A012B20301032103348360437013B913E104101434049095101520359095A8076407740850289848A208C4090029111923093819444950A96409710988005
:400C40009B059D969E419F42A214A308A603A720AA80B084B404B701C0FEC2ECC47CCA03CCCECE2DD009D60BE810EC10302032043580360838808180CCF0CE10E220332065
:400C800094809608A420A608CC108A048B2094809608A420A608A72086088C409480A420A608E21064049804B004D801EC018C20A42004088C04C020012009100D8081800C
:400CC0008D30C002C203E208E6081080798088808D40C408DC01E408E601100111011B011C011D0100FF010F03010000000000000000030101010201800040808000800028
:400D0000000000000400C00F0B0000000000000000E0E000800000000200000200000000000000000000000000000000000000000000000000000000000000000000000091
:400D40000000000000000000000000000000000000000000000000000000000000000000000000000000000000000000000000000000000000000000000000000000000073
:400D80000000000000000000000000000000000000000000000000000000000000000000000000000000000000000000000000000000000000000000000000000000000033
:400DC00000000000000000000000000000000000000000000000000000000000000000000000000000000000000000000000000000000000000000000000000000000000F3
:400E000000000000000000000000000000000000000000000000000000000000000000000000000000000000000000000000000000000000000000000000000000000000B2
:0200000490006A
:0400000000004005B7
:0200000490105A
:04000000BC90ACAF55
:0200000490303A
:02000000EC18FA
:0200000490402A
:4000000000000000000000000000000000000000000000000000000000000000000000000000000000000000000000000000000000000000000000000000000000000000C0
:400040000000000000000000000000000000000000000000000000000000000000000000000000000000000000000000000000000000000000000000000000000000000080
:400080000000000000000000000000000000000000000000000000000000000000000000000000000000000000000000000000000000000000000000000000000000000040
:4000C0000000000000000000000000000000000000000000000000000000000000000000000000000000000000000000000000000000000000000000000000000000000000
:0200000490501A
:0C00000000012E16106900012E3CFC814E
:00000001FF