:4000000000800020110000003D3600003D36000008B5044B1A6803F53F5302331A6003F015FB00BFFA46004010B5054C237833B9044B13B10448AFF300800123237010BD7E
:400040005081FF1F0000000024510000084B10B51BB108490848AFF300800848036803B910BD074B002BFBD0BDE81040184700BF000000005481FF1F24510000C880FF1F08
:400080000000000030B593B062B601F0DFFF00F04BF900F00FFB744B1B7813F0FF0F0AD00022714B1A7003F033FB704B186803F049FB03F08FFB6E4B1B7813F0FF0F02D11E
:4000C00000F00CFBE7E76B4B1B7813F0FF0FE2D00025684B1D7003F029FB03F039FB0446012004F085F802F0FBFA284604F080F803F01CFB03F02CFB844201D3241A00E013
:40010000002404F089F85C4B1B6808935B4B1B6807935B4B1B6806935A4B1B6805935A4B1B680493594B1B680393594B1B680293584B1B6801930022574B1A7004F070F880
:400140009DF820308DF824309DF821308DF825309DF822308DF826309DF823308DF827309DF81C308DF828309DF81D308DF829309DF81E308DF82A309DF81F308DF82B3077
:400180009DF818308DF82C309DF819308DF82D309DF81A308DF82E309DF81B308DF82F309DF814308DF830309DF815308DF831309DF816308DF832309DF817308DF8333037
:4001C0009DF810308DF834309DF811308DF835309DF812308DF836309DF813308DF837309DF80C308DF838309DF80D308DF839309DF80E308DF83A309DF80F308DF83B30F7
:400200009DF808308DF83C309DF809308DF83D309DF80A308DF83E309DF80B308DF83F309DF804308DF840309DF805308DF841309DF806308DF842309DF807308DF84330B6
:400240008DF84440C4F307238DF84530C4F307438DF84630240E8DF8474024210DEB010003F000FF17E700BF7284FF1FD880FF1F5482FF1F6C81FF1F7884FF1F8084FF1FAE
:400280007484FF1F7C84FF1F8484FF1F8884FF1F8C84FF1F9084FF1F7184FF1F10B50446B0F59E6F01DD4FF49E6414F59E6F00DA114C002C09DD012003F082FD002003F05E
:4002C0008BFDA0B203F01CFD10BD002C0ADA002003F076FD012003F07FFD604280B203F00FFD10BD002003F06BFD002003F074FD002003F005FD10BD10FBFFFF08B50020BE
:4003000003F05EFD002003F067FD002003F0F8FC08BD00BF08B503F00FFA0122014B1A7008BD00BF6C81FF1F10B503F03BFDFFF7E5FF03F0ADFA03F05DFB03F06BFA074CD2
:400340006060074803F0FEF903F044FA054803F0F3FA00232370238110BD00BF6C81FF1FBFD401001503000038B505460C4603F003FB286003F04EFA074A5368C31A5060B2
:40038000B3F5004F01DB47F6FF7313F5004F00DA024B238038BD00BF6C81FF1F0080FFFF38B50546002405E0012003F053FC0134AC4206D203F0B2FD0028F5D003F07CFDC3
:4003C00038BDFE2038BD00BF08B503F0DDFD08BD70B582B0064600250135EDB2322D37D800240BE04FF4FA70FFF7DAFF02AB234403F8040CFE282DD00134E4B2032CF1D94B
:40040000002407E002AB234413F8040CFFF7DCFF0134E4B2032CF5D94FF4FA70FFF7C0FFFE2819D041280FD1FFF7CEFF9DF8043033709DF8053073709DF80630B3709DF8D0
:400440000730F370012008E04E20FFF7BDFFC3E7002002E0002000E0002002B070BD00BF30B59BB04FF4FA70FFF79AFF04464FF4FA70FFF795FFFE2C01D0FE2803D1452008
:40048000FFF7A2FFBCE044EA0025ADB2D82D08D100252C4616E03220FFF782FF0134A4B200E000246B1C9C42F5D34520FFF78CFFA6E04FF4FA70FFF773FF524B1855454057
:4004C0000134A4B2D72CF4D94FF4FA70FFF768FF854203D04520FFF777FF91E0494B1D785C78987802F082F82946002001F0DAFD002318E0591C434A12F821008DF86400BA
:400500009B00581D105C8DF86500981D105C8DF86600D81D125C8DF867201AAA1344199A43F8682C8BB2182BE4D919226946002001F0C6FD2146012001F0B4FD00231DE0F8
:4005400003F11A022F4911F822208DF864209A0002F16900085C8DF8650002F16A00085C8DF8660002F16B00095C8DF867101AA90A44199942F8681C01339BB2182BDFD9F3
:4005800019226946012001F09BFD1E4C94F8CC308DF8643094F8CD308DF8653094F8CE308DF8663094F8CF308DF86730199D94F8D0308DF8643094F8D1308DF8653094F81F
:4005C000D2308DF8663094F8D3308DF86730199894F8D4308DF8643094F8D5308DF8653094F8D6308DF8663094F8D7308DF86730199902F051F8C4F8D8504B20FFF7E4FEBE
:400600001BB030BD7881FF1F294B93F8DC30DBB2012B4BD130B583B042E003F04DFC244B93F8DD30CBB973280DD1FFF767FE02F023F81F4C002584F8DC504B20FFF7C4FECE
:4006400084F8DD5030E075282AD1194B012283F8DD20002283F8DE2022E0154991F8DE20531CDBB281F8DE300A4482F8E000032B16D90C4691F8E0308DF8043091F8E13022
:400680008DF8053091F8E2308DF8063091F8E3308DF80730019801F0F9FF002384F8DD3003F03CFC0028B8D103B030BD704700BF7881FF1F08B503F0F1FB064803F08AFD37
:4006C000054B002283F8DC2083F8DD2083F8DE2008BD00BF090600007881FF1F70B582B003F01CFC002800F0918003F0E5FB6638102800F28B80DFE800F01C8989698989E5
:40070000898989895589097E89896100FFF7F6FD01F0B2FF00223E4B1A703E4B83F8DC200021C3F8D81083F8DD204B20FFF74CFE6CE05220FFF748FE01A8FFF749FE68B31B
:400740009DF804308DF800309DF805308DF801309DF806308DF802309DF807308DF80330009C4FF07C51204604F028F890B12A49204604F00FF868B12146284803F016FF46
:4007800004F04CF8441E02F0C3FF204602F0DAFF03F020F84B20FFF717FE37E02120FFF713FE33E0FFF75CFE30E01A4D285DFFF70BFE2B5D5E400134A4B201E0002634464A
:4007C000D72CF2D93046FFF7FFFD1FE0FFF796FD00230F4A13700F4C84F8DD3084F8DE30D4F8D80001F00AFF012384F8DC304B20FFF7EAFD0AE0FFF781FD01F03DFF00228F
:40080000044B83F8DC204B20FFF7DEFD02B070BD6C81FF1F7881FF1F00401C46001BB74B70B505460E461446114603F0C7FF30B93146284603F0A4FF18B1304670BD204692
:4008400070BD284670BD00BF0138C0B203288CBF00200120704700BF0338C0B201288CBF00200120704700BFF8B504460E46406803F0E8FD616B03F0DDFC0546A76BA16878
:40088000304603F0DFFD0146384603F0D3FC0746216A284603F0D6FD0146384603F0C8FC6063E76BE168304603F0CCFD0146384603F0C0FC0746616A284603F0C3FD014660
:4008C000384603F0B5FCA063276C2169304603F0B9FD0146384603F0ADFC0746A16A284603F0B0FD0146384603F0A2FCE063676C6169304603F0A6FD0146384603F09AFC40
:400900000746E16A284603F09DFD0146384603F08FFC2064A169304603F094FD0646216B284603F08FFD0146304603F081FC60642846F8BD2DE9F04385B006460C46174607
:40094000D0F8A0502946206803F030FE80464FF07E5103F029FF60B94449404603F010FF50B94FF09E41404603F06CFD03F030FF04E06FF0004001E04FF00040029029467B
:40098000606803F013FE04464FF07E5103F00CFF60B93649204603F0F3FE50B94FF09E41204603F04FFD03F013FF04E06FF0004001E04FF0004003902946384603F0F6FD19
:4009C00004464FF07E5103F0EFFE68B92749204603F0D6FE58B94FF09E41204603F032FD03F0F6FE044604E06FF0004401E04FF000446B46022202A906F1BC0001F0E4FF27
:400A00000099490C019B41EAC331D6F8D4204FEAE279E71704FB09F002FB0700A4FB02230344D00F40EA4300C317421843EBE173B2F1004F73F1000406DAB2F1004F73F120
:400A4000FF3304DB084404E06FF0004001E04FF0004003F0A3FC4FF0405103F0F3FC0146284603F0EFFC05B0BDE8F083000080BF70B588B004460E46D0F8A05000F1880126
:400A8000FFF758FF0146304603F0D2FB294603F08DFD06464FF07E5103F086FE68B93C49304603F06DFE58B94FF09E41304603F0C9FC03F08DFE014604E06FF0004101E0AE
:400AC0004FF000410223009306AB002204F1CC0002F034F82946D4F8880003F067FD06464FF07E5103F060FE60B92949304603F047FE50B94FF09E41304603F0A3FC03F0EC
:400B000067FE04E06FF0004001E04FF0004004902946D4F88C0003F049FD06464FF07E5103F042FE60B91A49304603F029FE50B94FF09E41304603F085FC03F049FE04E011
:400B40006FF0004001E04FF000400590022302AA06A904A802F0ECF8029803F01FFC4FF0405103F06FFC0146284603F06BFCC4F88000039803F012FC4FF0405103F062FC01
:400B80000146284603F05EFCC4F8840008B070BD000080BF2DE9F04389B006460F4690461D46D0F8A0402146386803F0FFFC81464FF07E5103F0F8FD60B95A49484603F0DC
:400BC000DFFD50B94FF09E41484603F03BFC03F0FFFD04E06FF0004001E04FF0004006902146786803F0E2FC07464FF07E5103F0DBFD60B94B49384603F0C2FD50B94FF06F
:400C00009E41384603F01EFC03F0E2FD04E06FF0004001E04FF0004007902146404603F0C5FC07464FF07E5103F0BEFD68B93D49384603F0A5FD58B94FF09E41384603F0FA
:400C400001FC03F0C5FD014604E06FF0004101E04FF000410227009704AB002206F1B40001F06CFF02AB3A4606A906F1A40001F0ABFE029B5B0C039A43EAC23304984FEA55
:400C8000E07910EB030849EBE379B8F1004F79F1000206DAB8F1004F79F1FF3204DB184404E06FF0004001E04FF0004003F076FB4FF0405103F0C6FB0146204603F0C2FB0B
:400CC000286002AB022206A906F1AC0001F07CFE029B5B0C039A43EAC2330598C717C61847EBE377B6F1004F77F1000206DAB6F1004F77F1FF3204DB184404E06FF00040A9
:400D000001E04FF0004003F049FB4FF0405103F099FB0146204603F095FB686009B0BDE8F08300BF000080BF2DE9F0418AB0044688461F46D0F8A05000F180063146FFF764
:400D4000F9FD0146404603F073FA294603F02EFC80464FF07E5103F027FD68B93F49404603F00EFD58B94FF09E41404603F06AFB03F02EFD804604E06FF0004801E04FF010
:400D8000004808AB3A4631462046FFF703FF0223009306AB0022414604F1CC0001F0CEFE2946089803F002FC06464FF07E5103F0FBFC60B92949304603F0E2FC50B94FF0F5
:400DC0009E41304603F03EFB03F002FD04E06FF0004001E04FF0004004902946099803F0E5FB06464FF07E5103F0DEFC60B91B49304603F0C5FC50B94FF09E41304603F0C8
:400E000021FB03F0E5FC04E06FF0004001E04FF000400590022302AA06A904A801F088FF029803F0BBFA4FF0405103F00BFB0146284603F007FBC4F88000039803F0AEFA7F
:400E40004FF0405103F0FEFA0146284603F0FAFAC4F884000AB0BDE8F08100BF000080BF10B500F188030A4600F18001FFF792FE10BD00BFF0B585B00446D0F8A060314695
:400E8000D0F8800003F092FB05464FF07E5103F08BFC60B94449284603F072FC50B94FF09E41284603F0CEFA03F092FC04E06FF0004001E04FF0004002903146D4F8840015
:400EC00003F074FB05464FF07E5103F06DFC60B93549284603F054FC50B94FF09E41284603F0B0FA03F074FC04E06FF0004001E04FF0004003906B46022202A904F1C4004F
:400F000001F062FD009D6D0C019B45EAC3352F462078FFF7A1FC28B1D4F89010E06F03F091FA04E0D4F89410E06F03F08BFA314603F03CFB04464FF07E5103F035FC60B985
:400F40001949204603F01CFC50B94FF09E41204603F078FA03F03CFC04E06FF0004001E04FF00040C317C21B63EBE773B2F1004F73F1000106DAB2F1004F73F1FF3304DBA1
:400F8000401B04E06FF0004001E04FF0004003F005FA4FF0405103F055FA0146304603F051FA05B0F0BD00BF000080BF2DE9F04184B005460E461746D0F8A0402146306876
:400FC00003F0F4FA80464FF07E5103F0EDFB68B94849404603F0D4FB58B94FF08E41404603F030FA03F0F4FB00B203E047F6FF7000E04148ADF80C002146706803F0D6FA66
:4010000006464FF07E5103F0CFFB68B93949304603F0B6FB58B94FF08E41304603F012FA03F0D6FB00B203E047F6FF7000E03248ADF80E002146384603F0B8FA06464FF021
:401040007E5103F0B1FB68B92A49304603F098FB58B94FF08E41304603F0F4F903F0B8FB06B203E047F6FF7600E0234E6B46022203A905F1E80001F04BFF009BDB0B019A03
:4010800043EA4243B3F5004F04DA13F5004F04DB18B203E047F6FF7000E01748B5F9F43003FB06F3DB13B3F5004F04DA13F5004F04DB1BB203E047F6FF7300E00E4B1A184F
:4010C000B2F5004F04DA12F5004F04DB10B203E047F6FF7000E0084803F060F94FF0605103F0B0F90146204603F0ACF904B0BDE8F08100BF000080BF0080FFFF70B586B0A8
:4011000004460E46D0F8A05000F18801FFF74EFF0146304603F08CF8294603F047FA06464FF07E5103F040FB68B93E49304603F027FB58B94FF08E41304603F083F903F013
:4011400047FB01B203E047F6FF7100E036490223009305AB002204F1F00001F021FF2946D4F8880003F022FA06464FF07E5103F01BFB68B92B49304603F002FB58B94FF08B
:401180008E41304603F05EF903F022FB00B203E047F6FF7000E02448ADF810002946D4F88C0003F003FA06464FF07E5103F0FCFA68B91C49304603F0E3FA58B94FF08E4169
:4011C000304603F03FF903F003FB00B203E047F6FF7000E01448ADF81200022303AA05A904A801F025FFBDF90C0003F0D7F84FF0605103F027F90146284603F023F9C4F8E1
:401200008000BDF90E0003F0C9F84FF0605103F019F90146284603F015F9C4F8840006B070BD00BF000080BF0080FFFF2DE9F04387B006460F4690461D46D0F8A040214603
:40124000386803F0B3F981464FF07E5103F0ACFA68B95E49484603F093FA58B94FF08E41484603F0EFF803F0B3FA00B203E047F6FF7000E05648ADF814002146786803F012
:4012800095F907464FF07E5103F08EFA68B94F49384603F075FA58B94FF08E41384603F0D1F803F095FA00B203E047F6FF7000E04748ADF816002146404603F077F907464E
:4012C0004FF07E5103F070FA68B94049384603F057FA58B94FF08E41384603F0B3F803F077FA01B203E047F6FF7100E038490227009704AB002206F1E40001F051FE02AB7B
:401300003A4605A906F1DC0001F002FE029BDB0B039A43EA4243B3F5004F04DA13F5004F04DB1BB203E047F6FF7300E0284BBDF91000C218B2F5004F04DA12F5004F04DB83
:4013400010B203E047F6FF7000E0214803F026F84FF0605103F076F80146204603F072F8286002AB022205A906F1E00001F0D0FD029BDB0B039A43EA4243B3F5004F04DA24
:4013800013F5004F04DB1BB203E047F6FF7300E00F4BBDF91200C218B2F5004F04DA12F5004F04DB10B203E047F6FF7000E0084802F0F4FF4FF0605103F044F80146204681
:4013C00003F040F8686007B0BDE8F083000080BF0080FFFF2DE9F04188B0044688461F46D0F8A05000F180063146FFF7DFFD0146404602F01DFF294603F0D8F880464FF0E8
:401400007E5103F0D1F970B94149404603F0B8F960B94FF08E41404603F014F803F0D8F90FFA80F804E047F6FF7801E0DFF8E48006AB3A4631462046FFF7F8FE02230093EC
:4014400005AB0022414604F1F00001F0A9FD2946069803F0ABF806464FF07E5103F0A4F968B92B49304603F08BF958B94FF08E41304602F0E7FF03F0ABF900B203E047F6B2
:40148000FF7000E02348ADF810002946079803F08DF806464FF07E5103F086F968B91C49304603F06DF958B94FF08E41304602F0C9FF03F08DF900B203E047F6FF7000E02D
:4014C0001448ADF81200022303AA05A904A801F0AFFDBDF90C0002F061FF4FF0605102F0B1FF0146284602F0ADFFC4F88000BDF90E0002F053FF4FF0605102F0A3FF014608
:40150000284602F09FFFC4F8840008B0BDE8F081000080BF0080FFFF10B500F188030A4600F18001FFF782FE10BD00BF70B584B00546D0F8A0603146D0F8800003F036F891
:4015400004464FF07E5103F02FF968B94649204603F016F958B94FF08E41204602F072FF03F036F900B203E047F6FF7000E03F48ADF80C003146D5F8840003F017F8044669
:401580004FF07E5103F010F968B93749204603F0F7F858B94FF08E41204602F053FF03F017F900B203E047F6FF7000E02F48ADF80E006B46022203A905F1EC0001F0A8FC29
:4015C000009BDB0B019A43EA4243B3F5004F04DA13F5004F04DB1CB203E047F6FF7400E0224C2878FFF738F928B1D5F89010E86F02F028FF04E0D5F89410E86F02F022FF27
:40160000314602F0D3FF05464FF07E5103F0CCF868B91549284603F0B3F858B94FF08E41284602F00FFF03F0D3F800B203E047F6FF7000E00D48031BB3F5004F04DA13F518
:40164000004F04DB18B203E047F6FF7000E0074802F0A4FE4FF0605102F0F4FE0146304602F0F0FE04B070BD000080BF0080FFFF2DE9F04182B006460C461746D0F8A050E5
:401680002946206802F092FF80464FF07E5103F08BF868B94649404603F072F850B94FF08641404602F0CEFE03F092F840B203E07F2001E06FF07F008DF804002946606810
:4016C00002F074FF04464FF07E5103F06DF868B93749204603F054F850B94FF08641204602F0B0FE03F074F840B203E07F2001E06FF07F008DF805002946384602F056FF2A
:4017000004464FF07E5103F04FF868B92849204603F036F850B94FF08641204602F092FE03F056F844B203E07F2401E06FF07F046B46022201A906F1FE0001F015FD009878
:40174000C01103B27F2B04DC13F1800F03DB40B203E07F2001E06FF07F0096F9043104FB03F3DB111AB27F2A04DC12F1800F03DB5BB203E07F2301E06FF07F03C2187F2A74
:4017800004DC12F1800F03DB50B203E07F2001E06FF07F0002F002FE4FF0705102F052FE0146284602F04EFE02B0BDE8F08100BF000080BF70B586B004460E46D0F8A050F8
:4017C00000F18801FFF754FF0146304602F030FD294602F0EBFE06464FF07E5102F0E4FF68B93E49304602F0CBFF50B94FF08641304602F027FE02F0EBFF41B203E07F2109
:4018000001E06FF07F010223009305AB002204F5817001F00FFD2946D4F8880002F0C6FE06464FF07E5102F0BFFF68B92B49304602F0A6FF50B94FF08641304602F002FEDB
:4018400002F0C6FF40B203E07F2001E06FF07F008DF810002946D4F88C0002F0A7FE06464FF07E5102F0A0FF68B91C49304602F087FF50B94FF08641304602F0E3FD02F0E3
:40188000A7FF40B203E07F2001E06FF07F008DF81100022303AA05A904A801F019FD9DF90C0002F07BFD4FF0705102F0CBFD0146284602F0C7FDC4F880009DF90D0002F084
:4018C0006DFD4FF0705102F0BDFD0146284602F0B9FDC4F8840006B070BD00BF000080BF2DE9F04387B006460F4690461D46D0F8A0402146386802F059FE81464FF07E512D
:4019000002F052FF68B95A49484602F039FF50B94FF08641484602F095FD02F059FF40B203E07F2001E06FF07F008DF814002146786802F03BFE07464FF07E5102F034FFBF
:4019400068B94B49384602F01BFF50B94FF08641384602F077FD02F03BFF40B203E07F2001E06FF07F008DF815002146404602F01DFE07464FF07E5102F016FF68B93C493A
:40198000384602F0FDFE50B94FF08641384602F059FD02F01DFF41B203E07F2101E06FF07F010227009704AB002206F1FC0001F041FC03AB3A4605A906F1F80001F0D4FB66
:4019C000039BDB111AB27F2A04DC12F1800F03DB5BB203E07F2301E06FF07F039DF910001A187F2A04DC12F1800F03DB50B203E07F2001E06FF07F0002F0D0FC4FF0705172
:401A000002F020FD0146204602F01CFD286003AB022205A906F1FA0001F0A6FB039BDB111AB27F2A04DC12F1800F03DB5BB203E07F2301E06FF07F039DF911001A187F2A2F
:401A400004DC12F1800F03DB50B203E07F2001E06FF07F0002F0A2FC4FF0705102F0F2FC0146204602F0EEFC686007B0BDE8F083000080BF2DE9F04188B0044688461F4608
:401A8000D0F8A05000F180063146FFF7F1FD0146404602F0CDFB294602F088FD80464FF07E5102F081FE70B94149404602F068FE60B94FF08641404602F0C4FC02F088FE8A
:401AC0004FFA80F804E04FF07F0801E06FF07F0806AB3A4631462046FFF702FF0223009305AB0022414604F5817001F0A3FB2946069802F05BFD06464FF07E5102F054FE30
:401B000068B92B49304602F03BFE50B94FF08641304602F097FC02F05BFE40B203E07F2001E06FF07F008DF810002946079802F03DFD06464FF07E5102F036FE68B91C4912
:401B4000304602F01DFE50B94FF08641304602F079FC02F03DFE40B203E07F2001E06FF07F008DF81100022303AA05A904A801F0AFFB9DF90C0002F011FC4FF0705102F0A6
:401B800061FC0146284602F05DFCC4F880009DF90D0002F003FC4FF0705102F053FC0146284602F04FFCC4F8840008B0BDE8F081000080BF10B500F188030A4600F1800175
:401BC000FFF78EFE10BD00BF70B582B00446D0F8A0603146D0F8800002F0E8FC05464FF07E5102F0E1FD68B94449284602F0C8FD50B94FF08641284602F024FC02F0E8FD77
:401C000040B203E07F2001E06FF07F008DF804003146D4F8840002F0C9FC05464FF07E5102F0C2FD68B93549284602F0A9FD50B94FF08641284602F005FC02F0C9FD40B2A1
:401C400003E07F2001E06FF07F008DF805006B46022201A904F5807001F086FA009DED112BB27F2B04DC13F1800F03DB6DB203E07F2501E06FF07F052078FEF7EDFD28B193
:401C8000D4F89010E06F02F0DDFB04E0D4F89410E06F02F0D7FB314602F088FC04464FF07E5102F081FD68B91449204602F068FD50B94FF08641204602F0C4FB02F088FDAB
:401CC00040B203E07F2001E06FF07F00431B7F2B04DC13F1800F03DB58B203E07F2001E06FF07F0002F05AFB4FF0705102F0AAFB0146304602F0A6FB02B070BD000080BFC1
:401D000030B583B00446154602AB002243F8042D0222603000F0C4FD2946A06E02F092FB019902F087FA03B030BD00BF70B582B004460E4600F188052946FFF7E1FF0146DF
:401D4000304602F075FA02236A46014604F16C0000F0F6FD022304F180026946284600F057FD02B070BD00BF08B50A4B1B78042B06D0052B07D0032B08D1FEF779FE08BDA8
:401D8000FFF7BCF908BDFFF715FD08BDFFF7CEFF08BD00BF5C82FF1FF8B505460F4616461C460222483000F07BFD3146A86D02F049FB0146206802F03DFA234643F8040B27
:401DC0000222394605F1500000F06AFDE96D304602F038FB0146606802F02CFA6060F8BDF0B585B005460E461F4600F180042146FFF786FF0146304602F01AFA064602AB25
:401E00003A4621462846FFF7C7FF02236A46314605F16C0000F094FD02232246694602A800F0F6FC05B0F0BD10B50A4C2478042C06D0052C07D0032C08D1FEF775FF10BD35
:401E4000FFF7C8FA10BDFFF715FE10BDFFF7C8FF10BD00BF5C82FF1F10B500F188030A4600F18001FFF798FF10BD00BF08B50A4B1B78042B06D0052B07D0032B08D1FEF7F9
:401E8000EFFF08BDFFF748FB08BDFFF793FE08BDFFF7E2FF08BD00BF5C82FF1F10B582B0044602AB002243F8042D022200F18001743000F0F5FC2078FEF7CEFC28B1D4F83B
:401EC0009010E06F02F0BEFA04E0D4F89410E06F02F0B8FA019902F0ABF902B010BD00BF08B50A4B1B78042B06D0052B07D0032B08D1FEF7BFFF08BDFFF718FB08BDFFF7A0
:401F000063FE08BDFFF7CAFF08BD00BF5C82FF1F2DE9F84304460E46D0F898700078052800F28D80DFE800F0030C490C4988D4F8940002F07DF901462046FEF795FC7FE093
:401F4000FEF78AFC58B13146D4F8940002F070F90146D4F8900002F06DF9C4F890002046FFF7BEFF0546384B5A681968FEF758FC80462078FEF770FCA0B1D4F87C900021E8
:401F8000484602F0F3FB68B92946404602F050F9494602F00BFB0146D4F8900002F04AF9C4F8900043463A4631462046FFF73CFFC4F898802846BDE8F8833A462046FFF762
:401FC000D3FE2078FEF748FC58B13146D4F8940002F02EF90146D4F8900002F02BF9C4F890002046FFF77CFF0546174B5A681968FEF716FC06462078FEF72EFC98B1E76FD1
:402000000021384602F0B2FB68B92946304602F00FF9394602F0CAFA0146D4F8900002F009F9C4F8900031462046FFF71FFFC4F898602846BDE8F883D4F8940000E00020B7
:40204000C4F89800BDE8F883CC80FF1F10B54FF404720021114803F05CF8002312E010485A01D418E100014406240C710124A1F8A0401A44D10001444FF07E52C1F8A42024
:402080002344DBB2012BEAD9054B002283F814221A7083F8152283F8162210BD6082FF1F5C82FF1F012808D8062900D9062100EB4010C300014A1344197170475C82FF1F4D
:4020C000012800F28C82002900F089820F2A40F286822DE9F04F83B017460D46044606464FF07C51A86B02F0A5F802F097FB014600B9012104EB4412D300BE4A1344A3F8EC
:40210000A010D5F83C804FF07C51404602F056FBD8B1B949404602F03DFBB0B141464FF07E5002F043FAB54B98604146B44802F03DFA02F073FB012800D802200138AF4BD8
:40214000D8600122AB4B83F81622102F0DD92F6C0021384602F032FB38B104EB4412D300A44A1344C3F8A47008E004EB4412D300A04A13444FF07E52C3F8A42004EB4412B4
:40218000D3009C4A13441879A0B16BE055F82170984A7001304443000B4402EB83008760881D55F82000063302EB830398600131C9B200E000210529E8D904EB4412D300E9
:4021C0008C4A13441F6A0021384602F0CFFA00283BD14FF07E51384602F0C8FA88B134E0730133445D004544824B03EB85053946A86802F0DBF9A86008F101085FFA88F8C0
:4022000001E04FF00008B8F1050FE9D94FF0010810E072013244530043440633754D05EB83053946A86802F0C1F9A86008F101085FFA88F8B8F1050FEBD904EB4412D300D2
:402240006C4A13444FF07E521A6204EB4414E30030336C4A134400225A609A60DA601A615A61B9E1FEF7F0FA002800F0B5812A6860494FEA441A0AEB0403DE000E44F264CB
:402280006B683365AB687365EB68B3652B69F3656B693366AB697366EB69B3662B6AF3666B6A3367AB6A7367EB6AB3672B6BF3676B6BC6F8803001F104090AEB0402D300EE
:4022C000803309EB0301002249F803204A600AEB0401CB00883309EB030149F803204A600023C6F894300AEB04034FEAC308434608F14808C844A03309EB030104221144B4
:40230000404600F097FD0AEB0403DF003B4658374F44B03309EB030102220431384600F089FD0AEB0403DD002B4660354D44B83309EB030102220431284600F07BFD0AEB76
:402340000402D30070334B440433184600930AEB0402D300C03309EB03010222043100F069FD0AEB0402D3001A4668334B440433184601931346C83309EB0301022204319C
:4023800000F058FDF66E4FF07E51304602F00CFA60B91D49304602F0F3F950B94FF09E41304602F04FF802F013FA04E06FF0004001E04FF0004062012244D3000D4A134423
:4023C000C3F8D800D3F880604FF07E51304602F0EBF960B90C49304602F0D2F9B0B94FF09E41304602F02EF802F0F2F910E06FF000400DE05C82FF1F00401C46CC80FF1F2E
:40240000001BB74B6082FF1F000080BF4FF00040734B660132194FEAC20B9B44CBF8DC0003F104093219D300D83309EB030104221144404600F048FE3219D300E03309EB4F
:40244000030102220431384600F03EFE33194FEAC30A0AF1E80ACA4402225146284600F033FE02220AF10401009800F02DFE2644F100F03102224944019800F025FEDBF83B
:402480006C604FF07E51304602F08EF968B95549304602F075F958B94FF08E41304601F0D1FF02F095F900B203E047F6FF7000E04D4862012244D300494A1344A3F8F80019
:4024C000D3F880604FF07E51304602F06DF968B94449304602F054F958B94FF08E41304601F0B0FF02F074F900B203E047F6FF7000E03D483A4B4FEA441909EB04024FEA6A
:40250000C20A52469A44AAF8FA0003F1040B1646F8365E4404223146404600F023FF0222311D384600F01EFF0222B11D284600F019FFA1444FEAC90303F580739B4402221C
:402540005946009800F00EFF02220BEB0201019800F008FFDAF86C504FF07E51284602F023F968B91F49284602F00AF950B94FF08641284601F066FF02F02AF940B203E0B9
:402580007F2001E06FF07F0062012244D300144A134483F80801D3F880504FF07E51284602F002F968B90F49284602F0E9F850B94FF08641284601F045FF02F009F940B292
:4025C00003E07F2001E06FF07F0004EB4414E300034A134483F8090103B0BDE8F08F70475C82FF1F000080BF0080FFFF052800D90020014B187070475C82FF1FF0B400238C
:4026000027E01C4E351D5901CA18D40030342C4400226260A260E26022616261CF18FC0080342F192A517A60CF18FC0088342F192A517A60CD18EC0034440025C4F8945007
:40264000C4F89C501944CC002644A6F8A2200133DBB2012BD5D9074BC3F898000022C3F8A021002283F81522012283F81422F0BC704700BF5C82FF1F08B50022024B83F874
:402680001422FDF73BFE08BD5C82FF1F014BC3F8980070475C82FF1F38B505460C460D4902F06EF800B10B4D0B4B1D600B49204602F084F808B1094900E02146064B59600C
:4026C000284602F07BF820B1034B024A1A60034A5A6038BD00009EC4CC80FF1F00009E4470B582B0454B93F8143213B9FDF706FE81E00DF1020101A8FDF736FEBDF9020011
:4027000001F04CFE3E4901F09DFE3E4B996801F04DFF0446019801F041FE3B4901F092FE0546364BD3F8A40193F80C31062B18D0324AB2F8AA3101339BB2A2F8AA31B2F8AE
:40274000A82193420DD32D4E0023A6F8AA31294606F58670FFF7DCFB3379062B01D0C6F89800264B1B79062B0FD021462748FFF7CFFB0646234B5A681968FEF751F802F0BB
:4027800027F800B2FDF78AFD13E01C4B93F80C31062B0BD01B4B5A681968FEF741F8064602F016F800B2FDF779FD02E0FDF7A6FD002601F031FD114BC3F81862C3F81C42F8
:4027C000D3F89820C3F82022C3F82452D3F88420C3F82822D3F88820C3F82C22D3F88C21C3F83022D3F89021C3F83422012283F8152201F015FD02B070BD00BF5C82FF1FB4
:40280000FBF7C53BCC80FF1FBEB5243A6082FF1F2DE9F04F85B004460D46164603939F0823E0D4F804A0D5F804B0D4F80880D5F80890E3680193EA6802922968206801F02F
:40284000F9FC30605946504601F0F4FC70604946404601F0EFFCB0600299019801F0EAFCF060103410351036013F002FD9D1039B03F003070EE006F1040A04F1040805F124
:4028800004092968206801F0D5FC3060013F56464D464446002FEED105B0BDE8F08F00BF2DE9F84F04460D4690469946970800262AE02968206801F0C5FD0146304601F029
:4028C000B9FC06466968606801F0BCFD0146304601F0B0FC0646A968A06801F0B3FD0146304601F0A7FC064604F1100A05F1100BE968E06801F0A6FD0146304601F09AFC06
:402900000646013F5D465446002FD2D108F003070FE004F1040805F1040A2968206801F091FD0146304601F085FC0646013F55464446002FEDD1C9F80060BDE8F88F00BF95
:402940002DE9F04F83B004460E46154601939F0822E0D4F804903146206801F073FD8246D4F808803146484601F06CFD8146D4F80CB04146304601F065FD804659463046E4
:4029800001F060FDC5F800A0C5F80490C5F80880E86010341035013F002FDAD1019B03F003070BE005F1040904F104082168304601F048FD2860013F4D464446002FF1D158
:4029C00003B0BDE8F08F00BF2DE9F04F8FB082468B460A920B934FEA920E4FF000084FF00009CDE90889CDF81CE07AE0DAF80010DAF80420DAF808C0DBF80000DBF80430C4
:402A0000DBF808E0CD174FEAE0792C4600FB04F401FB0944A0FB01012144860B46EA81468F13DDE9088918EB060849EB0709D5171846D917CDE9080103FB05F0099902FB54
:402A40000101A3FB02230B44910B41EA834100919B130193DDE9003413EB080344EB09049846A1466046C1177246D3170EFB01F10CFB0311AEFB0C230B44910B41EA8341F8
:402A800002919B130393DDE9023413EB080344EB09049846A146DAF80C30D917DBF80C30DD17DBF80C4004FB01F1DAF80C0000FB0511A4FB00230B44910B41EA8341049108
:402AC0009B130593DDE9043413EB080344EB0904CDE90834079B013B07930BF1100B0AF1100A079B002B81D1DDE908890A9B03F003021BE0DAF800E07046C117DBF800C0D6
:402B00006646F7170CFB01F30EFB0733ACFB0E011944840B44EA81448D1318EB040849EB0509013A0BF1040B0AF1040A002AE1D10B9BC3E900890FB0BDE8F08F2DE9F04FD9
:402B400087B0013252B222F07F0464B225460594109CA408002D60D0ABE00668D0F804C04FEAE67B4FEAE17906FB09F501FB0B55A6FB01673D446646F71701FB07FE0CFB2A
:402B800009EEA1FB0C67BE4487684FEAE77B01FB0BFC866806FB09CCA1FB0667BC44C7684FEAE77B01FB0BF6C76807FB09683E46A1FB066708EB070605FA02F80EFA02F7C3
:402BC00048FA02F94D4503D06FF0004888EAE57847FA02F5AE4503D06FF0004787EAEE770CFA02FE06FA02F5C3F800805F604EFA02F7BC4503D06FF0004E8EEAEC7E45FA69
:402C000002F7BE4203D06FF0004585EAE675C3F808E0DD6010301033013C002C9DD14AE0D0F800804568D0F808E0D0F80CC04646F717CDE902670E46CF17CDE9006708FBAA
:402C400007FA039E01FB06AAA8FB0189CA444FEAE57901FB09F8019E05FB0688A1FB056708EB07057646F71701FB07F8019E0EFB0688A1FB0E6708EB070E6646F71701FB39
:402C800007F7019E0CFB0678A1FB0C67474456424AFA06FA45FA06FC4EFA06F547FA06F6C3F800A0C3F804C09D60DE6010301033013C002CB4D1109C04F00305059CE4B157
:402CC00030E000F1040E06684FEAE67901FB09F04FEAE17906FB0900A1FB0667384400FA02F444FA02F6B04203D06FF0004484EAE0741C60013D04337046002DE1D113E0DB
:402D000006684FEAE67901FB09F44FEAE17906FB0944A1FB06673C44564234411C60013D04330430002DEBD107B0BDE8F08F00BF2DE9F04F83B00E46924601934FEA930B56
:402D40005A4652E0D0F80080D0F804E0D6F800C07768856800F1100BC468B36806F11009F6686046C11710EB080041EBE871C444B1EBEC7F03D06FF0004C8CEAE17CCAF84A
:402D800000C03846F91710EB0E0041EBEE717744B1EBE77F03D06FF0004787EAE177CAF804701846D917401941EBE5712B44B1EBE37F03D06FF0004383EAE173CAF8083036
:402DC0000AF110033046F117001941EBE4713444B1EBE47F03D06FF0004484EAE174CAF80C40013A9A464E465846002AAAD1019B03F0030319E00AF10407051D046806F1E4
:402E0000040E32681046D117001941EBE4712244B1EBE27F03D06FF0004282EAE172CAF80020013BBA4676462846002BE3D103B0BDE8F08F2DE9F84304460D461646970891
:402E400046E04FF09E41206801F0FCFA01F006FD0346B1EBE07F03D06FF0004383EAE1732B604FF09E41606801F0ECFA01F0F6FC0346B1EBE07F03D06FF0004383EAE1738C
:402E80006B604FF09E41A06801F0DCFA01F0E6FC0346B1EBE07F03D06FF0004383EAE173AB6005F1100804F110094FF09E41E06801F0C8FA01F0D2FC0346B1EBE07F03D0F7
:402EC0006FF0004383EAE173EB60013F4C464546002FB6D106F0030615E02F1D04F104084FF09E41206801F0ADFA01F0B7FC0346B1EBE07F03D06FF0004383EAE1732B60E9
:402F0000013E44463D46002EE7D1BDE8F88300BF2DE9F0479C4693080026002724E0054655F808AB8E465EF8084B0FFA8AF80FFA84F94FEA2A4A241404FB0AF409FB08445A
:402F4000361947EBE4774068496804B20FFA81F80014091401FB00F108FB0411761847EBE177013B71462846002BD8D102F0030210E0B0F90030B1F900504FEA234E2C14BD
:402F800004FB0EF405FB0343F61847EBE377013A02310230002AECD1CCE90067BDE8F087F0B5059EC2F10F0252B2B7082CE0054655F8084B40684FEA244C01FB0CFC24B280
:402FC00004FB01F44FEA204E0EFB01FE00B200FB01F04CFA02FC14414EFA02FE10410CF30F0C04F30F040EF30F0E00F30F00A4B244EA0C449C464CF8084B80B240EA0E4023
:403000005860013F63462846002FD0D106F003060AE0B0F9004001FB04F4144104F30F041C80013E02330230002EF2D1F0BD00BF2DE9F0434FEA930E2FE0064656F8089B7E
:40304000D0F804C00F4657F8088B4D680FFA89F00FFA88F1084400F30F0084B24FEA284808EB294000F30F0044EA0040144644F8080B0FFA8CF128B2014401F30F0188B24F
:40308000291401EB2C4101F30F0140EA014151600EF1FF3E224639463046BEF1000FCCD103F003030BE0B0F90050B1F900402C4404F30F041480013B023202310230002B90
:4030C000F1D1BDE8F08300BF2DE9F84304460D46164697082EE04FF08E41206801F0B2F901F076FB00F30F0028804FF08E41606801F0A8F901F06CFB00F30F0068804FF019
:403100008E41A06801F09EF901F062FB00F30F00A88005F1080804F110094FF08E41E06801F090F901F054FB00F30F00E880013F4C464546002FCED106F003060FE0AF1C46
:4031400004F104084FF08E41206801F07BF901F03FFB00F30F002880013E44463D46002EEDD1BDE8F88300BF2DE9F0439C4693084FF0000E45E004680D684FEA34277EB28A
:403180001FFA86F847F31706360C360448EA060667B21FFA87F844F317073F0C3F0447EA08074FEA35244FFA84F81FFA88F944F317044FEA14484FEA084849EA08086CB2D1
:4031C0001FFA84F945F317052C0C240449EA040435B20FFA88F936144FEA284808FB06F809FB0588F0443DB20FFA84FE3F14241404FB07F40EFB054404EB080E013B043159
:403200000430002BB7D102F003020DE090F9003091F900501E142C1404FB06F405FB03439E44013A01310130002AEFD1CCF800E0BDE8F0832DE9F041DDF818E0C2F1070289
:4032400052B24FEA9E072EE090F9008090F9016090F9025090F903C001FB08F848FA02F808F3070801FB06F6164106F3070676B201FB05F5154105F307056DB201FB0CFC12
:403280004CFA02FC0CF3070C5FFA88F43602B6B234432D0405F47F052C4344EA0C641C60013F04330430002FCED10EF003070AE090F9004001FB04F4144104F307041C708A
:4032C000013F01330130002FF2D1BDE8F08100BF2DE9F0414FEA930C2DE005680F684FFA85FE7CB2A6440EF3070E5FFA8EFE45F3072647F30724344404F3070445F30748A8
:4033000047F30746464406F307063F1607EB256505F30705360406F47F0646EA0565240204F47F4425434EEA050515600CF1FF3C043204310430BCF1000FCED103F0030323
:403340000BE090F9005091F900402C4404F307041470013B013201310130002BF1D1BDE8F08100BF2DE9F84304460D46164697082EE04FF08641206801F064F801F028FA50
:4033800000F3070028704FF08641606801F05AF801F01EFA00F3070068704FF08641A06801F050F801F014FA00F30700A87005F1040804F110094FF08641E06801F042F8AE
:4033C00001F006FA00F30700E870013F4C464546002FCED106F003060FE06F1C04F104084FF08641206801F02DF801F0F1F900F307002870013E44463D46002EEDD1BDE8F7
:40340000F88300BFFEE700BFF0B40022174611E050F82760F3B226F0FF0608E001EB420511F812406D78A5550132013BDBB2002BF4D10137242FEBD9F0BC7047064B1B7834
:40344000DBB203F00701054A11701B09013213704422034B1A707047CF0100496E5800407658004008B50A46002101F052FE08BD38B50223264A13801C2102321170172185
:403480000232118018210232117002F27A22137008224FF040231A70032103F5007319701C4B1B78DBB21C490B701C4B1A8041F25122023B1A80002419250CE0184B1B78AF
:4034C00003F0010343EA440404F003044FF4F07000F09AFE013D0DB1032CEFD115B90320FFF790FF0F4B4FF480721A8007221A7000220D490A704820023108701A7002224A
:40350000033B1A70094A137843F00303137038BD8040004008010049A146004022420040254200400440004006400040A243004008B501F0E3FD08BD38B572B62F4A1378D5
:4035400043F00403137000240CE02D4D630019194A0011462A44084691882858FFF782FF0134E4B2072CF0D926494FF09040FFF74BFF254B254A136002F56062136002F508
:403580006C522B32137843F0020313701032137843F0020313701E4C237843F040032370A2F58632513A137843F0100313700A2218491948FFF7BCFF082218491848FFF766
:4035C000B7FF082217491848FFF7B2FF174A137843F008031370164D61232B70FFF748FF81232B700122134B1A70FFF727FF0E2221461148FFF79CFF38BD00BFE84600400F
:40360000285100009400004804040484D8060140A0430040F00C0048C0510040FC0C004812510040040D004822510040224300400048004004000840B043004008B501F075
:4036400031FD03680C2B00D1FEE7FEE708B5104E104D16E029686B68AC68002204E051F8040B43F8040B0432A242F8D1E868002203E0002143F8041B04328242F9D1103595
:40368000013E002EE6D101F013FDFCF7FBFCFEE7010000008051000008B5104A104B1A60104A136843F40073136000230AE0032B03D80D4A52F8231000E00C490C4A42F8B7
:4036C000231001332F2BF2D90A4B1A780A4B1A70074A0A4B1A60FFF72FFF08BD0004FA050CED00E014ED00E0000000003D3600000080FF1FBC760040C080FF1F08ED00E0FC
:40370000024A137843F08003137070477A640040024A137803F07F03137070477A640040014B1870704700BF8C640040014B1B78704700BF0A640040014B1878704700BF31
:403740006C640040014B1860704700BF2A640040014B1868704700BF4A640040014B1860704700BF0A640040400100F06000044B1A7802F09F021A701A7810431870704766
:403780007A64004008B501E0FFF7E2FFFFF7D4FF10F0080FF8D108BD10B50C4C2046FFF7D1FF2046FFF7DAFF8020FFF7DDFF00F033FD074A137843F01003137000F030FD36
:4037C000FFF7E0FF0120FFF7ABFF10BDBFD401009C64004008B5054B1B7823B9FFF7DCFF0122024B1A70FFF78BFF08BD9484FF1F08B50122054B1A600549002000F040FA8E
:403800000721002000F050FA08BD00BF80E100E0C538000010B50124064B1C6000F03EF9A0F5004000B2044B1B68044A1460184410BD00BF80E100E09884FF1F00E100E027
:40384000024B187800F00F00704700BF6665004040F00700014B1870704700BF8665004008B50F20FFF7F4FFFFF7EAFF00F0D4FC054A137843F01003137000F0D1FC012248
:40388000024B1A6008BD00BF9665004000E100E008B500F055F94FF4004000F0F9F80022064B1A60064B1B7823B9FFF7A1FF0122034B1A70FFF7D4FF08BD00BF9884FF1F9D
:4038C0009584FF1F0D4B1B78DBB213F0010F06D00B490A6802F5FF427F320A6007E013F0020F04D006490A68A2F500420A6013F0040F02D00022024B1A60704766650040B1
:403900009884FF1F014B1B681865704708ED00E04001C0B2014B1870704700BF04E400E01022014B1A60704700E100E01022014B1A60704780E100E010B50446FFF7F6FF56
:403940002046FFF7DFFF0720FFF7E2FFFFF7E8FF10BD00BF08B50222054B1A600549012000F08EF90721012000F09EF908BD00BF80E100E0293A000010B50224064B1C6065
:4039800000F006F9A0F5004000B2044B1B68044A1460184410BD00BF80E100E0A084FF1F00E100E0024B187800F00F00704700BF6464004040F00700014B1870704700BFF6
:4039C0008464004008B50F20FFF7F4FFFFF7EAFF00F022FC054A137843F01003137000F01FFC0222024B1A6008BD00BF9464004000E100E008B500F01DF94FF4004000F091
:403A0000C1F80022064B1A60064B1B7823B9FFF7A1FF0122034B1A70FFF7D4FF08BD00BFA084FF1F9C84FF1F0D4B1B78DBB213F0010F06D00B490A6802F5FF427F320A6048
:403A400007E013F0020F04D006490A68A2F500420A6013F0040F02D00022024B1A60704764640040A084FF1F024A137843F080031370704774650040014B1870704700BF77
:403A800085650040014B1878704700BF65650040014B1880704700BF086A0040024B1B78024B188880B2704704650040886A0040014B188880B27047886A0040014B1880F8
:403AC000704700BF486A0040014B1880704700BF686A004008B501E0FFF7EAFFFFF7D2FF10F0400FF8D108BD08B5134B1A7802F0F8021A701A7802F0FC021A70FFF7EAFFC3
:403B00004FF40040FFF7DAFF4FF40040FFF7C0FF0020FFF7B1FFFFF7B5FF4FF40040FFF7D3FF00F079FB054A137843F01003137000F076FB08BD00BF746500409565004001
:403B400008B5054B1B7823B9FFF7CEFF0122024B1A70FFF789FF08BDA484FF1F024A137843F080031370704777650040014B1870704700BF87640040014B1878704700BFD9
:403B800067640040014B1880704700BF0C680040024B1B78024B188880B27047066400408C680040014B188880B270478C680040014B1880704700BF4C680040014B18801D
:403BC000704700BF6C68004008B501E0FFF7EAFFFFF7D2FF10F0400FF8D108BD08B5134B1A7802F0F8021A701A7802F0FC021A70FFF7EAFF4FF40040FFF7DAFF4FF4004037
:403C0000FFF7C0FF0020FFF7B1FFFFF7B5FF4FF40040FFF7D3FF00F0FFFA054A137843F01003137000F0FCFA08BD00BF776500409764004008B5054B1B7823B9FFF7CEFF88
:403C40000122024B1A70FFF789FF08BDA584FF1F01BE704710B5044605E0084B186800F0D3FAA4F50044B4F5004FF6D8034B586800FB04F000F0C8FA10BD00BFDC80FF1F6E
:403C800070B504460E46074B1D681F2802D90020FFF7DEFF04F01F04103455F8240045F8246070BD08ED00E038B504460D46072902D90020FFF7CCFF1F2C02D90020FFF714
:403CC000C7FF04F01F0000F1604000F564406D01EDB2057038BD00BF024A137843F08003137070477D640040014B1880704700BF1C680040014B1880704700BF9C680040E7
:403D0000014B1880704700BF5C680040014B1870704700BF8F640040014B1878704700BF6F640040014B188880B27047BC68004008B501E0FFF7F6FFFFF7EEFF10F0100F7F
:403D4000F8D108BD10B5154A137803F0C00343F0090313702132137843F001031370104C237843F0010323704FF49E60FFF7BCFF4FF49E60FFF7BEFF0020FFF7C1FF002059
:403D8000FFF7C4FF00F048FA237843F01003237000F046FAFFF7CCFF10BD00BF7D6400409F64004008B5054B1B7823B9FFF7CAFF0122024B1A70FFF78FFF08BDA684FF1FFD
:403DC000044A137803F0BF03800100F0400018431070704720510040044A137803F0DF03400100F020001843107070472051004008B511490220FFF743FF07210220FFF74E
:403E000053FF00220D4B1A7072220D4B1A70202201331A700B490320FFF732FF07210320FFF742FF0622084B1A70472210331A700222AD3B1A7008BD8D400000A884FF1FE9
:403E400089650040294100002865004010B500F0E3F904460D4A137843F0200313700132137843F010031370094A0423136009490B7843F010030B70082307490B601360E4
:403E800000F080F9204600F0CBF910BD9965004000E100E09B64004080E200E008B5054B5B7823B9FFF7A4FF0122024B5A70FFF7CDFF08BDA884FF1F0422134B1A60134A77
:403EC00053889BB2918889B2927912F0FF0F01D18B4212D00E4AD05CC0B201339BB2B3F5FA7F00D30023094A5380937913F0FF0F06D00022054B9A7102E0064B1878C0B251
:403F00000422054B1A60704780E100E0A884FF1FAC86FF1F4A65004000E100E00422174B1A60174B5A8892B29B889BB29A4207D1134B9B7913F0FF0F1BD04FF4FA7019E08D
:403F40000F4B5A8892B29B889BB29A4207D20C4A908883B2508880B2181A80B20AE0084A908883B2508880B2181A00F5FA7080B200E000200422034B1A60704780E100E04F
:403F8000A884FF1F00E100E0114B5B78FBB10822104B1A600E4A13899BB25289934207D10D4B1B7813F0040F02D10C4B18700BE0B2F5FA7F02D30022054B5A81044A538949
:403FC0000749C854013353810822064B1A607047A884FF1F80E100E06B64004048640040B884FF1F00E100E010B4194B59891B899BB2994205D25A1E914214BF00220122F0
:4040000006E0CA1A40F2F314A24214BF00220122002AEAD1994207D10E4B1B7813F0040F02D10D4B187010E0B1F5FA7F00D300210A4B58540131064B5981064B1B7813F0EC
:40404000020F02D00822064B1A6010BC704700BFA884FF1F6B64004048640040B884FF1F00E200E0084B5B7833B97047305DFFF7BBFF0134A4B203E070B50D460646002469
:40408000AC42F3D370BD00BFA884FF1F1E4B1B78DBB213F01E0F05D01C4803F01E0201780A43027003F0200303F0FF02002B28D0174B1978C9B2174B1B889BB21648C15479
:4040C000164B1B7813F0FF0F02D00121144B197010490B889BB201339BB20B800B889BB2B3F5FA7F02D300210A4B1980094B198889B20C4B1B889BB2994202D10121074B1C
:404100001970002AC2D170476A650040A884FF1F4A650040AC84FF1FAC86FF1FAE84FF1FAF84FF1FAA84FF1F15E0114B1B889BB2B3F5FA7F02D300220D4B1A800C4A138873
:404140009BB20C49CB5CDBB20B490B7013889BB201339BB21380064B1B889BB2074A1288934204D0064B1B7813F0040FDDD07047B084FF1FB884FF1F48640040B284FF1FFF
:404180006B640040054A137843F0010313701032137843F001031370704700BFA2430040014B1B685865704708ED00E04001C0B2014B1870704700BF05E400E02022014BCE
:4041C0001A60704700E100E02022014B1A60704780E100E010B50446FFF7F6FF2046FFF7DFFF0720FFF7E2FFFFF7E8FF10BD00BF044A137803F0FE0300F001001843107099
:40420000704700BF205100400230800803D000BF01380046FCD17047EFF3108072B6704780F31088704700BF80F0004002E000BF81F0004142001FBF5FEA410392EA030FF8
:404240007FEA226C7FEA236C6AD04FEA1262D2EB1363C1BFD218414048404140B8BF5B42192B88BF704710F0004F40F4000020F07F4018BF404211F0004F41F4000121F0A9
:404280007F4118BF494292EA030F3FD0A2F1010241FA03FC10EB0C00C3F1200301FA03F100F0004302D5494260EB4000B0F5000F13D3B0F1807F06D340084FEA310102F1C9
:4042C0000102FE2A51D2B1F1004F40EBC25008BF20F0010040EA03007047490040EB000010F4000FA2F10102EDD1B0FA80FCACF1080CB2EB0C0200FA0CF0AABF00EBC250CD
:4043000052421843BCBFD0401843704792F0000F81F4000106BF80F400000132013BB5E74FEA41037FEA226C18BF7FEA236C21D092EA030F04D092F0000F08BF08467047B3
:4043400090EA010F1CBF0020704712F07F4F04D1400028BF40F00040704712F100723CBF00F50000704700F0004343F0FE4040F4000070477FEA226216BF08467FEA236364
:404380000146420206BF5FEA412390EA010F40F4800070474FF0000304E000BF10F0004348BF40425FEA000C08BF704743F0964301464FF000001CE050EA010208BF70473E
:4043C0004FF000030AE000BF50EA010208BF704711F0004302D5404261EB41015FEA010C02BF84460146002043F0B64308BFA3F18053A3F50003BCFA8CF2083AA3EBC25396
:4044000010DB01FA02FC634400FA02FCC2F12002BCF1004F20FA02F243EB020008BF20F00100704702F1200201FA02FCC2F1200250EA4C0021FA02F243EB020008BF20EAE2
:40444000DC7070474FF0FF0C1CEAD0521EBF1CEAD15392EA0C0F93EA0C0F6FD01A4480EA010C400218BF5FEA41211ED04FF0006343EA501043EA5111A0FB01310CF0004004
:40448000B1F5000F3EBF490041EAD3715B0040EA010062F17F02FD2A1DD8B3F1004F40EBC25008BF20F00100704790F0000F0CF0004C08BF49024CEA502040EA51207F3A7A
:4044C000C2BFD2F1FF0340EAC250704740F400004FF00003013A5DDC12F1190FDCBF00F000407047C2F10002410021FA02F1C2F1200200FA02FC5FEA310040F1000053EA33
:404500004C0308BF20EADC70704792F0000F00F0004C02BF400010F4000F013AF9D040EA0C0093F0000F01F0004C02BF490011F4000F013BF9D041EA0C018FE70CEAD15383
:4045400092EA0C0F18BF93EA0C0F0AD030F0004C18BF31F0004CD8D180EA010000F00040704790F0000F17BF90F0004F084691F0000F91F0004F14D092EA0C0F01D142023D
:404580000FD193EA0C0F03D14B0218BF084608D180EA010000F0004040F0FE4040F40000704740F0FE4040F4400070474FF0FF0C1CEAD0521EBF1CEAD15392EA0C0F93EA4A
:4045C0000C0F69D0A2EB030280EA010C49024FEA402037D04FF0805343EA111143EA10130CF000408B4238BF5B0042F17D024FF4000C8B4224BF5B1A40EA0C00B3EB510F0D
:4046000024BFA3EB510340EA5C00B3EB910F24BFA3EB910340EA9C00B3EBD10F24BFA3EBD10340EADC001B0118BF5FEA1C1CE0D1FD2A3FF650AF8B4240EBC25008BF20F0FC
:40464000010070470CF0004C4CEA50207F32C2BFD2F1FF0340EAC250704740F400004FF00003013A37E792F0000F00F0004C02BF400010F4000F013AF9D040EA0C0093F03D
:40468000000F01F0004C02BF490011F4000F013BF9D041EA0C0195E70CEAD15392EA0C0F08D142027FF47DAF93EA0C0F7FF470AF084676E793EA0C0F04D14B023FF44CAFAD
:4046C00008466EE730F0004C18BF31F0004CCAD130F000427FF45CAF31F000437FF43CAF5FE700BF4FF0FF3C06E000BF4FF0010C02E000BF4FF0010C4DF804CD4FEA40023C
:404700004FEA41037FEA226C18BF7FEA236C11D001B052EA530C18BF90EA010F58BFB2EB030088BFC81738BF6FEAE17018BF40F0010070477FEA226C02D15FEA402C05D116
:404740007FEA236CE4D15FEA412CE1D05DF8040B704700BF844608466146FFE70FB5FFF7C9FF002848BF10F1000F0FBD4DF808EDFFF7F4FF0CBF012000205DF808FB00BFD3
:404780004DF808EDFFF7EAFF34BF012000205DF808FB00BF4DF808EDFFF7E0FF94BF012000205DF808FB00BF4DF808EDFFF7D2FF94BF012000205DF808FB00BF4DF808EDF5
:4047C000FFF7C8FF34BF012000205DF808FB00BF4FEA4002B2F1FE4F0FD34FF09E03B3EB12620DD94FEA002343F0004310F0004F23FA02F018BF404270474FF00000704756
:4048000012F1610F01D1420205D110F0004008BF6FF0004070474FF00000704742000ED2B2F1FE4F0BD34FF09E03B3EB126209D44FEA002343F0004323FA02F070474FF030
:404840000000704712F1610F01D1420202D14FF0FF3070474FF00000704700BF10B500210446FFF78DFF20B92046BDE8104000F009B804F1004000F005F8404261EB410182
:4048800010BD00BFD0B500F087F900220E4B06460F4600F0D5F900F0E5FB044600F05AF900220A4B00F0CCF902460B463046394600F012F800F0D6FB2346002242EA000212
:4048C00010461946D0BD00BF0000F03D0000F04181F0004102E000BF83F0004330B54FEA41044FEA430594EA050F08BF90EA020F1FBF54EA000C55EA020C7FEA645C7FEA81
:40490000655C00F0E2804FEA5454D4EB5555B8BF6D420CDD2C4480EA020281EA030382EA000083EA010180EA020281EA0303362D88BF30BD11F0004F4FEA01314FF4801CD1
:404940004CEA113102D0404261EB410113F0004F4FEA03334CEA133302D0524263EB430394EA050F00F0A780A4F10104D5F1200E0DDB02FA0EFC22FA05F2801841F10001A3
:4049800003FA0EF2801843FA05F359410EE0A5F120050EF1200E012A03FA0EFC28BF4CF0020C43FA05F3C01851EBE37101F0004507D54FF0000EDCF1000C7EEB00006EEBC3
:4049C0000101B1F5801F1BD3B1F5001F0CD349085FEA30004FEA3C0C04F101044FEA445212F5800F80F09A80BCF1004F08BF5FEA500C50F1000041EB045141EA050130BD62
:404A00005FEA4C0C404141EB010111F4801FA4F10104E9D191F0000F04BF01460020B1FA81F308BF2033A3F10B03B3F120020CDA0C3208DD02F1140CC2F10C0201FA0CF0FF
:404A400021FA02F10CE002F11402D8BFC2F1200C01FA02F120FA0CFCDCBF41EA0C019040E41AA2BF01EB0451294330BD6FEA04041F3C1CDA0C340EDC04F11404C4F1200251
:404A800020FA04F001FA02F340EA030021FA04F345EA030130BDC4F10C04C4F1200220FA02F001FA04F340EA0300294630BD21FA04F0294630BD94F0000F83F4801306BFA9
:404AC00081F480110134013D4EE77FEA645C18BF7FEA655C29D094EA050F08BF90EA020F05D054EA000C04BF1946104630BD91EA030F1EBF0021002030BD5FEA545C05D116
:404B00004000494128BF41F0004130BD14F580043CBF01F5801130BD01F0004545F0FE4141F470014FF0000030BD7FEA645C1ABF194610467FEA655C1CBF0B46024650EA5E
:404B4000013406BF52EA033591EA030F41F4002130BD00BF90F0000F04BF0021704730B54FF4806404F132044FF000054FF0000150E700BF90F0000F04BF0021704730B54E
:404B80004FF4806404F1320410F0004548BF40424FF000013EE700BF42004FEAE2014FEA31014FEA02701FBF12F07F4393F07F4F81F06051704792F0000F14BF93F07F4FBC
:404BC000704730B54FF4607401F0004521F0004120E700BF50EA010208BF704730B54FF000050AE050EA010208BF704730B511F0004502D5404261EB41014FF4806404F1FD
:404C000032045FEA915C3FF4DCAE4FF003025FEADC0C18BF03325FEADC0C18BF033202EBDC02C2F1200300FA03FC20FA02F001FA03FE40EA0E0021FA02F11444C1E600BFE7
:404C400070B54FF0FF0C4CF4E06C1CEA11541DBF1CEA135594EA0C0F95EA0C0F00F0DEF82C4481EA030621EA4C5123EA4C5350EA013518BF52EA033541F4801143F4801308
:404C800038D0A0FB02CE4FF00005E1FB02E506F00042E0FB03E54FF00006E1FB03569CF0000F18BF4EF0010EA4F1FF04B6F5007F64F5407404D25FEA4E0E6D4146EB060611
:404CC00042EAC62141EA55514FEAC52040EA5E504FEACE2EB4F1FD0C88BFBCF5E06F1ED8BEF1004F08BF5FEA500E50F1000041EB045170BD06F0004646EA010140EA0200C5
:404D000081EA0301B4EB5C04C2BFD4EB0C0541EA045170BD41F480114FF0000E013C00F3AB8014F1360FDEBF002001F0004170BDC4F10004203C35DA0C341BDC04F11404CB
:404D4000C4F1200500FA05F320FA04F001FA05F240EA020001F0004221F0004110EBD37021FA04F642EB06015EEA430E08BF20EAD37070BDC4F10C04C4F1200500FA04F3C5
:404D800020FA05F001FA04F240EA020001F0004110EBD37041F100015EEA430E08BF20EAD37070BDC4F1200500FA05F24EEA020E20FA04F301FA05F243EA020321FA04F0F3
:404DC00001F0004121FA04F220EA020000EBD3705EEA430E08BF20EAD37070BD94F0000F0FD101F00046400041EB010111F4801F08BF013CF7D041EA060195F0000F18BF38
:404E0000704703F00046520043EB030313F4801F08BF013DF7D043EA0603704794EA0C0F0CEA135518BF95EA0C0F0CD050EA410618BF52EA4306D1D181EA030101F0004139
:404E40004FF0000070BD50EA410606BF1046194652EA430619D094EA0C0F02D150EA013613D195EA0C0F05D152EA03361CBF104619460AD181EA030101F0004141F0FE413B
:404E800041F470014FF0000070BD41F0FE4141F4780170BD70B54FF0FF0C4CF4E06C1CEA11541DBF1CEA135594EA0C0F95EA0C0F00F0A7F8A4EB050481EA030E52EA03359B
:404EC0004FEA013100F088804FEA03334FF0805545EA131343EA12634FEA022245EA111545EA10654FEA00260EF000419D4208BF964244F1FD0404F5407402D25B084FEA10
:404F00003202B61A65EB03055B084FEA32024FF480104FF4002CB6EB020E75EB030E22BFB61A754640EA0C005B084FEA3202B6EB020E75EB030E22BFB61A754640EA5C005B
:404F40005B084FEA3202B6EB020E75EB030E22BFB61A754640EA9C005B084FEA3202B6EB020E75EB030E22BFB61A754640EADC0055EA060E18D04FEA051545EA16754FEA28
:404F800006164FEAC30343EA52734FEAC2025FEA1C1CC0D111F4801F0BD141EA00014FF000004FF0004CB6E711F4801F04BF01430020B4F1FD0C88BFBCF5E06F3FF6AFAE70
:404FC000B5EB030C04BFB6EB020C5FEA500C50F1000041EB045170BD0EF0004E4EEA113114EB5C04C2BFD4EB0C0541EA045170BD41F480114FF0000E013C90E645EA060ED0
:405000008DE60CEA135594EA0C0F08BF95EA0C0F3FF43BAF94EA0C0F0AD150EA01347FF434AF95EA0C0F7FF425AF104619462CE795EA0C0F06D152EA03353FF4FDAE10468D
:40504000194622E750EA410618BF52EA43067FF4C5AE50EA41047FF40DAF52EA43057FF4EBAE12E74A0011D212F5001211D20DD56FF47873B3EB62520ED44FEAC12343F0F1
:40508000004343EA505323FA02F070474FF00000704750EA013002D14FF0FF3070474FF000007047014B1868704700BF4C81FF1F0E4B70B51E460E4C0025E41AA410A542A1
:4050C00004D056F8253098470135F8E700F046F8084B094C1E46E41AA4100025A54204D056F8253098470135F8E770BD6851000068510000685100007051000010B5431EA3
:405100000A44914204D011F8014B03F8014FF8E710BD03460244934202D003F8011BFAE77047000000000000005100401000305100404000F05100401000000001400010C5
:4051400000140140000800400140000A004C0140000200500140200043000000F8B500BFF8BC08BC9E4670474D00000099360000F8B500BFF8BC08BC9E4670472900000081
:4051800090510000C880FF1F88000000500700000000000000009EC400009E440AD7A33BBFD401000000E02EC05D00001800000000366E010000000000000000000000004A
:4051C0000000000000000000000000000000000000000000585100000000000000000000000000000000000000000000000000000000000000000000000000000000000006
:405200000000000000000000000000000000000000000000EC80FF1F00000000000000000000000000000000000000000000000000000000000000000000000000000000E4
:40524000000000000000000000000000000000000000000000000000000000000000000000000000000000000000000000000000000000000000000000000000000000002E
:4052800000000000000000000000000000000000000000000000000000000000000000000000000000000000000000000000000000000000000000000000000000000000EE
:4052C00000000000000000000000000000000000000000000000000000000000000000000000000000000000000000000000000000000000000000000000000000000000AE
:40530000000000000000000000000000000000000000000000000000000000000000000000000000000000000000000000000000000000000000000000000000000000006D
:020000040003F7
:0200000480007A
:4000000003520040056400400465004004030140490401402E05014064060140410701404F0801403E0901405E0A0140470B0140550C0140390D0140630E0140330F0140A1
:400040006114014044150140461601403E1701404B18014044190140531A0140541B014006400140094101400A420140064301400445014003460140054701400348014007
:4000800003490140054C0140084D01400C50014002510140118061806440840F876F8B0F8C0D8F0D856F860F89728A38A001AC01EA01EE08021010041202140215031604F5
:4000C00018021A041D021F012002220C230428102B082E012F03300631013208330434013502361037083A023E403F11540F5604580459045B045C995D905F01822085062E
:400100008610880789108B088D088F1091059508960F9710980C99039A029C089E01A00BA204A506A80CAA01AB20AD08AF10B010B220B307B40FB518B720B908BB20D804D7
:40014000D904DC99DF0101020422050407040A540E280F02100212881520170119A01A541B011D141E081F2122982380242A25542610272029222B022F2532083340350445
:4001800037213DA03F085A205B8563408740A001C078C2EEC45BCA7DCCEACE70D60FD801E2080105020F030A0473050708CF0A30110F1494150A16601705189E19031A60F7
:4001C0001B0C1C301EC920FD2202250C270334FF370F3E104063410149FF4AFF4BFF4DA04F015018580459045A045C905D095F016040628064406540668068406A806C4025
:400200006D206E80840285018708890191049D019F06A001A401A602B001B102B301B402B508B704B802B908BE10BF44C023C101C543C6C2C70EC81FC9FFCAFFCBFFCDAFFE
:40024000CE07CF01D018D40FD804D904DA04DB04DC99DD99DF05E040E280E440E540E680E840EA80EC40ED20EE8000080514060807600D100E280F0A1080130417011A087C
:400280001B021E042008210A230227012E08308031023614370138203B043D0C3F024004410843404508474049024B044F205080521459805A085B12621479049028952078
:4002C00099909B209D029F41A001A104A210A301A706A802AF04C074C2E0C41CCA40CCE9CEC6D05ED220D60FD806DE0200020140021C061809240B400D500E06130C14028C
:40030000160C19411B301D311E101F442001281829702A062B092D02321E34013503377C39203A083E1040344101450E460B470C481549FF4AFF4BFF4EF04F44500C5804C3
:4003400059045A045F0166C06A406B02830184048507880F89028C038D068F01900294039506960C9701980199019B069C089D04A203A40CA603A80CA906AC0FB20FB70707
:40038000BA08BB80D804D904DF01002001400214031004080742082009800A500D080F0210141341151017011A301C081F082140228024082510270128042A202D102F0AD5
:4003C000318032143610374139803A143B413D203F82450947424F0456085740880491029448970499049B449D209E48A108A210A304A70BAC12B640C0B7C2AFC45FCA3462
:40040000CCBECEBFD0D0080A0A050C070D07110C13021403160C170F190B1B042005220A240F290C2B012C0C2D082E032F01310F320F404549FF4AFF4BFF4F0150185280CB
:40044000580459045A045B045C995D995F016040624064406540668068806A806C806E8083028608870688038A0492059403960C98109B059F03A40AA604A906AB01AC03C9
:40048000AE04AF01B107B20FB410BA08BB02BE10C045C9FFCAFFCBFFCD83CE03CF01D018D401D604D804D904DA04DB04DD09DF01E040E240E440E540E680E880EA80EC80FD
:4004C000EE8000400120041C0608088009800A100C110E200F0410201242162017401A201B041D081E2821012202274029202A402C012E202F0A3020310432123610374007
:4005000038403C043F024240450248024C025C925E086780710372408740921094409502968099049B049D219E489F40A002A180A502A610A70EAC40B510C063C274C4AD07
:40054000CA3CCC37CEC8D081D218D6F0D880E8020201030106040A021201140219061D061E042002260229042E022F023001340435063602370139203E413F10404549FF0F
:400580004AFF4BFF4D834E034F0150185401580459045A045B045C115D995F016040624064406540668068806A806C806E8083019201930197029F04B102B301B401B50468
:4005C000BB02C045C5ECC720C823C9FFCAFFCBFFCD83CE03CF01D018D280D804D904DA04DB04DC91DD19DF01E040E240E440E540E680E880EA80EC80EE80040405010608BE
:400600000B400C020E200F0214801540162018041D901E4020802118268027042D402E202F0A3109324034803610374038023F024102450248024B054C0250035E405F05DF
:40064000734092109444952299049D209E40A301A508A680A704A908AE04C070C2B8C4B0CA30CC3BCE81D081D218D6D0030405070B100C010D040E021402160117071901C9
:400680001B021C011E021F2021072708280129012A022B0231203203330F37103A084020410349FF4AFF4BFF4DA04F045018580459045A045C995D015F01604062C06440F6
:4006C000654066C068C06AC06CC06EC083018702889E8A608B028C7390CF92309494966098FD9A029D01A030A2C9AA0FB4FFB502B701BE10BF10C020C103C5D0C620C71023
:40070000C82AC9FFCAFFCBFFCDAFCE0FCF04D018D405D804D904DA04DB04DC10DD11DF01E040E2C0E440E540E6C0E8C0EAC0ECC0EEC0008004400520060109800A100D0151
:400740000E100F0C11101640172019041A301F2020802180220423202640270829202A012B2031803214368039323A403B043C043E203F02400442204310462047104F0138
:40078000562057015E805F09C0C1C275C452CA07CC1ECEEFD066D6D0080109010B0A1502170119011B061D011F0226032E01320233033508360137043B083E404014410566
:4007C00049FF4AFF4BFF4DA04F0150185280580459045A045B045C995D995F016040628064406540668068406A806C406D206E8081088301850289068C08940197099E03EF
:40080000A909AD06AE0CB004B102B202B308B408B504B601B701B922BE50BF45C054C101C54CC620C73EC83BC9FFCAFFCBFFCDAFCE07CF01D018D40FD804D904DA04DB0460
:40084000DC99DD99DF05E040E280E440E540E680E840EA80EC40ED20EE80001004400E200F021012160118111A021C401E281F482020212822402502264027282F0A3128CC
:4008800032403708382039403B803C0A3D083E223F10400141024502460248014E014F06562957025D405E085F126608670470027D088010841088109B029E209F20A0052A
:4008C000A640A908AC04C082C2A0C485CA30CC4ECEE4D099D218D6F0D860DE40E008E205EE06010804080601071008070B010C0B0E04110E140C150E1601180C1A021B0879
:400900001E0F1F0E25022610270429022B042D013010311E340F37013F40540F5604580459045B045C995D905F0182018401850E87F0897F8C0191FE920C93019A029C0409
:400940009F01A401A5C5A73AA801A9A3AB5CAD96AE04AF68B003B404B5FFB608BE10BF10D280D804D904DB04DC09DD90DF01024003210428070109200A420C040E080F0203
:4009800010061104162018041AC21B101E081F2221202742280429102A402B212F263240330135143741382839043B083E243F025D0A5E805F20644070028102902892049D
:4009C000940499149B019C409F40A001A301A604A710A880AB10AC40C0EDC2EBC427CA7ECCF9CEE6D6F0D880E604080609010C031006150118051F01270130073207370178
:400A0000380A39804003454049FF4A074BFF4C404D204EF04F055008580459045A045C095F01604061A862406320821E83C7841085188602880189088C0E8D02901891E77D
:400A400092029318940195FF980199039D10A001A138A347A416A521A608A818AA04AB20AD3CAF83B103B201B3F8B41EB71CBB08BE04D602D712D804D904DB04DC09DF01EC
:400A800000640240044405240604081109040A180C010D010F0C10401284130419281C401F08214022052540286229102C10300231803218368838A83B013E1046084714EC
:400AC0004F0255015702590869146B017014718072288304881291029210944095409648970199049B049C309D209E609F10A280A304A410A581A703C0CFC25EC40ECA4FCF
:400B0000CC5FCE2FD040D6020044022A050209020F01110214021615170118211ACA246728673060320734803501361837023B083E403F104034410642054401450E470C39
:400B4000481149FF4AFF4BFF4C624DA04EF04F41500C54185604580459045A045B045F016640670269106A306B106D106E106F1280968268840E850486F088C58A3A8B0496
:400B80008C7F8F019201950498FE99049A01A0A3A25CA308A701AB02AD04B302B501B6FFB70CBE40BF10D804D904DC90DF01010204400524064008A00A200B010E800F08C0
:400BC000111415021680188019121A611F802020222823012404264027102C242E802F8031083301352439943B803D803F184080421148204A084B8051085A0260066202AD
:400C00008002822283108640871088208A408D408E109040919692129480954096609701980499249B019C209D109E40A140A304A410A608A840AC04AF08B402B504C0F813
:400C4000C256C416CAF0CC63CE7ED00BD20CD601D80DE220EA083384364037083980CCF0CE1030806C8077049F0CA640A780A940CC10EA8000040502864087089F0CA64036
:400C8000A780C030E210E6409F04A780A804AD02E820EC1052106308D404D802AE10B704E8028B40A580B580E004EA089F04AF80EE1083049F04E28009800E019340A58013
:400CC000C2031040734088409340AE01C408DC01E201000301010B010C010D010E020F01100111011B011C011D0100FF010F00008C00408C8000800000000000C00B0B0053
:400D00000000000000E3E30082000000000000000000000000000000000000000000000000000000000000000000000000000000000000000000000000000000000000006B
:400D40000000000000000000000000000000000000000000000000000000000000000000000000000000000000000000000000000000000000000000000000000000000073
:400D80000000000000000000000000000000000000000000000000000000000000000000000000000000000000000000000000000000000000000000000000000000000033
:400DC00000000000000000000000000000000000000000000000000000000000000000000000000000000000000000000000000000000000000000000000000000000000F3
:400E000000000000000000000000000000000000000000000000000000000000000000000000000000000000000000000000000000000000000000000000000000000000B2
:0200000490006A
:0400000000004005B7
:0200000490105A
:04000000BC90ACAF55
:0200000490303A
:02000000F2808C
:0200000490402A
:4000000000000000000000000000000000000000000000000000000000000000000000000000000000000000000000000000000000000000000000000000000000000000C0
:400040000000000000000000000000000000000000000000000000000000000000000000000000000000000000000000000000000000000000000000000000000000000080
:400080000000000000000000000000000000000000000000000000000000000000000000000000000000000000000000000000000000000000000000000000000000000040
:4000C0000000000000000000000000000000000000000000000000000000000000000000000000000000000000000000000000000000000000000000000000000000000000
:0200000490501A
:0C00000000012E16106900012E3D02E9DF
:00000001FF