:400000000080002011000000250600002506000008B5044B1A6803F53F5302331A6000F009FB00BFFA46004010B5054C237833B9044B13B10448AFF300800123237010BD1D
:400040004081FF1F00000000B00F0000084B10B51BB108490848AFF300800848036803B910BD074B002BFBD0BDE81040184700BF000000004481FF1FB00F0000C880FF1F94
:400080000000000030B585B062B600F099F800F027F900252C462A4B1B7813F0FF0F49D100F02AF90024F6E700F04AFE9CBB672820D10DF10A0103A800F096F8039B8DF83B
:4000C0000430C3F307228DF80520C3F307428DF806201B0E8DF80730BDF90A308DF80830C3F307238DF80930062101A800F0A0FE01241FE073281DD100F056F80023114AA2
:4001000013800F4A137004A84B2300F80D3D012100F08EFEBFE7012C0AD045EA002000B2084B1880188800B200F00EF8002401E00546022400F036FE0028B5D1ABE700BFDC
:400140006481FF1F6281FF1F10B50446B0F59E6F01DD4FF49E6414F59E6F00DA114C002C09DD012000F080FD002000F089FDA0B200F01AFD10BD002C0ADA002000F074FD5D
:40018000012000F07DFD604280B200F00DFD10BD002000F069FD002000F072FD002000F003FD10BD10FBFFFF08B5002000F05CFD002000F065FD002000F0F6FC08BD00BF20
:4001C00008B500F043FDFFF7EFFF00F0DDFA00F065FB00F09BFA034B186000221A71DA8008BD00BF5C81FF1F38B505460C4600F017FB286000F08AFA074A1368C31A1060A5
:40020000B3F5004F01DB47F6FF7313F5004F00DA024B238038BD00BF5C81FF1F0080FFFF38B50546002405E0012000F067FC0134AC4206D200F0B6FD0028F5D000F080FD41
:4002400038BDFF2038BD00BF08B500F0DBFD08BD70B582B0064600250135EDB2322D37D800240BE04FF4FA70FFF7DAFF02AB234403F8040CFF282DD00134E4B2032CF1D9CF
:40028000002407E002AB234413F8040CFFF7DCFF0134E4B2032CF5D94FF4FA70FFF7C0FFFF2819D041280FD1FFF7CEFF9DF8043033709DF8053073709DF80630B3709DF851
:4002C0000730F370012008E04E20FFF7BDFFC3E7002002E0002000E0002002B070BD00BF08B500F01FFD034B00221A705A709A7008BD00BF6481FF1F00B583B000F052FD8C
:40030000002853D000F01CFD66380D284ED8DFE800F0144D4D334D4D4D4D4D4D4D4D0743FFF742FF0023234A1380234A1370234A13704B20FFF788FF38E05220FFF784FF01
:4003400001A8FFF785FF98B19DF804308DF800309DF805308DF801309DF806308DF802309DF807308DF803304B20FFF76DFF1DE02120FFF769FF19E0FFF716FF00230D4A26
:4003800013800D4A13700D4A53709370012313704B20FFF759FF09E0FFF706FF0023054A1380064A13704B20FFF74EFF03B05DF804FB00BF6281FF1F6081FF1F6481FF1F20
:4003C000FEE700BFF0B40022174611E050F82760F3B226F0FF0608E001EB420511F812406D78A5550132013BDBB2002BF4D10137242FEBD9F0BC7047064B1B78DBB203F05F
:400400000701054A11701B09013213704422034B1A707047CF0100496E5800407658004008B50A46002100F0BAFD08BD38B50223264A13801C21023211701721023211804A
:4004400018210232117002F27A22137008224FF040231A70032103F5007319701C4B1B78DBB21C490B701C4B1A8041F25122023B1A80002419250CE0184B1B7803F00103ED
:4004800043EA440404F003044FF4F07000F040FD013D0DB1032CEFD115B90320FFF790FF0F4B4FF480721A8007221A7000220D490A704820023108701A700222033B1A7044
:4004C000094A137843F00303137038BD8040004008010049A146004022420040254200400440004006400040A243004008B500F04BFD08BD38B572B6374A137843F0040365
:40050000137000240CE0354D630019194A0011462A44084691882858FFF782FF0134E4B2082CF0D900240BE02C49A3001819420088188022C16B806BFFF7D8FF0134E4B251
:40054000002CF1D026494FF09040FFF73BFF254A254B1A60254A137843F0020313701032137843F002031370214C237843F040032370A2F58632513A137843F0100313700B
:400580000A221C491C48FFF7B1FF08221B491C48FFF7ACFF08221B491B48FFF7A7FF0A221A491B48FFF7A2FF1A4A137843F008031370194D61232B70FFF738FF81232B7056
:4005C0000122164B1A70FFF717FF0E2221461448FFF78CFF38BD00BFE8460040B40F000094000048040400C4D816014003500140A0430040080B0048C0510040140B0048E7
:40060000125100401C0B004822510040240B004830510040224300400048004004000840B043004008B500F083FC03680C2B00D1FEE7FEE708B5104E104D16E029686B68D6
:40064000AC68002204E051F8040B43F8040B0432A242F8D1E868002203E0002143F8041B04328242F9D11035013E002EE6D100F065FCFFF707FDFEE7010000001C10000081
:4006800008B5104A104B1A60104A136843F40073136000230AE0032B03D80D4A52F8231000E00C490C4A42F8231001332F2BF2D90A4B1A780A4B1A70074A0A4B1A60FFF745
:4006C00019FF08BD0004FA050CED00E014ED00E000000000250600000080FF1FBC760040C080FF1F08ED00E008B50122054B1A600549002000F018FA0721002000F028FA7E
:4007000008BD00BF80E100E0BD07000010B50124064B1C6000F016F9A0F5004000B2044B1B68044A1460184410BD00BF80E100E06881FF1F00E100E0024B187800F00F0092
:40074000704700BF6764004040F00700014B1870704700BF8764004008B50F20FFF7F4FFFFF7EAFF00F0DCFB054A137843F01003137000F0D9FB0122024B1A6008BD00BFFC
:400780009764004000E100E008B500F02DF94FF4004000F0D1F80022064B1A60064B1B7823B9FFF7A1FF0122034B1A70FFF7D4FF08BD00BF6881FF1F6781FF1F0D4B1B78AB
:4007C000DBB213F0010F06D00B490A6802F5FF427F320A6007E013F0020F04D006490A68A2F500420A6013F0040F02D00022024B1A607047676400406881FF1F08B502221C
:40080000054B1A600549012000F08EF90721012000F09EF908BD00BF80E100E0D108000010B50224064B1C6000F006F9A0F5004000B2044B1B68044A1460184410BD00BFF0
:4008400080E100E07081FF1F00E100E0024B187800F00F00704700BF6F64004040F00700014B1870704700BF8F64004008B50F20FFF7F4FFFFF7EAFF00F052FB054A137883
:4008800043F01003137000F04FFB0222024B1A6008BD00BF9F64004000E100E008B500F01DF94FF4004000F0C1F80022064B1A60064B1B7823B9FFF7A1FF0122034B1A7095
:4008C000FFF7D4FF08BD00BF7081FF1F6C81FF1F0D4B1B78DBB213F0010F06D00B490A6802F5FF427F320A6007E013F0020F04D006490A68A2F500420A6013F0040F02D05C
:400900000022024B1A6070476F6400407081FF1F024A137843F080031370704777650040014B1870704700BF87650040014B1878704700BF67650040014B1880704700BFE4
:400940000C680040024B1B78024B188880B27047066400408C680040014B188880B270478C680040014B1880704700BF4C680040014B1880704700BF6C68004008B501E0CC
:40098000FFF7EAFFFFF7D2FF10F0400FF8D108BD08B5134B1A7802F0F8021A701A7802F0FC021A70FFF7EAFF4FF40040FFF7DAFF4FF40040FFF7C0FF0020FFF7B1FFFFF760
:4009C000B5FF4FF40040FFF7D3FF00F0A9FA054A137843F01003137000F0A6FA08BD00BF776500409765004008B5054B1B7823B9FFF7CEFF0122024B1A70FFF789FF08BDDA
:400A00007481FF1F024A137843F08003137070477B640040014B1870704700BF8D640040014B1878704700BF6D640040014B1880704700BF18680040024B1B78024B1888F8
:400A400080B270470C64004098680040014B188880B2704798680040014B1880704700BF58680040014B1880704700BF7868004008B501E0FFF7EAFFFFF7D2FF10F0400F21
:400A8000F8D108BD08B5134B1A7802F0F8021A701A7802F0FC021A70FFF7EAFF4FF40040FFF7DAFF4FF40040FFF7C0FF0020FFF7B1FFFFF7B5FF4FF40040FFF7D3FF00F065
:400AC0002FFA054A137843F01003137000F02CFA08BD00BF7B6400409D64004008B5054B1B7823B9FFF7CEFF0122024B1A70FFF789FF08BD7581FF1F01BE704710B504461B
:400B000005E0084B186800F003FAA4F50044B4F5004FF6D8034B586800FB04F000F0F8F910BD00BFCC80FF1F70B504460E46074B1D681F2802D90020FFF7DEFF04F01F04D3
:400B4000103455F8240045F8246070BD08ED00E038B504460D46072902D90020FFF7CCFF1F2C02D90020FFF7C7FF04F01F0000F1604000F564406D01EDB2057038BD00BF12
:400B8000024A137843F08003137070477E640040014B1880704700BF1C680040014B1880704700BF9C680040014B1880704700BF5C680040014B1870704700BF8C640040B8
:400BC000014B1878704700BF6C640040014B188880B27047BC68004008B501E0FFF7F6FFFFF7EEFF10F0100FF8D108BD08B5154A137803F0C00343F0090313702032137845
:400C000043F0010313700132137843F0010313704FF49E60FFF7BCFF4FF49E60FFF7BEFF0020FFF7C1FF0020FFF7C4FF00F078F9054A137843F01003137000F075F9FFF795
:400C4000CBFF08BD7E6400409C64004008B5054B1B7823B9FFF7CAFF0122024B1A70FFF78FFF08BD7681FF1F044A137803F0BF03800100F04000184310707047205100406E
:400C8000044A137803F0DF03400100F020001843107070472051004008B50E490220FFF743FF07210220FFF753FF00220A4B1A7072220A4B1A702022013B1A700622A3F2B9
:400CC00061131A70472210331A70022250331A7008BD00BF590E00007781FF1F8A65004010B500F01DF904460B4A137843F020031370013A137843F0100313700422074B8A
:400D00001A60074A137843F01003137000F0F0F8204600F009F910BD9A65004000E100E09864004008B5054B5B7823B9FFF7B4FF0122024B5A70FFF7D3FF08BD7781FF1F19
:400D40000422134B1A60134A9378DBB2D178C9B2127912F0FF0F01D18B4212D00E4AD05CC0B20133DBB213F0800F00D00023094A9370137913F0FF0F06D00022054B1A719E
:400D800002E0064B1878C0B20422054B1A60704780E100E07781FF1F8081FF1F4A65004000E100E00422144B1A60144B9A78D2B2DB78DBB29A4206D1104B1B7913F0FF0FAA
:400DC00015D0802014E00D4B9A78D2B2DB78DBB29A4205D2094AD3789078181AC0B207E0064AD3789078181A8038C0B200E000200422034B1A60704780E100E07781FF1FCD
:400E000000E100E0024B5B780BB1024B187070477781FF1F4B640040034B1B7813F0040FFAD1024B18707047686400404B640040084B5B7833B97047305DFFF7EDFF0134CE
:400E4000E4B203E070B50D4606460024AC42F3D370BD00BF7781FF1F1D4B1B78DBB213F01E0F05D01B4803F01E0201780A43027003F0200303F0FF0233B3174B1978C9B2C2
:400E8000164B1B78DBB21648C154164B1B7813F0FF0F02D00121144B197010490B780133DBB20B700B7813F0800F02D000210B4B19700A4B1978C9B20C4B1B78DBB29942AB
:400EC00002D10121074B1970002AC5D1704700BF696500407781FF1F4A6500407A81FF1F8081FF1F7B81FF1F7C81FF1F7981FF1F054A137843F0010313701032137843F0C0
:400F000001031370704700BFA2430040000000000230800803D000BF01380046FCD17047EFF3108072B6704780F31088704700BF014B1868704700BF3C81FF1F0E4B70B5D3
:400F40001E460E4C0025E41AA410A54204D056F8253098470135F8E700F04EF8084B094C1E46E41AA4100025A54204D056F8253098470135F8E770BD0410000004100000CA
:400F8000041000000C10000010B5431E0A44914204D011F8014B03F8014FF8E710BD03460244934202D003F8011BFAE7704700000000000000510040100040510040300013
:400FC000F0510040100000000140800600070140000900140140000800400140000A004C01400002005001402000000080060140880A004880004300F8B500BFF8BC08BCD8
:401000009E4670474D00000081060000F8B500BFF8BC08BC9E4670472900000030100000C880FF1F78000000C000000000000000000000000000E02EC05D00001800000078
:4010400000366E010000000000000000000000000000000000000000000000000000000000000000F60F0000000000000000000000000000000000000000000000000000C6
:40108000000000000000000000000000000000000000000000000000000000000000000000000000DC80FF1F000000000000000000000000000000000000000000000000B6
:4010C00000000000000000000000000000000000000000000000000000000000000000000000000000000000000000000000000000000000000000000000000000000000F0
:4011000000000000000000000000000000000000000000000000000000000000000000000000000000000000000000000000000000000000000000000000000000000000AF
:40114000000000000000000000000000000000000000000000000000000000000000000000000000000000000000000000000000000000000000000000000000000000006F
:40118000000000000000000000000000000000000000000000000000000000000000000000000000000000000000000000000000000000000000000000000000000000002F
:020000040003F7
:0200000480007A
:400000000352004005640040036500400101014002030140080501402506014043070140540801404A090140580A0140460B01405C0C0140450D0140650E0140330F014033
:4000400006150140451601404A1701404E18014052190140531A0140431B014006400140024101400442014006430140024401400345014006460140034701400248014077
:4000800004490140044C0140044D01400C50014001510140108060806440870F880F8C0D8D6F8F0F876F89388A72E2089A40B2408004830898409A40AC40E204E601EE0812
:4000C000000C020107010807140C16021A0F1C0B1E0420082201320F35014065410349FF4AFF4BFF4DA04F015018580459045A045C995D095F016040628064406540668082
:4001000068406A806C406D206E800012042006400B800D800E2810801701189019011A071D081E2020C0211022602322270429882A202B80310132503308384439203A02A5
:400140003E0842214620488049044B114E014F1050085210534059405B2A638080408210834086108A20902498409A68A308A810AA08AE20C05AC2E8C418CA0FCC0FCE4FCC
:40018000D04AD234D60FD801E001E408E604EA0C02080302043306041033120C13011502164018401B021E4020032204242A26042A152B022D02300F3230330134403702D1
:4001C00038083A023E143F404003474049FF4A074BFF4C404D204EF04F0550085401580459045A045B045C905F01604061A86240632081018494853986608744883089678C
:400200008AC98B188C738D1090FD9202957F989E99089A609D399F42A0CFA230A301A746A918AA0FB120B51FB6FFB758BBA8BE40BF01D804D904DF010008012003020505C8
:40024000061008120A080D440E480F4012801320142015111604170818021D081E401F202004225926442710284029082A202D102E403020324834203504360238843920A0
:400280003A023D01450856055E845F11814082808408850187108884910994029516974099209B209C9A9E109F85A008A110A290A310A702A901AF10B420C037C2FAC47A0F
:4002C000CA37CCEECE8FD040D6F0E020000C03080418070708020A01101411771418180119C11A021B121C011DC01E021F24210123F22401260229842B102C202DB72F403E
:40030000301C3220330F340337F038023A203E04580459045C995F018107849E85018660870289018B028C308D078EC990FD9104920297079A0F9B109C73A308A494A6609E
:40034000A8CFAA30AB04B30FB510B6FFBE40C056C103C5C0C6B0C70EC81AC9FFCAFFCBFFCEF0CF44D00CD280D804D904DA04DB04DC90DD90DF01E6C0EA40EB02000401224A
:40038000040C0620070108080A460D010E480F0212201380140C150419231A201B111F80210422802330260C2708288229202C042F80301032803302342036083701380273
:4003C00039083D043E603F0246104D114F40540855107402821083189008920695069C089F05A230A402A608A701AD02AE10B310B540B610C0AEC2DFC465CAADCCEDCEF300
:40040000D040D230E404EA0204C50502063A0A010B080D0210FE12011302150219021C7F1F0820962268240E26F028A32A5C2B042F0132FF3306350837013E043F10402364
:40044000410649FF4AFF4BFF4DA04F0150185405580459045A045B045C905D195F016040628064406540668068406A806C406D206E8086028F0293019E01B102B401B50150
:40048000B602C023C106C503C6C2C74EC83DC9FFCAFFCBFFCDAFCE07CF01D018D40FD804D904DA04DB04DC99DD99DF05E040E280E440E540E680E840EA80EC40ED20EE807A
:4004C0000220042807200A020D010F82140C150417011A061F08208022202420268027082F0A31023488372139803D043E203F804128452849084A184E085080514052140C
:40050000530259015A105B445D825F08621479037B019008931094209585988099839A209B409C049D089F01A128A4C2A688A743B308C064C291C470CA30CCF1CE78D066B8
:40054000D224D6DFD806DE08EE8003010C0213022202230624012E01300231013302350436013E014040410349FF4AFF4BFF4DA04F0450185280580459045A045B045C1192
:400580005D115F01604062C06440654066C068C06AC06CC06EC0810E8406851087028A098C018D168F089201931E9540970199189B049C049D61A341A918AB02AC06AF208D
:4005C000B008B120B204B340B401B51EB602B701B888BE14BF45C040C103C5D0C620C710C82AC9FFCAFFCBFFCDAFCE0FCF04D018D40FD604D804D904DA04DB04DC99DD912E
:40060000DF01E040E2C0E440E540E6C0E8C0EAC0ECC0EEC00080046005080C020F02108012011304158019811C401D281F80210223142418266027482A012C042F8231027A
:4006400036A8370138023D043F82408041024220450246204D0256215C185D015E8067807001874088088B01C0E1C290C48DCAB1CCF1CED1D0C3D6F0D88086089E08AC8138
:40068000AF80B1C2EE0A0002020509010B020C020E041102130115011706180419011A021B0A1E082402261430013208330434063508361037033A203B80580459045C99AD
:4006C0005F018304850489388D508E018F28912893509560971899029D789E02A208A302A404A701A918AA04AB60AF02B008B104B201B302B402B501B604B778BE40BF0560
:40070000D280D40FD804D904DB04DC99DD90DF050080044108800E080F01104811081704198A1B201C491D101E081F04218022212310241025402709288029102A88318842
:4007400033213620370938203A403B093C1059805A065B106104621072807B8088048A029020920493019710984099049A509B149D089E029F01A048A10CA401A580A60430
:40078000A780A880AB10B140B308B408B584B640C091C2C1C42ECA0FCCEFCE2FD60FD806DE01E610024C0411060E084C09140A130D100E08110913101480150C17111B201C
:4007C0001F03211C2302282029202A032C112D102E462F0C3030311F324A34803520360F38023A883E103F10580459045F018109830485208680886689608A108C3B8D40A1
:40080000905D911B92209360957B967899609B1B9C409D789E089F03A066A11BA208A71BA912B007B2C0B303B478B578B704B802BB20D418D604D804D904DB04DC09DF01E0
:4008400001200312044005050601070808820B100C0812801540160419201A081B0B1D051E041F40211823022784291A2D402E402F443102325835053610378038803A2A56
:400880003C403D20444047024F3058016180622285128801890C8A048E0292E294809526960C98829A059C409D0D9E229F8DA00CA110A299A310A420A702A808AB01B32289
:4008C000B402B603B710C0F7C22DC4C8CAB7CCFFCE3FD601D80DE020E280E610E810EA80EC10EEC00002021504440502062A09110B060C800D0413081517182119071A4AB3
:400900001B101D061F11230824E7270128E72906300731103280346035083618370739023E403F104023410642054401460E470C481449FF4AFF4BFF4C624DA04EF04F4191
:40094000500C56025713580459045A045B045F016640670269106A306B106D106E106F12850E87F089968B6891FE930199C59B3A9DA39F5CA201A601AB01AD7FB3FFB60132
:40098000BE40BF04D804D904DF01014203200820111415081702191A1A111B201D802002210222202302271029082A202B802F0A3102325835203681388039203A083C081C
:4009C0003F204110421148014A08510453805A0269547060722888208A02912092A2948099209D1A9E2A9F10A004A289A31AA420A580A620AF09B101B34DC00DC202C4366A
:400A0000CA37CCBFCE6ED00ED20CD601E8A0EC203108331035808580CC70E2109F10A50805049F10A508C02083109F10A508A904E220EC807C40DE045E019440D601804050
:400A400094409704AF04B201EC019706B701EA028D08A5080B408740C210E4400B020F049706C20310408840C408E201000301010B010C010D010E020F01100111011B0155
:400A80001C011D01003F0000010A0005001000A00823001C0010002003000C400005000A000C0003000F000003070000001000200040000000400000028004400830010F41
:400AC000820000200000500461030000002EC3041FFFFFFF00AF0701180000000F000400040404049999000140008000404080004000800040208000000000000000000006
:400B00000000000000000000880040888000800000000000C00B0B000000000000E0E00080000000100000100000000000000000000000000000000000000000000000002F
:400B40000000000000000000000000000000000000000000000000000000000000000000000000000000000000000000000000000000000000000000000000000000000075
:400B80000000000000000000000000000000000000000000000000000000000000000000000000000000000000000000000000000000000000000000000000000000000035
:400BC00000000000000000000000000000000000000000000000000000000000000000000000000000000000000000000000000000000000000000000000000000000000F5
:400C000000000000000000000000000000000000000000000000000000000000000000000000000000000000000000000000000000000000000000000000000000000000B4
:0200000490006A
:0400000000004005B7
:0200000490105A
:04000000BC90ACAF55
:0200000490303A
:0200000068EFA7
:0200000490402A
:4000000000000000000000000000000000000000000000000000000000000000000000000000000000000000000000000000000000000000000000000000000000000000C0
:400040000000000000000000000000000000000000000000000000000000000000000000000000000000000000000000000000000000000000000000000000000000000080
:400080000000000000000000000000000000000000000000000000000000000000000000000000000000000000000000000000000000000000000000000000000000000040
:4000C0000000000000000000000000000000000000000000000000000000000000000000000000000000000000000000000000000000000000000000000000000000000000
:0200000490501A
:0C00000000012E16106900012E1F795817
:00000001FF