:4000000000800020110000005D3800005D38000008B5044B1A6803F53F5302331A6003F025FC00BFFA46004010B5054C237833B9044B13B10448AFF300800123237010BD29
:400040005081FF1F000000006C530000084B10B51BB108490848AFF300800848036803B910BD074B002BFBD0BDE81040184700BF000000005481FF1F6C530000C880FF1F74
:400080000000000030B593B062B602F0BFF800F0A7F900F093FB744B1B7813F0FF0F0AD00022714B1A7003F043FC704B186803F059FC03F09FFC6E4B1B7813F0FF0F02D131
:4000C00000F090FBE7E76B4B1B7813F0FF0FE2D00025684B1D7003F039FC03F049FC0446012004F0A9F902F0C1FB284604F0A4F903F02CFC03F03CFC844201D3241A00E03A
:40010000002404F0ADF95C4B1B6808935B4B1B6807935B4B1B6806935A4B1B6805935A4B1B680493594B1B680393594B1B680293584B1B6801930022574B1A7004F094F936
:400140009DF820308DF824309DF821308DF825309DF822308DF826309DF823308DF827309DF81C308DF828309DF81D308DF829309DF81E308DF82A309DF81F308DF82B3077
:400180009DF818308DF82C309DF819308DF82D309DF81A308DF82E309DF81B308DF82F309DF814308DF830309DF815308DF831309DF816308DF832309DF817308DF8333037
:4001C0009DF810308DF834309DF811308DF835309DF812308DF836309DF813308DF837309DF80C308DF838309DF80D308DF839309DF80E308DF83A309DF80F308DF83B30F7
:400200009DF808308DF83C309DF809308DF83D309DF80A308DF83E309DF80B308DF83F309DF804308DF840309DF805308DF841309DF806308DF842309DF807308DF84330B6
:400240008DF84440C4F307238DF84530C4F307438DF84630240E8DF8474024210DEB010004F024F817E700BF7E84FF1FD880FF1F5882FF1F6C81FF1F8C84FF1F9484FF1F58
:400280008884FF1F9084FF1F9884FF1F9C84FF1FA084FF1FA484FF1F7D84FF1F10B50446B0F59E6F01DD4FF49E6414F59E6F00DA114C002C09DD012003F0A6FE002003F0B5
:4002C000AFFEA0B203F040FE10BD002C0ADA002003F09AFE012003F0A3FE604280B203F033FE10BD002003F08FFE002003F098FE002003F029FE10BD10FBFFFF08B5002096
:4003000003F082FE002003F08BFE002003F01CFE08BD00BF38B50446244904F073FB00B1224C2349204604F04FFB00B1204C0021204604F05DFB10B904F1004500E025468A
:400340001C49284604F0A2F91B4904F097F80146284604F09BF9194904F08EF80146284604F094F9164904F089F80146284604F08DF9144904F082F80546134904F042FB3F
:4003800000B1114D0021284604F01EFB00B10025284604F041FB05B20021204604F028FB10B96D4228B238BD284638BD00004041000040C12AA4E1BD86D88140D3EAF5411F
:4003C000CC1F0443FB2BFA4200009E4408B503F0C3FA0122014B1A7008BD00BF6C81FF1F10B503F003FEFFF789FF03F061FB03F025FC03F01FFB074C6060074803F0B2FAEA
:4004000003F0F8FA054803F0A7FB00232370238110BD00BF6C81FF1FBFD40100CD03000008B5002003F0CEFB03F004FB014B586008BD00BF6C81FF1F38B505460C4603F005
:40044000ABFB286003F0F6FA074A5368C31A5060B3F5004F01DB47F6FF7313F5004F00DA024B238038BD00BF6C81FF1F0080FFFF38B50546002405E0012003F00FFD01345C
:40048000AC4206D203F06EFE0028F5D003F038FE38BDFE2038BD00BF08B503F099FE08BD70B582B0064600250135EDB2322D37D800240BE04FF4FA70FFF7DAFF02AB234484
:4004C00003F8040CFE282DD00134E4B2032CF1D9002407E002AB234413F8040CFFF7DCFF0134E4B2032CF5D94FF4FA70FFF7C0FFFE2819D041280FD1FFF7CEFF9DF80430F1
:4005000033709DF8053073709DF80630B3709DF80730F370012008E04E20FFF7BDFFC3E7002002E0002000E0002002B070BD00BF70B59AB04FF4FA70FFF79AFF04464FF483
:40054000FA70FFF795FFFE2C01D0FE2803D14520FFF7A2FFCCE044EA0025ADB2D82D08D100252C4616E03220FFF782FF0134A4B200E000246B1C9C42F5D34520FFF78CFF62
:40058000B6E04FF4FA70FFF773FF5A4B185545400134A4B2D72CF4D94FF4FA70FFF768FF854203D04520FFF777FFA1E0514D2E786C78A87802F0E0F8EB7885F8D830314637
:4005C000002001F055FE002318E0591C494A12F821008DF864009B00581D105C8DF86500981D105C8DF86600D81D125C8DF867201AAA1344199A43F8682C8BB2182BE4D9A5
:4006000019226946002001F041FE2146012001F02FFE00231DE003F11A02364911F822208DF864209A0002F16900085C8DF8650002F16A00085C8DF8660002F16B00095C24
:400640008DF867101AA90A44199942F8681C01339BB2182BDFD919226946012001F016FE244C94F8CC308DF8643094F8CD308DF8653094F8CE308DF8663094F8CF308DF808
:400680006730199D94F8D0308DF8643094F8D1308DF8653094F8D2308DF8663094F8D3308DF86730199894F8D4308DF8643094F8D5308DF8653094F8D6308DF8663094F80F
:4006C000D7308DF86730199902F0ACF894F8D83013F0010F05D02846FFF71CFE03F082FF00E02846034BC3F8DC004B20FFF7D4FE1AB070BD7881FF1F2F4B93F8E030DBB20B
:40070000012B58D130B583B04FE003F0F9FC2A4B93F8E130CBB973280DD1FFF7EFFD02F071F8254C002584F8E0504B20FFF7B4FE84F8E1503DE0752837D11F4B012283F81E
:40074000E120002283F8E2202FE01B4991F8E220531CDBB281F8E2300A4482F8E400032B23D991F8E4208DF8042091F8E5208DF8052091F8E6208DF8062091F8E7208DF8C1
:40078000072091F8D83013F0010F07D00198FFF7C1FD03F027FF02F03FF802E0019802F03BF80022044B83F8E12003F0DBFC0028ABD103B030BD70477881FF1F08B503F0EF
:4007C00091FC064803F02AFE054B002283F8E02083F8E12083F8E22008BD00BFF90600007881FF1F70B582B003F0BCFC002800F0918003F085FC6638102800F28B80DFE84A
:4008000000F01C8989698989898989895589097E89896100FFF772FD01F0F4FF00223E4B1A703E4B83F8E0200021C3F8DC1083F8E1204B20FFF730FE6CE05220FFF72CFEF0
:4008400001A8FFF72DFE68B39DF804308DF800309DF805308DF801309DF806308DF802309DF807308DF80330009C4FF07C51204604F0C8F890B12A49204604F0AFF868B1FF
:400880002146284803F0B6FF04F0ECF8441E03F04FF8204603F066F803F0ACF84B20FFF7FBFD37E02120FFF7F7FD33E0FFF740FE30E01A4D285DFFF7EFFD2B5D5E400134DC
:4008C000A4B201E000263446D72CF2D93046FFF7E3FD1FE0FFF712FD00230F4A13700F4C84F8E13084F8E230D4F8DC0001F04CFF012384F8E0304B20FFF7CEFD0AE0FFF7EE
:40090000FDFC01F07FFF0022044B83F8E0204B20FFF7C2FD02B070BD6C81FF1F7881FF1F00401C46001BB74B70B505460E461446114604F067F830B93146284604F044F8BD
:4009400018B1304670BD204670BD284670BD00BF0138C0B203288CBF00200120704700BF0338C0B201288CBF00200120704700BFF8B504460E46406803F088FE616B03F043
:400980007DFD0546A76BA168304603F07FFE0146384603F073FD0746216A284603F076FE0146384603F068FD6063E76BE168304603F06CFE0146384603F060FD0746616A21
:4009C000284603F063FE0146384603F055FDA063276C2169304603F059FE0146384603F04DFD0746A16A284603F050FE0146384603F042FDE063676C6169304603F046FEBE
:400A00000146384603F03AFD0746E16A284603F03DFE0146384603F02FFD2064A169304603F034FE0646216B284603F02FFE0146304603F021FD60642846F8BD2DE9F04322
:400A400085B006460C461746D0F8A4502946206803F0D0FE80464FF07E5103F0C9FF60B94449404603F0B0FF50B94FF09E41404603F00CFE03F0D0FF04E06FF0004001E0A5
:400A80004FF0004002902946606803F0B3FE04464FF07E5103F0ACFF60B93649204603F093FF50B94FF09E41204603F0EFFD03F0B3FF04E06FF0004001E04FF0004003904A
:400AC0002946384603F096FE04464FF07E5103F08FFF68B92749204603F076FF58B94FF09E41204603F0D2FD03F096FF044604E06FF0004401E04FF000446B46022202A9B6
:400B000006F1C00002F05EF80099490C019B41EAC331D6F8D8204FEAE279E71704FB09F002FB0700A4FB02230344D00F40EA4300C317421843EBE173B2F1004F73F1000452
:400B400006DAB2F1004F73F1FF3304DB084404E06FF0004001E04FF0004003F043FD4FF0405103F093FD0146284603F08FFD05B0BDE8F083000080BF70B588B004460E463E
:400B8000D0F8A45000F18801FFF758FF0146304603F072FC294603F02DFE06464FF07E5103F026FF68B93C49304603F00DFF58B94FF09E41304603F069FD03F02DFF014616
:400BC00004E06FF0004101E04FF000410223009306AB002204F1D00002F0AEF82946D4F8880003F007FE06464FF07E5103F000FF60B92949304603F0E7FE50B94FF09E4121
:400C0000304603F043FD03F007FF04E06FF0004001E04FF0004004902946D4F88C0003F0E9FD06464FF07E5103F0E2FE60B91A49304603F0C9FE50B94FF09E41304603F092
:400C400025FD03F0E9FE04E06FF0004001E04FF000400590022302AA06A904A802F066F9029803F0BFFC4FF0405103F00FFD0146284603F00BFDC4F88000039803F0B2FC44
:400C80004FF0405103F002FD0146284603F0FEFCC4F8840008B070BD000080BF2DE9F04389B006460F4690461D46D0F8A4402146386803F09FFD81464FF07E5103F098FE70
:400CC00060B95A49484603F07FFE50B94FF09E41484603F0DBFC03F09FFE04E06FF0004001E04FF0004006902146786803F082FD07464FF07E5103F07BFE60B94B49384607
:400D000003F062FE50B94FF09E41384603F0BEFC03F082FE04E06FF0004001E04FF0004007902146404603F065FD07464FF07E5103F05EFE68B93D49384603F045FE58B9C9
:400D40004FF09E41384603F0A1FC03F065FE014604E06FF0004101E04FF000410227009704AB002206F1B80001F0E6FF02AB3A4606A906F1A80001F025FF029B5B0C039A7E
:400D800043EAC23304984FEAE07910EB030849EBE379B8F1004F79F1000206DAB8F1004F79F1FF3204DB184404E06FF0004001E04FF0004003F016FC4FF0405103F066FC2E
:400DC0000146204603F062FC286002AB022206A906F1B00001F0F6FE029B5B0C039A43EAC2330598C717C61847EBE377B6F1004F77F1000206DAB6F1004F77F1FF3204DB0B
:400E0000184404E06FF0004001E04FF0004003F0E9FB4FF0405103F039FC0146204603F035FC686009B0BDE8F08300BF000080BF2DE9F0418AB0044688461F46D0F8A45082
:400E400000F180063146FFF7F9FD0146404603F013FB294603F0CEFC80464FF07E5103F0C7FD68B93F49404603F0AEFD58B94FF09E41404603F00AFC03F0CEFD804604E030
:400E80006FF0004801E04FF0004808AB3A4631462046FFF703FF0223009306AB0022414604F1D00001F048FF2946089803F0A2FC06464FF07E5103F09BFD60B92949304686
:400EC00003F082FD50B94FF09E41304603F0DEFB03F0A2FD04E06FF0004001E04FF0004004902946099803F085FC06464FF07E5103F07EFD60B91B49304603F065FD50B971
:400F00004FF09E41304603F0C1FB03F085FD04E06FF0004001E04FF000400590022302AA06A904A802F002F8029803F05BFB4FF0405103F0ABFB0146284603F0A7FBC4F817
:400F40008000039803F04EFB4FF0405103F09EFB0146284603F09AFBC4F884000AB0BDE8F08100BF000080BF10B500F188030A4600F18001FFF792FE10BD00BFF0B585B084
:400F80000446D0F8A4603146D0F8800003F032FC05464FF07E5103F02BFD60B94449284603F012FD50B94FF09E41284603F06EFB03F032FD04E06FF0004001E04FF00040BB
:400FC00002903146D4F8840003F014FC05464FF07E5103F00DFD60B93549284603F0F4FC50B94FF09E41284603F050FB03F014FD04E06FF0004001E04FF0004003906B4659
:40100000022202A904F1C80001F0DCFD009D6D0C019B45EAC3352F462078FFF7A1FC28B1D4F89010E06F03F031FB04E0D4F89410E06F03F02BFB314603F0DCFB04464FF0A8
:401040007E5103F0D5FC60B91949204603F0BCFC50B94FF09E41204603F018FB03F0DCFC04E06FF0004001E04FF00040C317C21B63EBE773B2F1004F73F1000106DAB2F1D7
:40108000004F73F1FF3304DB401B04E06FF0004001E04FF0004003F0A5FA4FF0405103F0F5FA0146304603F0F1FA05B0F0BD00BF000080BF2DE9F04184B005460E46174678
:4010C000D0F8A4402146306803F094FB80464FF07E5103F08DFC68B94849404603F074FC58B94FF08E41404603F0D0FA03F094FC00B203E047F6FF7000E04148ADF80C0098
:401100002146706803F076FB06464FF07E5103F06FFC68B93949304603F056FC58B94FF08E41304603F0B2FA03F076FC00B203E047F6FF7000E03248ADF80E00214638462A
:4011400003F058FB06464FF07E5103F051FC68B92A49304603F038FC58B94FF08E41304603F094FA03F058FC06B203E047F6FF7600E0234E6B46022203A905F1EC0001F00F
:40118000C5FF009BDB0B019A43EA4243B3F5004F04DA13F5004F04DB18B203E047F6FF7000E01748B5F9F83003FB06F3DB13B3F5004F04DA13F5004F04DB1BB203E047F647
:4011C000FF7300E00E4B1A18B2F5004F04DA12F5004F04DB10B203E047F6FF7000E0084803F000FA4FF0605103F050FA0146204603F04CFA04B0BDE8F08100BF000080BFC0
:401200000080FFFF70B586B004460E46D0F8A45000F18801FFF74EFF0146304603F02CF9294603F0E7FA06464FF07E5103F0E0FB68B93E49304603F0C7FB58B94FF08E418C
:40124000304603F023FA03F0E7FB01B203E047F6FF7100E036490223009305AB002204F1F40001F09BFF2946D4F8880003F0C2FA06464FF07E5103F0BBFB68B92B493046F3
:4012800003F0A2FB58B94FF08E41304603F0FEF903F0C2FB00B203E047F6FF7000E02448ADF810002946D4F88C0003F0A3FA06464FF07E5103F09CFB68B91C49304603F003
:4012C00083FB58B94FF08E41304603F0DFF903F0A3FB00B203E047F6FF7000E01448ADF81200022303AA05A904A801F09FFFBDF90C0003F077F94FF0605103F0C7F9014681
:40130000284603F0C3F9C4F88000BDF90E0003F069F94FF0605103F0B9F90146284603F0B5F9C4F8840006B070BD00BF000080BF0080FFFF2DE9F04387B006460F469046BA
:401340001D46D0F8A4402146386803F053FA81464FF07E5103F04CFB68B95E49484603F033FB58B94FF08E41484603F08FF903F053FB00B203E047F6FF7000E05648ADF8C4
:4013800014002146786803F035FA07464FF07E5103F02EFB68B94F49384603F015FB58B94FF08E41384603F071F903F035FB00B203E047F6FF7000E04748ADF81600214610
:4013C000404603F017FA07464FF07E5103F010FB68B94049384603F0F7FA58B94FF08E41384603F053F903F017FB01B203E047F6FF7100E038490227009704AB002206F1F1
:40140000E80001F0CBFE02AB3A4605A906F1E00001F07CFE029BDB0B039A43EA4243B3F5004F04DA13F5004F04DB1BB203E047F6FF7300E0284BBDF91000C218B2F5004FC8
:4014400004DA12F5004F04DB10B203E047F6FF7000E0214803F0C6F84FF0605103F016F90146204603F012F9286002AB022205A906F1E40001F04AFE029BDB0B039A43EA09
:401480004243B3F5004F04DA13F5004F04DB1BB203E047F6FF7300E00F4BBDF91200C218B2F5004F04DA12F5004F04DB10B203E047F6FF7000E0084803F094F84FF0605168
:4014C00003F0E4F80146204603F0E0F8686007B0BDE8F083000080BF0080FFFF2DE9F04188B0044688461F46D0F8A45000F180063146FFF7DFFD0146404602F0BDFF2946EF
:4015000003F078F980464FF07E5103F071FA70B94149404603F058FA60B94FF08E41404603F0B4F803F078FA0FFA80F804E047F6FF7801E0DFF8E48006AB3A4631462046A3
:40154000FFF7F8FE0223009305AB0022414604F1F40001F023FE2946069803F04BF906464FF07E5103F044FA68B92B49304603F02BFA58B94FF08E41304603F087F803F087
:401580004BFA00B203E047F6FF7000E02348ADF810002946079803F02DF906464FF07E5103F026FA68B91C49304603F00DFA58B94FF08E41304603F069F803F02DFA00B266
:4015C00003E047F6FF7000E01448ADF81200022303AA05A904A801F029FEBDF90C0003F001F84FF0605103F051F80146284603F04DF8C4F88000BDF90E0002F0F3FF4FF03B
:40160000605103F043F80146284603F03FF8C4F8840008B0BDE8F081000080BF0080FFFF10B500F188030A4600F18001FFF782FE10BD00BF70B584B00546D0F8A460314635
:40164000D0F8800003F0D6F804464FF07E5103F0CFF968B94649204603F0B6F958B94FF08E41204603F012F803F0D6F900B203E047F6FF7000E03F48ADF80C003146D5F8B5
:40168000840003F0B7F804464FF07E5103F0B0F968B93749204603F097F958B94FF08E41204602F0F3FF03F0B7F900B203E047F6FF7000E02F48ADF80E006B46022203A9AE
:4016C00005F1F00001F022FD009BDB0B019A43EA4243B3F5004F04DA13F5004F04DB1CB203E047F6FF7400E0224C2878FFF738F928B1D5F89010E86F02F0C8FF04E0D5F89E
:401700009410E86F02F0C2FF314603F073F805464FF07E5103F06CF968B91549284603F053F958B94FF08E41284602F0AFFF03F073F900B203E047F6FF7000E00D48031B29
:40174000B3F5004F04DA13F5004F04DB18B203E047F6FF7000E0074802F044FF4FF0605102F094FF0146304602F090FF04B070BD000080BF0080FFFF2DE9F04182B006468B
:401780000C461746D0F8A4502946206803F032F880464FF07E5103F02BF968B94649404603F012F950B94FF08641404602F06EFF03F032F940B203E07F2001E06FF07F0046
:4017C0008DF804002946606803F014F804464FF07E5103F00DF968B93749204603F0F4F850B94FF08641204602F050FF03F014F940B203E07F2001E06FF07F008DF8050080
:401800002946384602F0F6FF04464FF07E5103F0EFF868B92849204603F0D6F850B94FF08641204602F032FF03F0F6F844B203E07F2401E06FF07F046B46022201A906F5B7
:40184000817001F08FFD0098C01103B27F2B04DC13F1800F03DB40B203E07F2001E06FF07F0096F9083104FB03F3DB111AB27F2A04DC12F1800F03DB5BB203E07F2301E0CD
:401880006FF07F03C2187F2A04DC12F1800F03DB50B203E07F2001E06FF07F0002F0A2FE4FF0705102F0F2FE0146284602F0EEFE02B0BDE8F08100BF000080BF70B586B009
:4018C00004460E46D0F8A45000F18801FFF754FF0146304602F0D0FD294602F08BFF06464FF07E5103F084F868B93E49304603F06BF850B94FF08641304602F0C7FE03F0F8
:401900008BF841B203E07F2101E06FF07F010223009305AB002204F5837001F089FD2946D4F8880002F066FF06464FF07E5103F05FF868B92B49304603F046F850B94FF0BF
:401940008641304602F0A2FE03F066F840B203E07F2001E06FF07F008DF810002946D4F88C0002F047FF06464FF07E5103F040F868B91C49304603F027F850B94FF08641DE
:40198000304602F083FE03F047F840B203E07F2001E06FF07F008DF81100022303AA05A904A801F093FD9DF90C0002F01BFE4FF0705102F06BFE0146284602F067FEC4F8C6
:4019C00080009DF90D0002F00DFE4FF0705102F05DFE0146284602F059FEC4F8840006B070BD00BF000080BF2DE9F04387B006460F4690461D46D0F8A4402146386802F05C
:401A0000F9FE81464FF07E5102F0F2FF68B95A49484602F0D9FF50B94FF08641484602F035FE02F0F9FF40B203E07F2001E06FF07F008DF814002146786802F0DBFE074604
:401A40004FF07E5102F0D4FF68B94B49384602F0BBFF50B94FF08641384602F017FE02F0DBFF40B203E07F2001E06FF07F008DF815002146404602F0BDFE07464FF07E5192
:401A800002F0B6FF68B93C49384602F09DFF50B94FF08641384602F0F9FD02F0BDFF41B203E07F2101E06FF07F010227009704AB002206F5807001F0BBFC03AB3A4605A974
:401AC00006F1FC0001F04EFC039BDB111AB27F2A04DC12F1800F03DB5BB203E07F2301E06FF07F039DF910001A187F2A04DC12F1800F03DB50B203E07F2001E06FF07F0001
:401B000002F070FD4FF0705102F0C0FD0146204602F0BCFD286003AB022205A906F1FE0001F020FC039BDB111AB27F2A04DC12F1800F03DB5BB203E07F2301E06FF07F0392
:401B40009DF911001A187F2A04DC12F1800F03DB50B203E07F2001E06FF07F0002F042FD4FF0705102F092FD0146204602F08EFD686007B0BDE8F083000080BF2DE9F04157
:401B800088B0044688461F46D0F8A45000F180063146FFF7F1FD0146404602F06DFC294602F028FE80464FF07E5102F021FF70B94149404602F008FF60B94FF08641404676
:401BC00002F064FD02F028FF4FFA80F804E04FF07F0801E06FF07F0806AB3A4631462046FFF702FF0223009305AB0022414604F5837001F01DFC2946069802F0FBFD0646F8
:401C00004FF07E5102F0F4FE68B92B49304602F0DBFE50B94FF08641304602F037FD02F0FBFE40B203E07F2001E06FF07F008DF810002946079802F0DDFD06464FF07E514A
:401C400002F0D6FE68B91C49304602F0BDFE50B94FF08641304602F019FD02F0DDFE40B203E07F2001E06FF07F008DF81100022303AA05A904A801F029FC9DF90C0002F0FC
:401C8000B1FC4FF0705102F001FD0146284602F0FDFCC4F880009DF90D0002F0A3FC4FF0705102F0F3FC0146284602F0EFFCC4F8840008B0BDE8F081000080BF10B500F101
:401CC00088030A4600F18001FFF78EFE10BD00BF70B582B00446D0F8A4603146D0F8800002F088FD05464FF07E5102F081FE68B94449284602F068FE50B94FF0864128462B
:401D000002F0C4FC02F088FE40B203E07F2001E06FF07F008DF804003146D4F8840002F069FD05464FF07E5102F062FE68B93549284602F049FE50B94FF08641284602F03E
:401D4000A5FC02F069FE40B203E07F2001E06FF07F008DF805006B46022201A904F5827001F000FB009DED112BB27F2B04DC13F1800F03DB6DB203E07F2501E06FF07F0579
:401D80002078FEF7EDFD28B1D4F89010E06F02F07DFC04E0D4F89410E06F02F077FC314602F028FD04464FF07E5102F021FE68B91449204602F008FE50B94FF0864120465D
:401DC00002F064FC02F028FE40B203E07F2001E06FF07F00431B7F2B04DC13F1800F03DB58B203E07F2001E06FF07F0002F0FAFB4FF0705102F04AFC0146304602F046FC92
:401E000002B070BD000080BF30B583B00446154602AB002243F8042D0222603000F03EFE2946A06E02F032FC019902F027FB03B030BD00BF70B582B004460E4600F188058F
:401E40002946FFF7E1FF0146304602F015FB02236A46014604F16C0000F070FE022304F180026946284600F0D1FD02B070BD00BF08B50A4B1B78042B06D0052B07D0032B8F
:401E800008D1FEF779FE08BDFFF7BCF908BDFFF715FD08BDFFF7CEFF08BD00BF6082FF1FF8B505460F4616461C460222483000F0F5FD3146A86D02F0E9FB0146206802F0E8
:401EC000DDFA234643F8040B0222394605F1500000F0E4FDE96D304602F0D8FB0146606802F0CCFA6060F8BDF0B585B005460E461F4600F180042146FFF786FF01463046DF
:401F000002F0BAFA064602AB3A4621462846FFF7C7FF02236A46314605F16C0000F00EFE02232246694602A800F070FD05B0F0BD10B50A4C2478042C06D0052C07D0032CAE
:401F400008D1FEF775FF10BDFFF7C8FA10BDFFF715FE10BDFFF7C8FF10BD00BF6082FF1F10B500F188030A4600F18001FFF798FF10BD00BF08B50A4B1B78042B06D0052BB8
:401F800007D0032B08D1FEF7EFFF08BDFFF748FB08BDFFF793FE08BDFFF7E2FF08BD00BF6082FF1F10B582B0044602AB002243F8042D022200F18001743000F06FFD20784C
:401FC000FEF7CEFC28B1D4F89010E06F02F05EFB04E0D4F89410E06F02F058FB019902F04BFA02B010BD00BF08B50A4B1B78042B06D0052B07D0032B08D1FEF7BFFF08BD1C
:40200000FFF718FB08BDFFF763FE08BDFFF7CAFF08BD00BF6082FF1F2DE9F84F04460E46D0F89C700078052800F2DD80DFE810F006001A0079001A007900D800D4F8940085
:4020400002F01AFA01462046FEF792FC0546D4F89410D4F8980002F019FB0146284602F00DFAC1E0FEF77CFC58B13146D4F8940002F002FA0146D4F8900002F0FFF9C4F832
:4020800090002046FFF7B0FF0546594BD3F80080D3F80490574B9C4219D1574B1B7813F0020F04D0DFF854B1DFF854A103E0DFF854B1DFF854A15946484602F0A3FC00B1C3
:4020C000D9464146504602F09DFC00B1D0464A4641462846FEF728FC80462078FEF740FCA0B1D4F87C900021484602F063FC68B92946404602F0C0F9494602F07BFB0146FD
:40210000D4F8900002F0BAF9C4F8900043463A4631462046FFF70CFFC4F89C802846BDE8F88F3A462046FFF7A3FE2078FEF718FC58B13146D4F8940002F09EF90146D4F85F
:40214000900002F09BF9C4F890002046FFF74CFF0546274B1E685F68264B9C4219D1264B1B7813F0020F04D0DFF89090DFF8908003E0DFF89090DFF890804946384602F089
:4021800041FC00B14F464146304602F01DFC00B146463A4631462846FEF7C6FB06462078FEF7DEFB98B1E76F0021384602F002FC68B92946304602F05FF9394602F01AFB86
:4021C0000146D4F8900002F059F9C4F8900031462046FFF7CFFEC4F89C602846BDE8F88FD4F8940000E00020C4F89C00BDE8F88FCC80FF1F6482FF1F5082FF1F00004041F7
:40220000000040C100009E4400009EC408B54FF406720021144803F0A0F8002312E04FF48672124902FB0312062111710121A2F8A4104FF07E51C2F8A8100021C2F89C10FC
:402240000133DBB2012BEAD9084B002283F81C221A7083F81D2283F81E220022C3F82022C3F8242208BD00BF6482FF1F6082FF1F012808D8062900D906214FF48672024B19
:4022800002FB0030017170476082FF1F012800F26B82002900F068820F2A40F265822DE9F04F83B016460F46044605464FF07C51B86B02F0E3F802F0D5FB024600B90122BB
:4022C0004FF48673B74903FB0413A3F8A420D7F83C804FF07C51404602F094FBD8B1B249404602F07BFBB0B141464FF07E5002F081FAAE4B98604146AD4802F07BFA02F0F6
:40230000B1FB012800D802200138A84BD8600122A44B83F81E22102E0ED9D7F840800021404602F06FFB38B14FF486739D4A03FB0423C3F8A88008E04FF48673994A03FBCD
:4023400004234FF07E52C3F8A820112E01D97A6C00E000224FF48673924903FB0413C3F89C201879A8B168E057F821608D4A05EB451305EB43030B4402EB83008660881D5F
:4023800057F82000063302EB830398600131C9B200E000210529E7D94FF48673814A03FB0423D3F820800021404602F003FB002835D14FF07E51404602F0FCFA80B12EE057
:4023C00005EB451305EB43033B44764E06EB83064146B06802F00EFAB0600137FFB200E00027052FECD901270FE005EB451305EB43033B4406336B4E06EB83064146B068F1
:4024000002F0F8F9B0600137FFB2052FEDD94FF48673644A03FB04234FF07E521A624FF4867000FB04F43034624B1C4400236360A360E3602361636193E1FEF789FA002807
:4024400000F08F813B68574E4FF4867505FB04F506EB050ACAF84C307B68CAF85030BB68CAF85430FB68CAF858303B69CAF85C307B69CAF86030BB69CAF86430FB69CAF89C
:4024800068303B6ACAF86C307B6ACAF87030BB6ACAF87430FB6ACAF878303B6BCAF87C307B6BCAF88030043605F18002B1180023B3504B6005F18802B118B3504B6000230E
:4024C000CAF8943005F14809B14405F1A80104223144484600F0ACFD05F15808B04405F1B80102223144404600F0A2FD05F16007374405F1C00102223144384600F098FDE7
:4025000005F1700333440433009305F1C80102223144184600F08CFD05F1680333440433019305F1D00102223144184600F080FDDAF86C504FF07E51284602F059FA60B98C
:402540001D49284602F040FA50B94FF09E41284602F09CF802F060FA04E06FF0004001E04FF000404FF486730E4A03FB0423C3F8DC00D3F880504FF07E51284602F038FA86
:4025800060B90D49284602F01FFAB8B94FF09E41284602F07BF802F03FFA11E06FF000400EE000BF6082FF1F00401C46CC80FF1F001BB74B6482FF1F000080BF4FF000407E
:4025C0006A4E4FF4867505FB04F506EB050BCBF8E000043605F1E00104223144484600F071FE05F1E80AB24402225146404600F069FE02220AF10401384600F063FEF03521
:402600002E4402223146009800F05CFE0222311D019800F057FEDBF86C504FF07E51284602F0E6F968B95249284602F0CDF958B94FF08E41284602F029F802F0EDF900B273
:4026400003E047F6FF7000E04A484FF48673474A03FB0423A3F8FC00D3F880504FF07E51284602F0C5F968B94149284602F0ACF958B94FF08E41284602F008F802F0CCF923
:4026800000B203E047F6FF7000E03A48374E4FF4867505FB04F506EB050AAAF8FE00043605F1F801314404221144484600F058FF05F580752E4402223146404600F050FF6C
:4026C0000222B118384600F04BFF0222311D009800F046FF0222B11D019800F041FFDAF86C504FF07E51284602F082F968B92049284602F069F950B94FF08641284601F00A
:40270000C5FF02F089F940B203E07F2001E06FF07F004FF48673154A03FB042383F80C01D3F880504FF07E51284602F061F968B90F49284602F048F950B94FF086412846EC
:4027400001F0A4FF02F068F940B203E07F2001E06FF07F004FF48672044B02FB043484F80D0103B0BDE8F08F704700BF6082FF1F000080BF0080FFFF052800D90020014B7A
:40278000187070476082FF1FF8B5002122E01C4F3C1D4FF4867202FB01F303F13006264400227260B260F2603261726103F1800566196251726003F18805661962517260C6
:4027C0003B440024C3F89440C3F8A040A3F8A6200131C9B20129DAD9094CC4F898000025C4F8A451FDF71CFEC4F82052C4F82452002384F81D32012384F81C32F8BD00BFE4
:402800006082FF1F08B50022024B83F81C22FDF775FD08BD6082FF1F014BC3F8980070476082FF1F38B505460C460D4902F0CCF800B10B4D0B4B1D600B49204602F0E2F83A
:4028400008B1094900E02146064B5960284602F0D9F820B1034B024A1A60034A5A6038BD00009EC4CC80FF1F00009E44F0B583B05C4B93F81C3213B9FDF740FDB0E00DF159
:40288000020101A8FDF7D8FDBDF9020001F0AAFE554901F0FBFE554B996801F0ABFF0646504C5349D4F8200201F0F0FE05465149304601F0EBFE0146284601F0DFFD05463B
:4028C000C4F82002019801F08DFE4B4901F0DEFE07464A49D4F8240201F0D8FE06464849384601F0D3FE0146304601F0C7FD0646C4F82402D4F8AC0194F81031062B16D0D1
:40290000B4F8B23101339BB2A4F8B231B4F8B02193420CD30023A4F8B231314604F58870FFF77AFB2379062B01D0C4F898002D4B1B79062B1ED029463248FFF76DFB0446B4
:40294000314B1B7813F0020F09D0284B5A681968FDF7EAFFFDF7DEFCFDF7A0FC1EE0234B5A681968FDF7E0FF02F056F800B2FDF795FC13E01B4B93F81031062B0BD01B4BDA
:402980005A681968FDF7D0FF044602F045F800B2FDF784FC02E0FDF7B1FC002401F060FD104BC3F82842C3F82C52D3F89820C3F83022C3F83462D3F88420C3F83822D3F894
:4029C0008820C3F83C22D3F89021C3F84022D3F89421C3F84422012283F81D2201F044FD03B0F0BD6082FF1FFBF7C53BCC80FF1F62DE543E68C84A3FBEB5243AACFB3A3F95
:402A0000A8088A3E6482FF1F5082FF1F2DE9F04F85B004460D46164603939F0823E0D4F804A0D5F804B0D4F80880D5F80890E3680193EA6802922968206801F01FFD306042
:402A40005946504601F01AFD70604946404601F015FDB0600299019801F010FDF060103410351036013F002FD9D1039B03F003070EE006F1040A04F1040805F10409296894
:402A8000206801F0FBFC3060013F56464D464446002FEED105B0BDE8F08F00BF2DE9F84F04460D4690469946970800262AE02968206801F0EBFD0146304601F0DFFC064652
:402AC0006968606801F0E2FD0146304601F0D6FC0646A968A06801F0D9FD0146304601F0CDFC064604F1100A05F1100BE968E06801F0CCFD0146304601F0C0FC0646013F95
:402B00005D465446002FD2D108F003070FE004F1040805F1040A2968206801F0B7FD0146304601F0ABFC0646013F55464446002FEDD1C9F80060BDE8F88F00BF2DE9F04F7E
:402B400083B004460E46154601939F0822E0D4F804903146206801F099FD8246D4F808803146484601F092FD8146D4F80CB04146304601F08BFD80465946304601F086FD51
:402B8000C5F800A0C5F80490C5F80880E86010341035013F002FDAD1019B03F003070BE005F1040904F104082168304601F06EFD2860013F4D464446002FF1D103B0BDE826
:402BC000F08F00BF2DE9F04F8FB082468B460A920B934FEA920E4FF000084FF00009CDE90889CDF81CE07AE0DAF80010DAF80420DAF808C0DBF80000DBF80430DBF808E05F
:402C0000CD174FEAE0792C4600FB04F401FB0944A0FB01012144860B46EA81468F13DDE9088918EB060849EB0709D5171846D917CDE9080103FB05F0099902FB0101A3FB6D
:402C400002230B44910B41EA834100919B130193DDE9003413EB080344EB09049846A1466046C1177246D3170EFB01F10CFB0311AEFB0C230B44910B41EA834102919B1355
:402C80000393DDE9023413EB080344EB09049846A146DAF80C30D917DBF80C30DD17DBF80C4004FB01F1DAF80C0000FB0511A4FB00230B44910B41EA834104919B13059301
:402CC000DDE9043413EB080344EB0904CDE90834079B013B07930BF1100B0AF1100A079B002B81D1DDE908890A9B03F003021BE0DAF800E07046C117DBF800C06646F71760
:402D00000CFB01F30EFB0733ACFB0E011944840B44EA81448D1318EB040849EB0509013A0BF1040B0AF1040A002AE1D10B9BC3E900890FB0BDE8F08F2DE9F04F87B0013227
:402D400052B222F07F0464B225460594109CA408002D60D0ABE00668D0F804C04FEAE67B4FEAE17906FB09F501FB0B55A6FB01673D446646F71701FB07FE0CFB09EEA1FBFF
:402D80000C67BE4487684FEAE77B01FB0BFC866806FB09CCA1FB0667BC44C7684FEAE77B01FB0BF6C76807FB09683E46A1FB066708EB070605FA02F80EFA02F748FA02F917
:402DC0004D4503D06FF0004888EAE57847FA02F5AE4503D06FF0004787EAEE770CFA02FE06FA02F5C3F800805F604EFA02F7BC4503D06FF0004E8EEAEC7E45FA02F7BE42AB
:402E000003D06FF0004585EAE675C3F808E0DD6010301033013C002C9DD14AE0D0F800804568D0F808E0D0F80CC04646F717CDE902670E46CF17CDE9006708FB07FA039EFF
:402E400001FB06AAA8FB0189CA444FEAE57901FB09F8019E05FB0688A1FB056708EB07057646F71701FB07F8019E0EFB0688A1FB0E6708EB070E6646F71701FB07F7019E3C
:402E80000CFB0678A1FB0C67474456424AFA06FA45FA06FC4EFA06F547FA06F6C3F800A0C3F804C09D60DE6010301033013C002CB4D1109C04F00305059CE4B130E000F1F1
:402EC000040E06684FEAE67901FB09F04FEAE17906FB0900A1FB0667384400FA02F444FA02F6B04203D06FF0004484EAE0741C60013D04337046002DE1D113E006684FEA33
:402F0000E67901FB09F44FEAE17906FB0944A1FB06673C44564234411C60013D04330430002DEBD107B0BDE8F08F00BF2DE9F04F83B00E46924601934FEA930B5A4652E029
:402F4000D0F80080D0F804E0D6F800C07768856800F1100BC468B36806F11009F6686046C11710EB080041EBE871C444B1EBEC7F03D06FF0004C8CEAE17CCAF800C03846DC
:402F8000F91710EB0E0041EBEE717744B1EBE77F03D06FF0004787EAE177CAF804701846D917401941EBE5712B44B1EBE37F03D06FF0004383EAE173CAF808300AF1100364
:402FC0003046F117001941EBE4713444B1EBE47F03D06FF0004484EAE174CAF80C40013A9A464E465846002AAAD1019B03F0030319E00AF10407051D046806F1040E326844
:403000001046D117001941EBE4712244B1EBE27F03D06FF0004282EAE172CAF80020013BBA4676462846002BE3D103B0BDE8F08F2DE9F84304460D461646970846E04FF0D6
:403040009E41206801F022FB01F02CFD0346B1EBE07F03D06FF0004383EAE1732B604FF09E41606801F012FB01F01CFD0346B1EBE07F03D06FF0004383EAE1736B604FF04A
:403080009E41A06801F002FB01F00CFD0346B1EBE07F03D06FF0004383EAE173AB6005F1100804F110094FF09E41E06801F0EEFA01F0F8FC0346B1EBE07F03D06FF00043C3
:4030C00083EAE173EB60013F4C464546002FB6D106F0030615E02F1D04F104084FF09E41206801F0D3FA01F0DDFC0346B1EBE07F03D06FF0004383EAE1732B60013E444674
:403100003D46002EE7D1BDE8F88300BF2DE9F0479C4693080026002724E0054655F808AB8E465EF8084B0FFA8AF80FFA84F94FEA2A4A241404FB0AF409FB0844361947EBA0
:40314000E4774068496804B20FFA81F80014091401FB00F108FB0411761847EBE177013B71462846002BD8D102F0030210E0B0F90030B1F900504FEA234E2C1404FB0EF43B
:4031800005FB0343F61847EBE377013A02310230002AECD1CCE90067BDE8F087F0B5059EC2F10F0252B2B7082CE0054655F8084B40684FEA244C01FB0CFC24B204FB01F48B
:4031C0004FEA204E0EFB01FE00B200FB01F04CFA02FC14414EFA02FE10410CF30F0C04F30F040EF30F0E00F30F00A4B244EA0C449C464CF8084B80B240EA0E405860013F1D
:4032000063462846002FD0D106F003060AE0B0F9004001FB04F4144104F30F041C80013E02330230002EF2D1F0BD00BF2DE9F0434FEA930E2FE0064656F8089BD0F804C0E8
:403240000F4657F8088B4D680FFA89F00FFA88F1084400F30F0084B24FEA284808EB294000F30F0044EA0040144644F8080B0FFA8CF128B2014401F30F0188B2291401EBB0
:403280002C4101F30F0140EA014151600EF1FF3E224639463046BEF1000FCCD103F003030BE0B0F90050B1F900402C4404F30F041480013B023202310230002BF1D1BDE850
:4032C000F08300BF2DE9F84304460D46164697082EE04FF08E41206801F0D8F901F09CFB00F30F0028804FF08E41606801F0CEF901F092FB00F30F0068804FF08E41A0680F
:4033000001F0C4F901F088FB00F30F00A88005F1080804F110094FF08E41E06801F0B6F901F07AFB00F30F00E880013F4C464546002FCED106F003060FE0AF1C04F1040882
:403340004FF08E41206801F0A1F901F065FB00F30F002880013E44463D46002EEDD1BDE8F88300BF2DE9F0439C4693084FF0000E45E004680D684FEA34277EB21FFA86F8A6
:4033800047F31706360C360448EA060667B21FFA87F844F317073F0C3F0447EA08074FEA35244FFA84F81FFA88F944F317044FEA14484FEA084849EA08086CB21FFA84F9D0
:4033C00045F317052C0C240449EA040435B20FFA88F936144FEA284808FB06F809FB0588F0443DB20FFA84FE3F14241404FB07F40EFB054404EB080E013B04310430002B8E
:40340000B7D102F003020DE090F9003091F900501E142C1404FB06F405FB03439E44013A01310130002AEFD1CCF800E0BDE8F0832DE9F041DDF818E0C2F1070252B24FEAA9
:403440009E072EE090F9008090F9016090F9025090F903C001FB08F848FA02F808F3070801FB06F6164106F3070676B201FB05F5154105F307056DB201FB0CFC4CFA02FC09
:403480000CF3070C5FFA88F43602B6B234432D0405F47F052C4344EA0C641C60013F04330430002FCED10EF003070AE090F9004001FB04F4144104F307041C70013F013358
:4034C0000130002FF2D1BDE8F08100BF2DE9F0414FEA930C2DE005680F684FFA85FE7CB2A6440EF3070E5FFA8EFE45F3072647F30724344404F3070445F3074847F3074693
:40350000464406F307063F1607EB256505F30705360406F47F0646EA0565240204F47F4425434EEA050515600CF1FF3C043204310430BCF1000FCED103F003030BE090F934
:40354000005091F900402C4404F307041470013B013201310130002BF1D1BDE8F08100BF2DE9F84304460D46164697082EE04FF08641206801F08AF801F04EFA00F307007C
:4035800028704FF08641606801F080F801F044FA00F3070068704FF08641A06801F076F801F03AFA00F30700A87005F1040804F110094FF08641E06801F068F801F02CFAD1
:4035C00000F30700E870013F4C464546002FCED106F003060FE06F1C04F104084FF08641206801F053F801F017FA00F307002870013E44463D46002EEDD1BDE8F88300BF5F
:40360000FEE700BFF0B40022174611E050F82760F3B226F0FF0608E001EB420511F812406D78A5550132013BDBB2002BF4D10137222FEBD9F0BC7047064B1B78DBB203F0EE
:403640000701054A11701B09013213704422034B1A707047CF0100496E5800407658004008B50A46002101F078FE08BD38B50223264A13801C210232117017210232118018
:4036800018210232117002F27A22137008224FF040231A70032103F5007319701C4B1B78DBB21C490B701C4B1A8041F25122023B1A80002419250CE0184B1B7803F001037B
:4036C00043EA440404F003044FF4F07000F0C0FE013D0DB1032CEFD115B90320FFF790FF0F4B4FF480721A8007221A7000220D490A704820023108701A700222033B1A7051
:40370000094A137843F00303137038BD8040004008010049A146004022420040254200400440004006400040A243004008B501F009FE08BD38B572B6374A137843F0040332
:40374000137000240CE0354D630019194A0011462A44084691882858FFF782FF0134E4B2072CF0D900240BE02C48A20011194B0003441A8F596B186BFFF7D8FF0134E4B202
:40378000012CF1D926494FF09040FFF73BFF254A254B1A6002F1804203F560731A60234A137843F0020313701032137843F0020313701F4C237843F040032370A2F5863278
:4037C000513A137843F0100313700A2219491A48FFF7ACFF0A2219491948FFF7A7FF082218491948FFF7A2FF184A137843F008031370174D61232B70FFF738FF81232B70AE
:403800000122144B1A70FFF717FF0E2221461248FFF78CFF38BD00BFE8460040705300008C00004804040444D804014003500140A04300404C0D0048C0510040580D004882
:4038400010510040640D004822510040224300400048004004000840B043004008B501F045FD03680C2B00D1FEE7FEE708B5104E104D16E029686B68AC68002204E051F82D
:40388000040B43F8040B0432A242F8D1E868002203E0002143F8041B04328242F9D11035013E002EE6D101F027FDFCF7EBFBFEE701000000DC53000008B5104A104B1A60E0
:4038C000104A136843F40073136000230AE0032B03D80D4A52F8231000E00C490C4A42F8231001332F2BF2D90A4B1A780A4B1A70074A0A4B1A60FFF71DFF08BD0004FA05DB
:403900000CED00E014ED00E0000000005D3800000080FF1FBC760040C080FF1F08ED00E0024A137843F08003137070477E640040024A137803F07F03137070477E64004064
:40394000014B1870704700BF8E640040014B1B78704700BF0A640040014B1878704700BF6E640040014B1860704700BF2A640040014B1868704700BF4A640040014B186068
:40398000704700BF0A640040400100F06000044B1A7802F09F021A701A781043187070477E64004008B501E0FFF7E2FFFFF7D4FF10F0080FF8D108BD10B50C4C2046FFF7B2
:4039C000D1FF2046FFF7DAFF8020FFF7DDFF00F047FD074A137843F01003137000F044FDFFF7E0FF0120FFF7ABFF10BDBFD401009E64004008B5054B1B7823B9FFF7DCFFC0
:403A00000122024B1A70FFF78BFF08BDA884FF1F08B50122054B1A600549002000F054FA0721002000F064FA08BD00BF80E100E0E53A000010B50124064B1C6000F052F93B
:403A4000A0F5004000B2044B1B68044A1460184410BD00BF80E100E0AC84FF1F00E100E0024B187800F00F00704700BF6B64004040F00700014B1870704700BF8B640040E2
:403A800008B50F20FFF7F4FFFFF7EAFF00F0E8FC054A137843F01003137000F0E5FC0122024B1A6008BD00BF9B64004000E100E008B500F069F94FF4004000F00DF90022F2
:403AC000064B1A60064B1B7823B9FFF7A1FF0122034B1A70FFF7D4FF08BD00BFAC84FF1FA984FF1F0D4B1B78DBB213F0010F06D00B490A6802F5FF427F320A6007E013F060
:403B0000020F04D006490A68A2F500420A6013F0040F02D00022024B1A6070476B640040AC84FF1F014B1B681865704708ED00E04001C0B2014B1870704700BF04E400E01A
:403B40001022014B1A60704700E100E01022014B1A60704780E100E010B50446FFF7F6FF2046FFF7DFFF0720FFF7E2FFFFF7E8FF10BD00BF08B50222054B1A600549012030
:403B800000F0A2F90721012000F0B2F908BD00BF80E100E0713C000010B50224064B1C6000F01AF9A0F5004000B2044B1B68044A1460184410BD00BF80E100E0B484FF1FCF
:403BC00000E100E038B505460224054B1C604FF4004000F0FBF8034B1D60034B1C6038BD80E100E0B484FF1F00E100E0024B187800F00F00704700BF6364004040F0070002
:403C0000014B1870704700BF8364004008B50F20FFF7F4FFFFF7EAFF00F022FC054A137843F01003137000F01FFC0222024B1A6008BD00BF9364004000E100E008B500F08F
:403C40001DF94FF4004000F0C1F80022064B1A60064B1B7823B9FFF78DFF0122034B1A70FFF7D4FF08BD00BFB484FF1FB084FF1F0D4B1B78DBB213F0010F06D00B490A68BC
:403C800002F5FF427F320A6007E013F0020F04D006490A68A2F500420A6013F0040F02D00022024B1A60704763640040B484FF1F024A137843F08003137070477B64004013
:403CC000014B1870704700BF88640040014B1878704700BF68640040014B1880704700BF10680040024B1B78024B188880B270470864004090680040014B188880B270476F
:403D000090680040014B1880704700BF50680040014B1880704700BF7068004008B501E0FFF7EAFFFFF7D2FF10F0400FF8D108BD08B5134B1A7802F0F8021A701A7802F0BF
:403D4000FC021A70FFF7EAFF4FF40040FFF7DAFF4FF40040FFF7C0FF0020FFF7B1FFFFF7B5FF4FF40040FFF7D3FF00F079FB054A137843F01003137000F076FB08BD00BFAB
:403D80007B6400409864004008B5054B1B7823B9FFF7CEFF0122024B1A70FFF789FF08BDB884FF1F024A137843F080031370704777640040014B1870704700BF856400407D
:403DC000014B1878704700BF65640040014B1880704700BF08680040024B1B78024B188880B270470464004088680040014B188880B2704788680040014B1880704700BF71
:403E000048680040014B1880704700BF6868004008B501E0FFF7EAFFFFF7D2FF10F0400FF8D108BD08B5134B1A7802F0F8021A701A7802F0FC021A70FFF7EAFF4FF4004076
:403E4000FFF7DAFF4FF40040FFF7C0FF0020FFF7B1FFFFF7B5FF4FF40040FFF7D3FF00F0FFFA054A137843F01003137000F0FCFA08BD00BF776400409564004008B5054B29
:403E80001B7823B9FFF7CEFF0122024B1A70FFF789FF08BDB984FF1F01BE704710B5044605E0084B186800F0D3FAA4F50044B4F5004FF6D8034B586800FB04F000F0C8FAEC
:403EC00010BD00BFDC80FF1F70B504460E46074B1D681F2802D90020FFF7DEFF04F01F04103455F8240045F8246070BD08ED00E038B504460D46072902D90020FFF7CCFF08
:403F00001F2C02D90020FFF7C7FF04F01F0000F1604000F564406D01EDB2057038BD00BF024A137843F08003137070477D640040014B1880704700BF1C680040014B188022
:403F4000704700BF9C680040014B1880704700BF5C680040014B1870704700BF8F640040014B1878704700BF6F640040014B188880B27047BC68004008B501E0FFF7F6FF85
:403F8000FFF7EEFF10F0100FF8D108BD10B5154A137803F0C00343F0090313702132137843F001031370104C237843F0010323704FF49E60FFF7BCFF4FF49E60FFF7BEFF0B
:403FC0000020FFF7C1FF0020FFF7C4FF00F048FA237843F01003237000F046FAFFF7CCFF10BD00BF7D6400409F64004008B5054B1B7823B9FFF7CAFF0122024B1A70FFF760
:404000008FFF08BDBA84FF1F044A137803F0BF03800100F0400018431070704720510040044A137803F0DF03400100F020001843107070472051004008B511490220FFF7DE
:4040400043FF07210220FFF753FF00220D4B1A7072220D4B1A70202201331A700B490320FFF732FF07210320FFF742FF0622084B1A70472210331A70022253331A7008BD9E
:40408000D5420000BC84FF1F89650040714300002465004010B500F0E3F904460D4A137843F0200313700132137843F010031370094A0423136009490B7843F010030B7040
:4040C000082307490B60136000F080F9204600F0CBF910BD9965004000E100E09765004080E200E008B5054B5B7823B9FFF7A4FF0122024B5A70FFF7CDFF08BDBC84FF1F26
:404100000422134B1A60134A53889BB2918889B2927912F0FF0F01D18B4212D00E4AD05CC0B201339BB2B3F5FA7F00D30023094A5380937913F0FF0F06D00022054B9A71E8
:4041400002E0064B1878C0B20422054B1A60704780E100E0BC84FF1FC086FF1F4A65004000E100E00422174B1A60174B5A8892B29B889BB29A4207D1134B9B7913F0FF0F7F
:404180001BD04FF4FA7019E00F4B5A8892B29B889BB29A4207D20C4A908883B2508880B2181A80B20AE0084A908883B2508880B2181A00F5FA7080B200E000200422034BEE
:4041C0001A60704780E100E0BC84FF1F00E100E0114B5B78FBB10822104B1A600E4A13899BB25289934207D10D4B1B7813F0040F02D10C4B18700BE0B2F5FA7F02D30022D6
:40420000054B5A81044A53890749C854013353810822064B1A607047BC84FF1F80E100E06765004047650040CC84FF1F00E100E010B4194B59891B899BB2994205D25A1E1E
:40424000914214BF0022012206E0CA1A40F2F314A24214BF00220122002AEAD1994207D10E4B1B7813F0040F02D10D4B187010E0B1F5FA7F00D300210A4B58540131064B80
:404280005981064B1B7813F0020F02D00822064B1A6010BC704700BFBC84FF1F6765004047650040CC84FF1F00E200E0084B5B7833B97047305DFFF7BBFF0134A4B203E029
:4042C00070B50D4606460024AC42F3D370BD00BFBC84FF1F1E4B1B78DBB213F01E0F05D01C4803F01E0201780A43027003F0200303F0FF02002B28D0174B1978C9B2174B9E
:404300001B889BB21648C154164B1B7813F0FF0F02D00121144B197010490B889BB201339BB20B800B889BB2B3F5FA7F02D300210A4B1980094B198889B20C4B1B889BB298
:40434000994202D10121074B1970002AC2D170476A650040BC84FF1F4A650040C084FF1FC086FF1FC284FF1FC384FF1FBE84FF1F15E0114B1B889BB2B3F5FA7F02D300227A
:404380000D4B1A800C4A13889BB20C49CB5CDBB20B490B7013889BB201339BB21380064B1B889BB2074A1288934204D0064B1B7813F0040FDDD07047C484FF1FCC84FF1FF2
:4043C00047650040C684FF1F67650040054A137843F0010313701032137843F001031370704700BFA2430040014B1B685865704708ED00E04001C0B2014B1870704700BF92
:4044000005E400E02022014B1A60704700E100E02022014B1A60704780E100E010B50446FFF7F6FF2046FFF7DFFF0720FFF7E2FFFFF7E8FF10BD00BF044A137803F0FE03CB
:4044400000F0010018431070704700BF205100400230800803D000BF01380046FCD17047EFF3108072B6704780F31088704700BF80F0004002E000BF81F0004142001FBF05
:404480005FEA410392EA030F7FEA226C7FEA236C6AD04FEA1262D2EB1363C1BFD218414048404140B8BF5B42192B88BF704710F0004F40F4000020F07F4018BF404211F0E2
:4044C000004F41F4000121F07F4118BF494292EA030F3FD0A2F1010241FA03FC10EB0C00C3F1200301FA03F100F0004302D5494260EB4000B0F5000F13D3B0F1807F06D397
:4045000040084FEA310102F10102FE2A51D2B1F1004F40EBC25008BF20F0010040EA03007047490040EB000010F4000FA2F10102EDD1B0FA80FCACF1080CB2EB0C0200FA46
:404540000CF0AABF00EBC25052421843BCBFD0401843704792F0000F81F4000106BF80F400000132013BB5E74FEA41037FEA226C18BF7FEA236C21D092EA030F04D092F0EA
:40458000000F08BF0846704790EA010F1CBF0020704712F07F4F04D1400028BF40F00040704712F100723CBF00F50000704700F0004343F0FE4040F4000070477FEA226259
:4045C00016BF08467FEA23630146420206BF5FEA412390EA010F40F4800070474FF0000304E000BF10F0004348BF40425FEA000C08BF704743F0964301464FF000001CE0A5
:4046000050EA010208BF70474FF000030AE000BF50EA010208BF704711F0004302D5404261EB41015FEA010C02BF84460146002043F0B64308BFA3F18053A3F50003BCFAFB
:404640008CF2083AA3EBC25310DB01FA02FC634400FA02FCC2F12002BCF1004F20FA02F243EB020008BF20F00100704702F1200201FA02FCC2F1200250EA4C0021FA02F23E
:4046800043EB020008BF20EADC7070474FF0FF0C1CEAD0521EBF1CEAD15392EA0C0F93EA0C0F6FD01A4480EA010C400218BF5FEA41211ED04FF0006343EA501043EA5111CA
:4046C000A0FB01310CF00040B1F5000F3EBF490041EAD3715B0040EA010062F17F02FD2A1DD8B3F1004F40EBC25008BF20F00100704790F0000F0CF0004C08BF49024CEAF3
:40470000502040EA51207F3AC2BFD2F1FF0340EAC250704740F400004FF00003013A5DDC12F1190FDCBF00F000407047C2F10002410021FA02F1C2F1200200FA02FC5FEACB
:40474000310040F1000053EA4C0308BF20EADC70704792F0000F00F0004C02BF400010F4000F013AF9D040EA0C0093F0000F01F0004C02BF490011F4000F013BF9D041EA3F
:404780000C018FE70CEAD15392EA0C0F18BF93EA0C0F0AD030F0004C18BF31F0004CD8D180EA010000F00040704790F0000F17BF90F0004F084691F0000F91F0004F14D00B
:4047C00092EA0C0F01D142020FD193EA0C0F03D14B0218BF084608D180EA010000F0004040F0FE4040F40000704740F0FE4040F4400070474FF0FF0C1CEAD0521EBF1CEA93
:40480000D15392EA0C0F93EA0C0F69D0A2EB030280EA010C49024FEA402037D04FF0805343EA111143EA10130CF000408B4238BF5B0042F17D024FF4000C8B4224BF5B1AC6
:4048400040EA0C00B3EB510F24BFA3EB510340EA5C00B3EB910F24BFA3EB910340EA9C00B3EBD10F24BFA3EBD10340EADC001B0118BF5FEA1C1CE0D1FD2A3FF650AF8B429A
:4048800040EBC25008BF20F0010070470CF0004C4CEA50207F32C2BFD2F1FF0340EAC250704740F400004FF00003013A37E792F0000F00F0004C02BF400010F4000F013A69
:4048C000F9D040EA0C0093F0000F01F0004C02BF490011F4000F013BF9D041EA0C0195E70CEAD15392EA0C0F08D142027FF47DAF93EA0C0F7FF470AF084676E793EA0C0F39
:4049000004D14B023FF44CAF08466EE730F0004C18BF31F0004CCAD130F000427FF45CAF31F000437FF43CAF5FE700BF4FF0FF3C06E000BF4FF0010C02E000BF4FF0010C3A
:404940004DF804CD4FEA40024FEA41037FEA226C18BF7FEA236C11D001B052EA530C18BF90EA010F58BFB2EB030088BFC81738BF6FEAE17018BF40F0010070477FEA226CA1
:4049800002D15FEA402C05D17FEA236CE4D15FEA412CE1D05DF8040B704700BF844608466146FFE70FB5FFF7C9FF002848BF10F1000F0FBD4DF808EDFFF7F4FF0CBF01206A
:4049C00000205DF808FB00BF4DF808EDFFF7EAFF34BF012000205DF808FB00BF4DF808EDFFF7E0FF94BF012000205DF808FB00BF4DF808EDFFF7D2FF94BF012000205DF878
:404A000008FB00BF4DF808EDFFF7C8FF34BF012000205DF808FB00BF4FEA4002B2F1FE4F0FD34FF09E03B3EB12620DD94FEA002343F0004310F0004F23FA02F018BF4042C4
:404A400070474FF00000704712F1610F01D1420205D110F0004008BF6FF0004070474FF00000704742000ED2B2F1FE4F0BD34FF09E03B3EB126209D44FEA002343F0004346
:404A800023FA02F070474FF00000704712F1610F01D1420202D14FF0FF3070474FF00000704700BF10B500210446FFF78DFF20B92046BDE8104000F009B804F1004000F048
:404AC00005F8404261EB410110BD00BFD0B500F087F900220E4B06460F4600F0D5F900F0E5FB044600F05AF900220A4B00F0CCF902460B463046394600F012F800F0D6FB7C
:404B00002346002242EA000210461946D0BD00BF0000F03D0000F04181F0004102E000BF83F0004330B54FEA41044FEA430594EA050F08BF90EA020F1FBF54EA000C55EA25
:404B4000020C7FEA645C7FEA655C00F0E2804FEA5454D4EB5555B8BF6D420CDD2C4480EA020281EA030382EA000083EA010180EA020281EA0303362D88BF30BD11F0004F39
:404B80004FEA01314FF4801C4CEA113102D0404261EB410113F0004F4FEA03334CEA133302D0524263EB430394EA050F00F0A780A4F10104D5F1200E0DDB02FA0EFC22FAD9
:404BC00005F2801841F1000103FA0EF2801843FA05F359410EE0A5F120050EF1200E012A03FA0EFC28BF4CF0020C43FA05F3C01851EBE37101F0004507D54FF0000EDCF18D
:404C0000000C7EEB00006EEB0101B1F5801F1BD3B1F5001F0CD349085FEA30004FEA3C0C04F101044FEA445212F5800F80F09A80BCF1004F08BF5FEA500C50F1000041EBC4
:404C4000045141EA050130BD5FEA4C0C404141EB010111F4801FA4F10104E9D191F0000F04BF01460020B1FA81F308BF2033A3F10B03B3F120020CDA0C3208DD02F1140C02
:404C8000C2F10C0201FA0CF021FA02F10CE002F11402D8BFC2F1200C01FA02F120FA0CFCDCBF41EA0C019040E41AA2BF01EB0451294330BD6FEA04041F3C1CDA0C340EDC3B
:404CC00004F11404C4F1200220FA04F001FA02F340EA030021FA04F345EA030130BDC4F10C04C4F1200220FA02F001FA04F340EA0300294630BD21FA04F0294630BD94F061
:404D0000000F83F4801306BF81F480110134013D4EE77FEA645C18BF7FEA655C29D094EA050F08BF90EA020F05D054EA000C04BF1946104630BD91EA030F1EBF00210020B1
:404D400030BD5FEA545C05D14000494128BF41F0004130BD14F580043CBF01F5801130BD01F0004545F0FE4141F470014FF0000030BD7FEA645C1ABF194610467FEA655C0E
:404D80001CBF0B46024650EA013406BF52EA033591EA030F41F4002130BD00BF90F0000F04BF0021704730B54FF4806404F132044FF000054FF0000150E700BF90F0000FDE
:404DC00004BF0021704730B54FF4806404F1320410F0004548BF40424FF000013EE700BF42004FEAE2014FEA31014FEA02701FBF12F07F4393F07F4F81F06051704792F02D
:404E0000000F14BF93F07F4F704730B54FF4607401F0004521F0004120E700BF50EA010208BF704730B54FF000050AE050EA010208BF704730B511F0004502D5404261EBE5
:404E400041014FF4806404F132045FEA915C3FF4DCAE4FF003025FEADC0C18BF03325FEADC0C18BF033202EBDC02C2F1200300FA03FC20FA02F001FA03FE40EA0E0021FAF8
:404E800002F11444C1E600BF70B54FF0FF0C4CF4E06C1CEA11541DBF1CEA135594EA0C0F95EA0C0F00F0DEF82C4481EA030621EA4C5123EA4C5350EA013518BF52EA0335A5
:404EC00041F4801143F4801338D0A0FB02CE4FF00005E1FB02E506F00042E0FB03E54FF00006E1FB03569CF0000F18BF4EF0010EA4F1FF04B6F5007F64F5407404D25FEA86
:404F00004E0E6D4146EB060642EAC62141EA55514FEAC52040EA5E504FEACE2EB4F1FD0C88BFBCF5E06F1ED8BEF1004F08BF5FEA500E50F1000041EB045170BD06F0004699
:404F400046EA010140EA020081EA0301B4EB5C04C2BFD4EB0C0541EA045170BD41F480114FF0000E013C00F3AB8014F1360FDEBF002001F0004170BDC4F10004203C35DA6F
:404F80000C341BDC04F11404C4F1200500FA05F320FA04F001FA05F240EA020001F0004221F0004110EBD37021FA04F642EB06015EEA430E08BF20EAD37070BDC4F10C040A
:404FC000C4F1200500FA04F320FA05F001FA04F240EA020001F0004110EBD37041F100015EEA430E08BF20EAD37070BDC4F1200500FA05F24EEA020E20FA04F301FA05F227
:4050000043EA020321FA04F001F0004121FA04F220EA020000EBD3705EEA430E08BF20EAD37070BD94F0000F0FD101F00046400041EB010111F4801F08BF013CF7D041EA26
:40504000060195F0000F18BF704703F00046520043EB030313F4801F08BF013DF7D043EA0603704794EA0C0F0CEA135518BF95EA0C0F0CD050EA410618BF52EA4306D1D126
:4050800081EA030101F000414FF0000070BD50EA410606BF1046194652EA430619D094EA0C0F02D150EA013613D195EA0C0F05D152EA03361CBF104619460AD181EA0301FA
:4050C00001F0004141F0FE4141F470014FF0000070BD41F0FE4141F4780170BD70B54FF0FF0C4CF4E06C1CEA11541DBF1CEA135594EA0C0F95EA0C0F00F0A7F8A4EB0504A7
:4051000081EA030E52EA03354FEA013100F088804FEA03334FF0805545EA131343EA12634FEA022245EA111545EA10654FEA00260EF000419D4208BF964244F1FD0404F501
:40514000407402D25B084FEA3202B61A65EB03055B084FEA32024FF480104FF4002CB6EB020E75EB030E22BFB61A754640EA0C005B084FEA3202B6EB020E75EB030E22BF06
:40518000B61A754640EA5C005B084FEA3202B6EB020E75EB030E22BFB61A754640EA9C005B084FEA3202B6EB020E75EB030E22BFB61A754640EADC0055EA060E18D04FEAE2
:4051C000051545EA16754FEA06164FEAC30343EA52734FEAC2025FEA1C1CC0D111F4801F0BD141EA00014FF000004FF0004CB6E711F4801F04BF01430020B4F1FD0C88BFB3
:40520000BCF5E06F3FF6AFAEB5EB030C04BFB6EB020C5FEA500C50F1000041EB045170BD0EF0004E4EEA113114EB5C04C2BFD4EB0C0541EA045170BD41F480114FF0000EF1
:40524000013C90E645EA060E8DE60CEA135594EA0C0F08BF95EA0C0F3FF43BAF94EA0C0F0AD150EA01347FF434AF95EA0C0F7FF425AF104619462CE795EA0C0F06D152EAC1
:4052800003353FF4FDAE1046194622E750EA410618BF52EA43067FF4C5AE50EA41047FF40DAF52EA43057FF4EBAE12E74A0011D212F5001211D20DD56FF47873B3EB625275
:4052C0000ED44FEAC12343F0004343EA505323FA02F070474FF00000704750EA013002D14FF0FF3070474FF000007047014B1868704700BF4C81FF1F0E4B70B51E460E4CEB
:405300000025E41AA410A54204D056F8253098470135F8E700F050F8084B094C1E46E41AA4100025A54204D056F8253098470135F8E770BDC4530000C4530000C453000065
:40534000CC53000010B5431E0A44914204D011F8014B03F8014FF8E710BD03460244934202D003F8011BFAE77047000000000000005100401000305100404000F05100409F
:40538000100000000140001000140140000800400140000A004C0140000210500140100060520040340D00480600005001403C0D0048100043000000F8B500BFF8BC08BC8A
:4053C0009E4670474D000000B9380000F8B500BFF8BC08BC9E46704729000000F0530000C880FF1F8800000068070000000000000000000000009EC400009E440AD7A33B89
:40540000BFD401000000E02EC05D00001800000000366E010000000000000000000000000000000000000000000000000000000000000000B45300000000000000000000E9
:4054400000000000000000000000000000000000000000000000000000000000000000000000000000000000000000000000000000000000EC80FF1F0000000000000000A2
:4054800000000000000000000000000000000000000000000000000000000000000000000000000000000000000000000000000000000000000000000000000000000000EC
:4054C00000000000000000000000000000000000000000000000000000000000000000000000000000000000000000000000000000000000000000000000000000000000AC
:40550000000000000000000000000000000000000000000000000000000000000000000000000000000000000000000000000000000000000000000000000000000000006B
:40554000000000000000000000000000000000000000000000000000000000000000000000000000000000000000000000000000000000000000000000000000000000002B
:020000040003F7
:0200000480007A
:4000000001520040066400400365004040020140330301405C0401404C0501404C0601403A0701405E080140490901404B0A01403B0B01405B0C0140320D01404A0E014081
:40004000240F01404C140140391501404B160140471701404218014049190140541A01404E1B0140064001400941014008420140014301400745014003480140084C014034
:400080000B4D014006500140025101401180830F856F886F8B0F8E0D8F0D870F89728A3801CF033008100C010E02119E1207136014071573180119FD1A021B021E08221074
:4000C000240425942760280729302BC92E042F0F300F361037FF3E403F40580459045C095F01810282048A018D018E0890089101960298019C019F01A208A401AC01AD027B
:40010000B008B204B301B403B702B980BE01BF04D40FD604D804D904DB04DC99DD90DF010101030A042006010701081009010A200B010C100D800EA012A115011622171042
:4001400018201A881B101E821F022280232025802B012C102E202F2A32803302351036383701388039013E023F0159025A805B2460808080C0CBC2FFC4FDCA78CCE9CE89ED
:40018000D60FD801E6040101040E06F008960A680CC50E3A110114FE150116011A0120A3225C287F32FF350139203E043F104032410449FF4AFF4BFF4DA04F01501858042C
:4001C00059045A045D095F016040628064406540668068406A806C406D206E80811886018B028C019118950C99149E02A901AF01B001B102B202B31CB501B908BE01BF10FD
:40020000C032C104C52CC640C73EC83BC9FFCAFFCBFFCDAFCE07CF01D018D40FD804D904DA04DB04DC99DD99DF05E040E280E440E540E680E840EA80EC40ED20EE800329E6
:40024000048006200A080B200F02120813011A201E801F042004212024802501260827182C022F0430023208330435103608370139013E203F01400441044280430245282D
:4002800046804D014F045402562457015E825F18660467047E08841285018710920894809501962097019A089D109F15A020A201A312A501A608A729A912AC20B608C0A7CD
:4002C000C286C40ACA30CCE3CEA1D0E7D6F0D860DE20E64AEA020005010C020A0301043006C0080F0C0C0E031050110C12A0130214F0150718A0190B1A501B041C031E0C93
:40030000200A220524072508270128C02A302B0F2C7032F0340F370F580459045C995F018320850B870488028A018B108D0C8F02934095079A049B0F9D0C9F01A120A4011D
:40034000A602A720A801A908AA02AB01AC01AE02B110B320B403B540B604B70FBA20BF04D280D804D904DB04DC99DD90DF0101200408051007420A080C210E200F021110CC
:400380001222140216081705180819201B401C041D101E201F10214C22222303268027012B582F283282332435103705382639903F017001818484018880920895089721E7
:4003C00098129A089B049D109F01A020A310A508A728C0F2C2F2C4F7CA67CCEFCE8FE204E408020305080A0C0B050D08130114101B031E10200C21062203230124012606DC
:400400002706280129082A0E2E082F02330734103508360F39203A803B083E103F104043410249FF4AFF4BFF4DA04F015018540F580459045A045B045D995F0560406280A8
:4004400064406540668068406A806C406D206E8083018502890297019D02A601B201B302B501BF10C043C102C53EC6C4C702C81FC9FFCAFFCBFFCDAFCE07CF01D018D804F0
:40048000D904DA04DC09DD09DF01E040E280E440E540E680E840EA80EC40ED20EE80050206480C800E20101015411620171018201E092004210427142D512E092F2432402D
:4004C00033083502371039243B023C883D083E203FA0400841024304440845024604470448C049085140521853445C415D105E08650866107D08831087208A01904192047A
:400500009580964097809C049D019E049F01A004A102A213A510A628A741C050C2A0C4F4CAF0CCAACE77D0E7D6F0D860DE40E680404549FF4AFF4BFF4F0150185A045D091E
:400540005F016040624064406540668068806A806C806E808201840C850888188B088D018E0292209401950198189C149F08A220A302A420A801AF04B020B101B201B302B8
:40058000B41CB504B602B708B820B902BE05BF40C045C9FFCAFFCBFFCD83CE03CF01D018D280D40FD604D804D904DA04DB04DC99DD99DF01E040E240E440E540E680E88004
:4005C000EA80EC80EE80040407450D080E440F03164417081C1C1D021E021F20250C264027582E402F40360837403D283F804080448048024C025C145E805F016602764007
:40060000840486028D018E028F0490419204958098809C049F10A002A212A628A761AE04AF01B740C0F0C2F0C470CA90CC50CE70D081D218D6F0D880E640EA100018010BAA
:40064000020203040440050C070108100A02110C12201302161E17101B0F1C161D101E082018220425072601280E29082B012E403040310F3220341E360137103E013F403E
:40068000404549FF4AFF4BFF4D834E034F015018580459045A045C995D095F016040624064406540668068806A806C806E809E01A301AE01B001B501BB20C045C5ECC72041
:4006C000C823C9FFCAFFCBFFCD83CE03CF01D018D280D804D904DA04DB04DC99DD19DF01E040E240E440E540E680E880EA80EC80EE800520075008800C040F8210021580DF
:400700001608170919021C401D401E24200824012602274029022C042E082F203560362A37083E043F0240804480480249094C02500251017340810288048C04900895025F
:40074000974098809D09C070C2B1C4F1CA61CCF0CEC0D081D21803010F02120113011A013401350237013F404020410349FF4AFF4BFF4DA04F04501852805401580459045B
:400780005A045B045C115D915F01604062C06440654066C068C06AC06CC06EC083018601A101A601AE02B401B602B701BE10C020C103C5D0C620C710C82AC9FFCAFFCBFFAA
:4007C000CDAFCE0FCF04D018D405D804D904DA04DB04DC11DD11DF01E040E2C0E440E540E6C0E8C0EAC0ECC0EEC004040921162218081E081F8020042120224026402F8053
:40080000310239023B403E02408441024220452046204D015501562259095A805D015E887102C020C20AC4A0CA80CC01CE89D066D6DB055009020A010D240E040F40114099
:400840001408170C1C031D701F0920022141233024032D312F4430033204337C34083703380239803E114004454049FF4A074BFF4C404D204EF04F055008580459045A0420
:400880005C095F01604061A862406320800182028401860288048A088B028C048E08930194029601970898089A049B04A401A602A804AA08B102B203B301B40CB504B70886
:4008C000BA28D804D904DC99DF010030030104200752084009880E28108011081728186019181E281F28200221482510276A284029803080310935083712381039803B0418
:400900003D20404048104903841088018D109304941099809B119C019D02A080A184A401A728AC21AF01B404B582C0F3C265C46CCA09CCEBCE2ED001E008EA0204940660E8
:4009400007040A0F0B071030110412C914FD150116021702189E19071A6024732501270228CF29072A302F0830FF350F3E01580459045C905F0186028A018B058D038F0C46
:400980009503960197049C019D0A9F04A110A201A401A708AD03AF04B001B202B310B70FBB80BE01BF04C013C105C5EBC70CC813C9FFCAFFCBFFCEF0CF44D00CD401D60422
:4009C000D804D904DA04DB04DC09DF01E6C0EA40EB02001404080508070409880A200C210E20108011081410162818201A401F0221C0220425102704282029812C202E2000
:400A00002F0230803108340135083610381039803D203E084010418049814B04510859015A6863408304874090089420981099809A089B109C01A0A0A104A210A401A728AE
:400A4000AB58AF21B210B404C066C275C46CCA7BCCEACE6CD00AD208D60FD801E001EA04000101FE03010401057F11A3135C1596160117681801190E1BF01C0125C52602BB
:400A8000273A2F01300335FF3F10580459045C095F0180018110840287C6880389188C038DFF8E0C900F91E79318940F95C099399A039BC29C0C9D399E039FC4A008A14119
:400AC000A404A580A80CA908AF01B00FB1C0B320B71FBA02BB80BF04D602D712D804D904DB04DF010108038605020720082009800A200B400C040E040F0210A817081B023B
:400B00001E4021802205270829982B802E4431883210330634043502362A372039883A223B403C083F02402041045A0869346A8070B8711072228110820487408B12900431
:400B400091089204956496C097029C049D019E449F01A004A223A301A510A718A810B010B301B620C03FC2EFC42ECA5FCCEFCECFD602E208E8900444062A0701090413011D
:400B80001402150C16151821190C1ACA1B121D1C1F02210824672512270C28672B122D1E3018311C320733013460350E36803BA03E013F04406341014205440445E0470CFD
:400BC000481249FF4AFF4BFF4C624DA04EF04F41500C54185604580459045A045B045F016640670269106A306B106D106E106F128D018F029101930694019501970299029D
:400C00009A019B019E01A308AC01B201B303B504B708B808BB08D804D904DC90DF0101080320082009080A100D800F3411141580184019801A101B201F08214022162304D7
:400C400025402608272928022A222B102F403008318032123601372838283D804042414442204A024B1250045A0260046101628086C488208BA09024911C920293909580DD
:400C8000962097029A029D899E409F01A008A180A201A508A608A788B540B710C004C2E6C486CA8FCCEFCE16D00BD20CD601D80DE040E620E850EA02EE40310133803742FA
:400CC0003840CCF0CE1030808040834094409D019F42A780CC10E6A087808C808D019D019F02A480A780E6109F02522060108A208C10D404D802E00C87029F02E6400922D0
:400D00000C800E808480A640B240C20FEA041040750288408D02AD02B520C408DE04E002E201EE02100111011A011B011C011D0100FF010F80800000400000000301000011
:400D40000000000000010001010102018000408080008000000000003000C03B0B0000000000000000E3E300820000000000000000000000000000000000000000000000AE
:400D80000000000000000000000000000000000000000000000000000000000000000000000000000000000000000000000000000000000000000000000000000000000033
:400DC00000000000000000000000000000000000000000000000000000000000000000000000000000000000000000000000000000000000000000000000000000000000F3
:400E000000000000000000000000000000000000000000000000000000000000000000000000000000000000000000000000000000000000000000000000000000000000B2
:400E40000000000000000000000000000000000000000000000000000000000000000000000000000000000000000000000000000000000000000000000000000000000072
:0200000490006A
:0400000000004005B7
:0200000490105A
:04000000BC90ACAF55
:0200000490303A
:02000000684B4B
:0200000490402A
:4000000000000000000000000000000000000000000000000000000000000000000000000000000000000000000000000000000000000000000000000000000000000000C0
:400040000000000000000000000000000000000000000000000000000000000000000000000000000000000000000000000000000000000000000000000000000000000080
:400080000000000000000000000000000000000000000000000000000000000000000000000000000000000000000000000000000000000000000000000000000000000040
:4000C0000000000000000000000000000000000000000000000000000000000000000000000000000000000000000000000000000000000000000000000000000000000000
:0200000490501A
:0C00000000012E16106900012E3E78B49D
:00000001FF