:4000000000800020110000000D0F00000D0F000008B5044B1A6803F53F5302331A6000F07DFF00BFFA46004010B5054C237833B9044B13B10448AFF300800123237010BDC3
:400040004881FF1F000000008C1E0000084B10B51BB108490848AFF300800848036803B910BD074B002BFBD0BDE81040184700BF000000004C81FF1F8C1E0000C880FF1FAE
:400080000000000000B585B062B600F0BDF800F0B9FA00F097FD304B1B7813F0FF0F06D02E4B186800F0A8FF00222B4B1A702C4B1B7803F0FF0213B1012A03D046E000F0F5
:4000C0008DFDE8E7274B1B7813F0FF0F04D00022244B1A7000F0F8FB234B1B7813F0FF0F23D001F071FB214B1B680093204B1B680193204B1B6802931F4B1B680393002231
:40010000194B1A7001F064FB0421684601F030FB04210DEB010001F02BFB042102A801F027FB042103A801F023FB01F0FFFA0028B1D001F0F5FA7328ADD100F0C1FB002242
:40014000074B1A704B2001F0FDFAA4E700F0B8FB0022034B1A709EE7B182FF1FB482FF1FC882FF1F6481FF1FB082FF1FB882FF1FBC82FF1FC082FF1FC482FF1F10B50446BC
:40018000B0F59E6F01DD4FF49E6414F59E6F00DA114C002C09DD012001F06CFA002001F075FAA0B201F006FA10BD002C0ADA002001F060FA012001F069FA604280B201F04E
:4001C000F9F910BD002001F055FA002001F05EFA002001F0EFF910BD10FBFFFF08B5002001F048FA002001F051FA002001F0E2F908BD00BF08B500F0F9FE0122014B1A702F
:4002000008BD00BF6481FF1F10B501F025FAFFF7E5FF00F08DFF01F03DF800F04BFF054C606000F027FF044800F0D6FF00232370238110BD6481FF1FF501000038B505461C
:400240000C4600F0E9FF286000F034FF074A5368C31A5060B3F5004F01DB47F6FF7313F5004F00DA024B238038BD00BF6481FF1F0080FFFF70B505460E461446114601F0D2
:4002800075FD30B93146284601F052FD18B1304670BD204670BD284670BD00BF0138C0B203288CBF00200120704700BF0338C0B201288CBF00200120704700BFF8B50446BE
:4002C0000E46406801F096FB616B01F08BFA0546A76BA168304601F08DFB0146384601F081FA0746216A284601F084FB0146384601F076FA6063E76BE168304601F07AFBA2
:400300000146384601F06EFA0746616A284601F071FB0146384601F063FAA063276C2169304601F067FB0146384601F05BFA0746A16A284601F05EFB0146384601F050FAA5
:40034000E063676C6169304601F054FB0146384601F048FA0746E16A284601F04BFB0146384601F03DFA2064A169304601F042FB0646216B284601F03DFB0146304601F076
:400380002FFA60642846F8BDF8B504460D4616460968006E01F02EFB07466968606E01F029FB0146384601F01DFA05463146A06E01F020FB0146284601F014FAF8BD00BFBC
:4003C0002DE9F04104460D4617461E460968806C01F010FB80466968E06C01F00BFB0146404601F0FFF980463946A06D01F002FB0146404601F0F6F930602968206D01F0E3
:40040000F9FA80466968606D01F0F4FA0146404601F0E8F90546E16D384601F0EBFA0146284601F0DFF97060BDE8F08170B504460078FFF73BFF30B1D4F89010E06F01F0F2
:40044000D9FA054605E0D4F89410E06F01F0D2FA0546D4F88010606F01F0CCFA0646D4F88410A06F01F0C6FA0146304601F0BAF90146284601F0B4F970BD00BFF0B583B0EC
:4004800004460D461F4600F180063146FFF77CFF0146284601F0A4F905466B463A4631462046FFF78DFF009EE16E284601F0A2FA0146304601F096F9C4F88000019E216F2D
:4004C000284601F097FA0146304601F08BF9C4F8840003B0F0BD00BF70B504460D4600F18801FFF751FF0146284601F079F90646D4F88850E16E01F07DFA0146284601F094
:4005000071F9C4F88000D4F88C50216F304601F071FA0146284601F065F9C4F8840070BD10B582B004466B460A4600F18001FFF747FF009BC4F88830019BC4F88C3002B0D5
:4005400010BD00BFF8B504460E46D0F898700078052850D8DFE800F0030D2B0D2B4CD4F8940001F03DF901462046FFF7A7FE054642E0FFF79BFE78B13146D4F8940001F0D5
:400580002FF91F4B196801F035FA0146D4F8900001F028F9C4F890002046FFF747FF054603463A4631462046FFF768FF24E03A462046FFF791FF2078FFF778FE78B1314603
:4005C000D4F8940001F00CF90D4B196801F012FA0146D4F8900001F005F9C4F890002046FFF724FF054601462046FFF799FF03E0D4F8945000E00025C4F898502846F8BD8D
:40060000CC80FF1F10B54FF4A07200210C4801F034FC00230BE00A489A00D41861010624445401440122A1F89C201344DBB2012BF1D9034B002283F8402183F8412110BD09
:400640007081FF1F012807D8062900D9062100EB80004301014AD154704700BF7081FF1F012800F2EA80002900F0E7800F2A40F2E4802DE9F0410D46044606464FF07C5180
:40068000A86B01F0AFF801F0A1FB014600B9012104EB84025301694A1344A3F89C10EF6B4FF07C51384601F061FBD8B16449384601F048FBB0B139464FF07E5001F04EFA87
:4006C000604B18603946604801F048FA01F07EFB012800D802200138584BC3F84401012283F8412104EB84025301544AD05CA0B169E055F823705149B0003044C2001A4429
:4007000001EB82004760981D55F82000063201EB820250600133DBB200E00023052BE8D904EB84025301454A1344DF690021384601F0F4FA002838D14FF07E51384601F052
:40074000EDFA90B131E0B30033444FEAC308A8443A4B03EB88083946D8F8040001F0FEF9C8F804000135EDB200E00025052DEAD9012510E0B2003244D3002B4406332F4A23
:4007800002EB83083946D8F8040001F0E7F9C8F804000135EDB2052DECD904EB84025301264A13444FF07E52DA6104EB840463013033224A134400225A609A60DA601A61A7
:4007C0005A61BDE8F081FFF769FD002833D029681A48A60033195A01831899646A68DA64AA681A65EA685A652A699A656A69DA65AA691A66EA695A662A6A9A666A6ADA6625
:40080000AA6A1A67EA6A5A672A6B9A676A6BDA67321953018033C1180022C2504A6031194B018833C118C2504A603444630103440022C3F89020BDE8F08170477081FF1FE7
:4008400000401C46CC80FF1F001BB74B70B4002326E01A4C9900CA1855013035254400226A60AA60EA602A616A61CE1875018035661962517260CE18750188356619625107
:400880007260CE18750125440026C5F89060C5F8986019444D012C44A4F89E200133DBB2012BD6D9054BC3F894000022C3F83421002283F8402170BC704700BF7081FF1F88
:4008C00008B5FFF78BFC08BDF0B583B00DF1020101A8FFF7B3FCBDF9020001F037F8354901F088F8344B196801F038F90546019801F02CF8314901F07DF80646304BD3F87E
:40090000384193F8A030062B1AD02D4AB2F83E3101339BB2A2F83E31B2F83C2193420FD3274F0023A7F83E31014607F1A000FFF709FE04463B78062B02D03B46C3F894009D
:400940001F4B1B78062B0ED029461D48FFF7FAFD07461C4A1C49FFF78DFC01F011FA00B2FFF70CFC13E0164B93F8A030062B0BD0144A15492046FFF77DFC074601F000FAE3
:4009800000B2FFF7FBFB02E0FFF728FC002700F01BFF0B4BC3F84871C3F84C51C3F85041C3F85461012283F8402100F011FF03B0F0BD00BFFBF7C53BCC80FF1FBEB5243A43
:4009C0007081FF1F00009E4400009EC408B501E000F0A6FE00F0AAFE0028F9D108BD00BF38B50546002405E0012000F083FD0134AC4206D200F09AFE0028F5D000F090FEA4
:400A000038BDFF2038BD00BF08B500F09BFE08BD70B582B0064600250135EDB2322D37D800240BE04FF4FA70FFF7DAFF02AB234403F8040CFF282DD00134E4B2032CF1D946
:400A4000002407E002AB234413F8040CFFF7DCFF0134E4B2032CF5D94FF4FA70FFF7C0FFFF2819D041280FD19DF8043033709DF8053073709DF80630B3709DF80730F370B2
:400A8000FFF7C2FF012008E04E20FFF7BDFFC3E7002002E0002000E0002002B070BD00BF2DE9F04383B007460E464FF00008454625E000230193741BA4B2042C00D904242B
:400AC00001A8FFF7A5FF814690B908F101085FFA88F8B8F1020F12D9FFF778FF13E0EA1802A9194411F8041CB95401339BB200E000239C42F3D82C44A5B24FF00008B54251
:400B0000D7D34FF00109484603B0BDE8F08300BF10B582B004465220FFF776FF04210DEB0100FFF7BDFF18B92120FFF76DFF07E09DF804102046FFF785FD4B20FFF764FF16
:400B400002B010BD10B5B2B004465220FFF75CFF64210DEB0100FFF7A3FF18B92120FFF753FF0DE064220DEB0201684601F07AF9192269462046FFF773FD4B20FFF744FF78
:400B800032B010BD00B583B05220FFF73DFF04210DEB0100FFF784FF18B92120FFF734FF0AE0019B00930098FFF750FE4B20FFF72BFF0122024B1A7003B05DF804FB00BFE8
:400BC000C882FF1F08B500F09DFDFFF7FFFE0022014B1A7008BD00BFC882FF1F08B500F0A5FD002852D000F09BFD313842284AD8DFE800F0363A4949494949494949494958
:400C00004949494949494949494949494949494949494949494949494949494949494949494949493E42494949494949464949494949494949222D00FFF742FEFFF7C6FE6D
:400C40000022134B1A704B20FFF7DEFE08BDFFF737FE00220E4B1A704B20FFF7D5FE08BD0020FFF755FF08BD0120FFF751FF08BD0020FFF767FF08BD0120FFF763FF08BD65
:400C8000FFF780FF08BD2120FFF7BEFE08BD00BFC882FF1FFEE700BFF0B40022174611E050F82760F3B226F0FF0608E001EB420511F812406D78A5550132013BDBB2002B58
:400CC000F4D10137242FEBD9F0BC7047064B1B78DBB203F00701054A11701B09013213704422034B1A707047CF0100496E5800407658004008B50A46002101F0BEF808BDAB
:400D000038B51722254B1A801823254A1370192502321580023213700222224B1A7008224FF040231A70032103F5007319701E4B1B78DBB21D490B701D4B1A8041F25122FD
:400D4000023B1A8000240CE01A4B1B7803F0010343EA440404F003044FF4F07000F02CFD013D0DB1032CEFD115B90320FFF792FF114B4FF480721A8007221A7000220F49B6
:400D80000A704820023108701A700222033B1A700B4A137843F00303137038BD80400040824000400043004008010049A1460040224200402542004004400040064000404C
:400DC000A243004008B501F04DF808BD38B572B6394A137843F00403137000240CE0374D630019194A0011462A44084691882858FFF780FF0134E4B2062CF0D900240BE0CD
:400E00002E48A20011194B0003449A8E196BD86AFFF7D8FF0134E4B2012CF1D928494FF09040FFF739FF274A274B1A60274A137843F0020313701032137843F00203137017
:400E4000234C237843F040032370A2F58632513A137843F0100313700A221E491E48FFF7B1FF0A221D491E48FFF7ACFF08221D491D48FFF7A7FF08221C491D48FFF7A2FFDD
:400E80000A221C491C48FFF79DFF1C4A137843F0080313701A4D61232B70FFF731FF81232B700122174B1A70FFF710FF0E2221461548FFF787FF38BDE8460040901E000079
:400EC0009400004804040444D808014003500140A0430040A40C004800510040B00C0048C0510040BC0C004812510040C40C004822510040CC0C004830510040224300400C
:400F00000048004004000840B043004008B500F07DFF03680C2B00D1FEE7FEE708B5104E104D16E029686B68AC68002204E051F8040B43F8040B0432A242F8D1E868002261
:400F400003E0002143F8041B04328242F9D11035013E002EE6D100F05FFFFFF793F8FEE701000000F81E000008B5104A104B1A60104A136843F40073136000230AE0032B02
:400F800003D80D4A52F8231000E00C490C4A42F8231001332F2BF2D90A4B1A780A4B1A70074A0A4B1A60FFF711FF08BD0004FA050CED00E014ED00E0000000000D0F0000A7
:400FC0000080FF1FBC760040C080FF1F08ED00E0024A137843F080031370704777650040014B1870704700BF88640040014B1878704700BF6864004008B50146014800F0BA
:40100000BBFA08BD26650040024B186820F07F40704700BF4665004008B50146014800F0ABFA08BD0665004008B501E0FFF7ECFFFFF7DCFF10F0080FF8D108BD10B50B4C0B
:401040002046FFF7D9FF2046FFF7E6FF00F0BCFB074A137843F01003137000F0B9FBFFF7E3FF0120FFF7BCFF10BD00BFBFD401009864004008B5054B1B7823B9FFF7DEFFB6
:401080000122024B1A70FFF7A3FF08BDC982FF1F08B50122054B1A600549002000F040FA0721002000F050FA08BD00BF80E100E06511000010B50124064B1C6000F03EF993
:4010C000A0F5004000B2044B1B68044A1460184410BD00BF80E100E0CC82FF1F00E100E0024B187800F00F00704700BF6B64004040F00700014B1870704700BF8B6400406E
:4011000008B50F20FFF7F4FFFFF7EAFF00F05CFB054A137843F01003137000F059FB0122024B1A6008BD00BF9B64004000E100E008B500F055F94FF4004000F0F9F80022DE
:40114000064B1A60064B1B7823B9FFF7A1FF0122034B1A70FFF7D4FF08BD00BFCC82FF1FCA82FF1F0D4B1B78DBB213F0010F06D00B490A6802F5FF427F320A6007E013F0CC
:40118000020F04D006490A68A2F500420A6013F0040F02D00022024B1A6070476B640040CC82FF1F014B1B689864704708ED00E04001C0B2014B1870704700BF02E400E029
:4011C0000422014B1A60704700E100E00422014B1A60704780E100E010B50446FFF7F6FF2046FFF7DFFF0720FFF7E2FFFFF7E8FF10BD00BF08B50222054B1A6005490120F2
:4012000000F08EF90721012000F09EF908BD00BF80E100E0C912000010B50224064B1C6000F006F9A0F5004000B2044B1B68044A1460184410BD00BF80E100E0D482FF1F68
:4012400000E100E0024B187800F00F00704700BF6C64004040F00700014B1870704700BF8C64004008B50F20FFF7F4FFFFF7EAFF00F0AAFA054A137843F01003137000F0BF
:40128000A7FA0222024B1A6008BD00BF9C64004000E100E008B500F01DF94FF4004000F0C1F80022064B1A60064B1B7823B9FFF7A1FF0122034B1A70FFF7D4FF08BD00BFA3
:4012C000D482FF1FD082FF1F0D4B1B78DBB213F0010F06D00B490A6802F5FF427F320A6007E013F0020F04D006490A68A2F500420A6013F0040F02D00022024B1A60704735
:401300006C640040D482FF1F024A137843F080031370704778640040014B1870704700BF89640040014B1878704700BF69640040014B1880704700BF10680040024B1B787E
:40134000024B188880B270470864004090680040014B188880B2704790680040014B1880704700BF50680040014B1880704700BF7068004008B501E0FFF7EAFFFFF7D2FF9E
:4013800010F0400FF8D108BD08B5134B1A7802F0F8021A701A7802F0FC021A70FFF7EAFF4FF40040FFF7DAFF4FF40040FFF7C0FF0020FFF7B1FFFFF7B5FF4FF40040FFF7CF
:4013C000D3FF00F001FA054A137843F01003137000F0FEF908BD00BF786400409964004008B5054B1B7823B9FFF7CEFF0122024B1A70FFF789FF08BDD882FF1F024A1378FE
:4014000043F08003137070477C640040014B1870704700BF84640040014B1878704700BF64640040014B1880704700BF0C680040024B1B78024B188880B270470664004062
:401440008C680040014B188880B270478C680040014B1880704700BF4C680040014B1880704700BF6C68004008B501E0FFF7EAFFFFF7D2FF10F0400FF8D108BD08B5134B37
:401480001A7802F0F8021A701A7802F0FC021A70FFF7EAFF4FF40040FFF7DAFF4FF40040FFF7C0FF0020FFF7B1FFFFF7B5FF4FF40040FFF7D3FF00F087F9054A137843F077
:4014C0001003137000F084F908BD00BF7C6400409464004008B5054B1B7823B9FFF7CEFF0122024B1A70FFF789FF08BDD982FF1F01BE704710B5044605E0084B186800F0EB
:401500005BF9A4F50044B4F5004FF6D8034B586800FB04F000F050F910BD00BFD080FF1F70B504460E46074B1D681F2802D90020FFF7DEFF04F01F04103455F8240045F8CC
:40154000246070BD08ED00E038B504460D46072902D90020FFF7CCFF1F2C02D90020FFF7C7FF04F01F0000F1604000F564406D01EDB2057038BD00BFCBB20370C1F307232C
:401580004370C1F307418170704700BF024A137843F08003137070477D640040014B1880704700BF18680040014B1880704700BF98680040014B1880704700BF586800401F
:4015C000014B1870704700BF8A640040014B1878704700BF6A640040014B188880B27047B868004008B501E0FFF7F6FFFFF7EEFF10F0100FF8D108BD08B5154A137803F02B
:40160000C00343F0090313701F32137843F0010313700132137843F0010313704FF49E60FFF7BCFF4FF49E60FFF7BEFF0020FFF7C1FF0020FFF7C4FF00F0C6F8054A1378FA
:4016400043F01003137000F0C3F8FFF7CBFF08BD7D6400409A64004008B5054B1B7823B9FFF7CAFF0122024B1A70FFF78FFF08BDDA82FF1F044A137803F0BF03800100F01B
:40168000400018431070704720510040044A137803F0DF03400100F02000184310707047205100407222084B1A70202201331A700622A3F25F131A70472210331A700022E3
:4016C0004C331A70704700BF8965004010B500F07BF804460A4A137843F0200313700132137843F010031370A2F20312137843F01003137000F050F8204600F069F810BDD3
:401700009965004008B5054B1B7823B9FFF7CAFF0122024B1A70FFF7D9FF08BDDB82FF1F014B1878704700BF4A650040044B1B7813F0200F01D0012070470020704700BF94
:401740006A650040024B1B780BB1024B18707047DB82FF1F44650040034B1B7813F0040FFAD1024B187070476764004044650040084B1B7833B97047305DFFF7EDFF01345F
:40178000E4B203E070B50D4606460024AC42F3D370BD00BFDB82FF1F054A137843F0020313701032137843F002031370704700BFA2430040000000000230800803D000BFA9
:4017C00001380046FCD17047EFF3108072B6704780F31088704700BF80F0004002E000BF81F0004142001FBF5FEA410392EA030F7FEA226C7FEA236C6AD04FEA1262D2EB43
:401800001363C1BFD218414048404140B8BF5B42192B88BF704710F0004F40F4000020F07F4018BF404211F0004F41F4000121F07F4118BF494292EA030F3FD0A2F1010251
:4018400041FA03FC10EB0C00C3F1200301FA03F100F0004302D5494260EB4000B0F5000F13D3B0F1807F06D340084FEA310102F10102FE2A51D2B1F1004F40EBC25008BF45
:4018800020F0010040EA03007047490040EB000010F4000FA2F10102EDD1B0FA80FCACF1080CB2EB0C0200FA0CF0AABF00EBC25052421843BCBFD0401843704792F0000F5D
:4018C00081F4000106BF80F400000132013BB5E74FEA41037FEA226C18BF7FEA236C21D092EA030F04D092F0000F08BF0846704790EA010F1CBF0020704712F07F4F04D15A
:40190000400028BF40F00040704712F100723CBF00F50000704700F0004343F0FE4040F4000070477FEA226216BF08467FEA23630146420206BF5FEA412390EA010F40F4F4
:40194000800070474FF0000304E000BF10F0004348BF40425FEA000C08BF704743F0964301464FF000001CE050EA010208BF70474FF000030AE000BF50EA010208BF7047BD
:4019800011F0004302D5404261EB41015FEA010C02BF84460146002043F0B64308BFA3F18053A3F50003BCFA8CF2083AA3EBC25310DB01FA02FC634400FA02FCC2F120024E
:4019C000BCF1004F20FA02F243EB020008BF20F00100704702F1200201FA02FCC2F1200250EA4C0021FA02F243EB020008BF20EADC7070474FF0FF0C1CEAD0521EBF1CEA4D
:401A0000D15392EA0C0F93EA0C0F6FD01A4480EA010C400218BF5FEA41211ED04FF0006343EA501043EA5111A0FB01310CF00040B1F5000F3EBF490041EAD3715B0040EAD7
:401A4000010062F17F02FD2A1DD8B3F1004F40EBC25008BF20F00100704790F0000F0CF0004C08BF49024CEA502040EA51207F3AC2BFD2F1FF0340EAC250704740F4000066
:401A80004FF00003013A5DDC12F1190FDCBF00F000407047C2F10002410021FA02F1C2F1200200FA02FC5FEA310040F1000053EA4C0308BF20EADC70704792F0000F00F066
:401AC000004C02BF400010F4000F013AF9D040EA0C0093F0000F01F0004C02BF490011F4000F013BF9D041EA0C018FE70CEAD15392EA0C0F18BF93EA0C0F0AD030F0004C46
:401B000018BF31F0004CD8D180EA010000F00040704790F0000F17BF90F0004F084691F0000F91F0004F14D092EA0C0F01D142020FD193EA0C0F03D14B0218BF084608D15C
:401B400080EA010000F0004040F0FE4040F40000704740F0FE4040F4400070474FF0FF0C1CEAD0521EBF1CEAD15392EA0C0F93EA0C0F69D0A2EB030280EA010C49024FEA6A
:401B8000402037D04FF0805343EA111143EA10130CF000408B4238BF5B0042F17D024FF4000C8B4224BF5B1A40EA0C00B3EB510F24BFA3EB510340EA5C00B3EB910F24BFEC
:401BC000A3EB910340EA9C00B3EBD10F24BFA3EBD10340EADC001B0118BF5FEA1C1CE0D1FD2A3FF650AF8B4240EBC25008BF20F0010070470CF0004C4CEA50207F32C2BFFB
:401C0000D2F1FF0340EAC250704740F400004FF00003013A37E792F0000F00F0004C02BF400010F4000F013AF9D040EA0C0093F0000F01F0004C02BF490011F4000F013BD9
:401C4000F9D041EA0C0195E70CEAD15392EA0C0F08D142027FF47DAF93EA0C0F7FF470AF084676E793EA0C0F04D14B023FF44CAF08466EE730F0004C18BF31F0004CCAD1CF
:401C800030F000427FF45CAF31F000437FF43CAF5FE700BF4FF0FF3C06E000BF4FF0010C02E000BF4FF0010C4DF804CD4FEA40024FEA41037FEA226C18BF7FEA236C11D070
:401CC00001B052EA530C18BF90EA010F58BFB2EB030088BFC81738BF6FEAE17018BF40F0010070477FEA226C02D15FEA402C05D17FEA236CE4D15FEA412CE1D05DF8040B2D
:401D0000704700BF844608466146FFE70FB5FFF7C9FF002848BF10F1000F0FBD4DF808EDFFF7F4FF0CBF012000205DF808FB00BF4DF808EDFFF7EAFF34BF012000205DF813
:401D400008FB00BF4DF808EDFFF7E0FF94BF012000205DF808FB00BF4DF808EDFFF7D2FF94BF012000205DF808FB00BF4DF808EDFFF7C8FF34BF012000205DF808FB00BFF9
:401D80004FEA4002B2F1FE4F0FD34FF09E03B3EB12620DD94FEA002343F0004310F0004F23FA02F018BF404270474FF00000704712F1610F01D1420205D110F0004008BF62
:401DC0006FF0004070474FF00000704742000ED2B2F1FE4F0BD34FF09E03B3EB126209D44FEA002343F0004323FA02F070474FF00000704712F1610F01D1420202D14FF0AF
:401E0000FF3070474FF00000704700BF014B1868704700BF4081FF1F0E4B70B51E460E4C0025E41AA410A54204D056F8253098470135F8E700F04EF8084B094C1E46E41A41
:401E4000A4100025A54204D056F8253098470135F8E770BDE01E0000E01E0000E01E0000E81E000010B5431E0A44914204D011F8014B03F8014FF8E710BD0346024493423F
:401E800002D003F8011BFAE77047000000000000405100403000F0510040100000000140001000140140000800400140000A004C01400002105001401000000060520040A4
:401EC0008C0C0048060000500140940C0048100043000000F8B500BFF8BC08BC9E4670474D000000690F0000F8B500BFF8BC08BC9E46704729000000081F0000C880FF1FB7
:401F00008000000098010000000000000AD7A33B0000E02EC05D00001800000000366E010000000000000000000000000000000000000000000000000000000000000000E1
:401F4000D01E000000000000000000000000000000000000000000000000000000000000000000000000000000000000000000000000000000000000000000000000000073
:401F8000E080FF1F000000000000000000000000000000000000000000000000000000000000000000000000000000000000000000000000000000000000000000000000A3
:401FC00000000000000000000000000000000000000000000000000000000000000000000000000000000000000000000000000000000000000000000000000000000000E1
:4020000000000000000000000000000000000000000000000000000000000000000000000000000000000000000000000000000000000000000000000000000000000000A0
:402040000000000000000000000000000000000000000000000000000000000000000000000000000000000000000000000000000000000000000000000000000000000060
:402080000000000000000000000000000000000000000000000000000000000000000000000000000000000000000000000000000000000000000000000000000000000020
:020000040003F7
:0200000480007A
:4000000001520040076400400265004001010140050301404904014047050140690601404B0701405F08014054090140520A0140470B01405A0C0140380D0140010F0140FD
:4000400059140140461501406F16014049170140511801404D190140521A0140501B01400640014006410140024201400143014003450140034601400147014002480140E5
:4000800004490140064C0140084D014006500140015101401180846F870F880D896F8A0D8B0F8C0F89728A38E601808084088A20E202E60301960368050E060407F0080225
:4000C00009C50B3A0C0210011402170119A31B5C1C102008217F22012602280829FE2A102B012C023001321033FF3406360838803E053F04540F580459045B045C095D901B
:400100005F058194836085CF860787308A808B0F94609530960497C998379C019E02A061A202A404A573A857A9FDAB02AD9EAE08AF60B1FFB20FB470B680B820BF01D80462
:40014000D904DC09DF01000801800308062409040A910D200E100F0210011284130815101680174819091A0A1B101C301D201E011F2022082740284029222C012D102E808B
:400180002F2A3008322036043708380839023B103C103D083E203F0259596104621078408010811082808608881089019880A008A202A304A620AE02B704C067C2EDC4FF04
:4001C000CA75CC46CEE7D60FD806DE08E008E401E840EA0200070807099E0B600D300FC911731207140115941602176019CF1B3020042401260229FD2A042B022E082F0FAF
:40020000300F31FF3F014056410449FF4AFF4BFF4DA04F015018580459045A045C095D095F016040628064406540668068406A806C406D206E808001860289968B6891C597
:40024000933A95A3975C997FA001A204A701A801A9FEAB01AD0EAE02AFF0B004B202B401B5FFB820BE10BF10C052C104C52EC6C4C703C81FC9FFCAFFCBFFCDAFCE07CF01B2
:40028000D018D401D804D904DA04DB04DC09DD19DF01E040E280E440E540E680E840EA80EC40ED20EE800102032005220D020F1010021284150217581A9C1D021F01200820
:4002C000274029802B192D202F01301031203218330235023620371838203C803F1041024204450249044A824E0650805214580159485B208282854089088C80940895025D
:400300009680971098809DA69E14A120A202A314A404A504A6A4A70BA804AD40B120B205B708C05CC230C4FBCA3ECCE7CE34D085D238D60FE201E60CEC01EE080201080118
:40034000090212101601182619061A181C061D061E28201422282301242626082A2A2F01301E3101320134203504370239A03A023E143F414035410449FF4AFF4BFF4DA09F
:400380004F01501852805401580459045A045B045C915D995F016040628064406540668068406A806C406D206E808201910196019F03B102B301B401BE10BF04C031C1048A
:4003C000C542C6C3C70EC81FC9FFCAFFCBFFCDAFCE07CF01D018D40FD804D904DA04DB04DC90DD99DF05E040E280E440E540E680E840EA80EC40ED20EE8001020510074065
:400400000A200DD00EA0140815011640170418041C801D081F202205244B25102F823281341036A03D103E204001410A450B49014A204C01529458905A085B015C405F05EB
:40044000621477407910800883058720884089108D048E0190809220940895209684978098089A609B149C029DA49E019F20A101A210A440A544A64CAA01AF20B101B230A3
:40048000B310B702C058C2F4C470CA90CC39CE20D0CBD210D6DFD806DE04E440E620E8B0EC800002070108030C030D02160117021B011F0229023301340335023820392033
:4004C0003A023E103F045405580459045B045C115F0181DC83228514862088018C208D108FAC9109921893D0950C960697719A209B039E10A018A110A206A340A402A61C55
:40050000A802AA0CAB20AE01B020B31FB401B5E0B61EBA80BB20BE11C006C540C9FFCA07CBFFCC40CD20CEF0CF05D008D40FD604D804D904DA04DB04DC11DD91DF01E0401E
:40054000E1A8E240E320008202400304040805800708080809080C010D280E800F0115201641170418801B101C421F202214271429202C802F0831103248340137143880CA
:400580003A043C823E044C804F215508570859015A485C405F266480662067048101860189208A2092409502960197A099119A049B089C829D04A544A625AE04B610C0EBFF
:4005C000C2F4C4F0CAA4CCEECEDAD220D6FBD880E020E48002010308070109020D0211041204150416021B041C011F10210422042404270229042E013004310C3202330279
:400600003401350137103E113F044060410249FF4AFF4BFF4DA04F0450185280540F5604580459045A045B045C995D905F01604062C06440654066C068C06AC06CC06EC0EC
:400640008602920198049B01A606B004B202B401B501C020C106C5D1C702C813C9FFCAFFCBFFCDAFCE0FCF04D018D280D804D904DA04DB04DF01E040E2C0E440E540E6C0FF
:40068000E8C0EAC0ECC0EEC00004064009220D880F80102015021788180419101A501B101E841F082120259027A82D202F5030203504362137803DA83E013F8040044604D3
:4006C000482049014A084F20520C5C025E885F206740710276408108830887C089209C80C014C2BAC4B4CAE0CCF4CEF0D024D224D6F0D880E020E2018080001C043C05201A
:400700000704080109300A020B080C140E2810021201133C14281614170219301B041C011E022001211C22022430260C280C292C2A302B102E402F0130033101333C343C57
:40074000364037023A024031410446BE47C0482C49FF4AFF4BFF4EF04F44500C580459045A045C995D015F0166C06A406B0281018302850287018E08910493089508960437
:40078000970499049A019B089D019F02A504A708AD01AE02AF02B002B208B303B404B50CB601BB28D804D904DC99DF0100A40102020A060108800A400B100E24116012A0DE
:4007C0001780180419601A411B011E261F0222802390242825142604271829622E042F02322A3611378838083B103D083E01410842825020510153408120820185018B10A8
:400800008D0291409428979098809A829D229F18A050A108A220A420A604A701A940AD80AF08B020B621C08FC26DC48FCA5DCCF7CEC6D00BE403EE0403F0041805C0060603
:400840000720080A090C0A140B010C140D080E0A0F01110C1302141E15801710190B1A011B041C061E181F0F2107240E257029B02B402DC02F10321E33F03401350F4056BE
:4008800049FF4AFF4BFF4F015018580459045A045C995D095F016040624064406540668068806A806C806E8081028301861E88168A088C188E04900191019302940E9901B1
:4008C0009A409B029E20A010A202A304A418A501A602A702B01EB103B201B304B420B640BB02BE04C052C9FFCAFFCBFFCD83CE03CF01D018D280D804D904DA04DB04DC995D
:40090000DD99DF01E040E240E440E540E680E880EA80EC80EE80031A04A0072008010A260B800C400E200F0A104011081410188019081A021B121D101E241F0820A021017E
:4009400025042628272028802B102C102D022F0A3110320135A0360539023C803D083F12432048024C024E047002860487208802922094289502971098909A829C019D2A53
:400980009F08A108A304A442A504A62CA72BAA10B102B520B720C0E7C2EFC42CCAF3CCF5CEF1D004D238E60803010D011501160119042D0234013504370339803F10402404
:4009C00045EC4602480749FF4AFF4BFF4D834E034F015018580459045A045C195D095F016040624064406540668068806A806C806E80830184038518881389088A0C8C1FF7
:400A00008DFF900F921093E6940C9539961397C4980299809C019D10A008A141A404A5C0A80CA9E7AB18AD19AE13AFE2B01CB1C0B31FB40FB538BA22BB08D602D713D8044F
:400A4000D904DB04DC11DD10DF010040012804C0085009080A880E2010A1121013501520160419201A801B011D102118220925202640284029282A022B012F0130913108BF
:400A80003714388A3A103C803D01440446404F05564057805B026802691470A47310878088048B028D209084910193029684978599019B149C809DB29F21A040A111A23065
:400AC000A580A64CA782B140B402B544C007C22FC40FCA1FCC6FCE9FD0A0D601E480E810EC20EE1004440502062A09020D04110214021504161518211ACA1B011D042308C0
:400B000024672701286729042D08301831023207330134603508368037043E013F54406541014202440445E046C0480A49FF4AFF4BFF4C624DA04EF04F41500C541858043D
:400B400059045A045B045C115D115F016640670269106A306B106D106E106F12810182018B019102940C98069B069C0A9D01A40CB001B104B301B40EB60EB702B8A0BF445C
:400B8000D804D904DC99DF010320050108200A100E0A0F2011141508184219081A181B201E881F822008220823422602272129A12A042B023002312832403662388039949E
:400BC0003D224040415049224B4051205A026004624082018580864888A489048A028B408F809084913492829402960897C099219A049C809D8A9E029F23A002A119A220B4
:400C0000A310A580A604B204B710C014C2E6C426CA0FCCBFCEAED00DD20CD601D80CE240E480E810EC20EE043102324036208240CC70E68003208620A502A620C010E640F2
:400C4000A502B720A50262048110D802A510B604EC08A510A902EA8005018101C020E02009100F088C02A510C203E402104074028840A002AB04C408DE04E2011002110137
:400C80001A021B011C021D01003F0000808000004000000003010000000000000000020103010101010000010000000000000000800040808000800000000000C00B0B001C
:400CC0000000000000E0E0008000000002000002000000000000000000000000000000000000000000000000000000000000000000000000000000000000000000000000B0
:400D000000000000000000000000000000000000000000000000000000000000000000000000000000000000000000000000000000000000000000000000000000000000B3
:400D40000000000000000000000000000000000000000000000000000000000000000000000000000000000000000000000000000000000000000000000000000000000073
:400D80000000000000000000000000000000000000000000000000000000000000000000000000000000000000000000000000000000000000000000000000000000000033
:400DC00000000000000000000000000000000000000000000000000000000000000000000000000000000000000000000000000000000000000000000000000000000000F3
:0200000490006A
:0400000000004005B7
:0200000490105A
:04000000BC90ACAF55
:0200000490303A
:020000009AC89C
:0200000490402A
:4000000000000000000000000000000000000000000000000000000000000000000000000000000000000000000000000000000000000000000000000000000000000000C0
:400040000000000000000000000000000000000000000000000000000000000000000000000000000000000000000000000000000000000000000000000000000000000080
:400080000000000000000000000000000000000000000000000000000000000000000000000000000000000000000000000000000000000000000000000000000000000040
:4000C0000000000000000000000000000000000000000000000000000000000000000000000000000000000000000000000000000000000000000000000000000000000000
:0200000490501A
:0C00000000012E16106900012E26AB3105
:00000001FF