:400000000080002011000000690500006905000008B5044B1A6803F53F5302331A6000F0C3FA00BFFA46004010B5054C237833B9044B13B10448AFF300800123237010BDDE
:400040008081FF1F00000000CC3E0000084B10B51BB108490848AFF300800848036803B910BD074B002BFBD0BDE81040184700BF000000008481FF1FCC3E0000C880FF1F7E
:400080000000000010B500F05BFB084C23682060C01A00F0E3FE064900F034FF054900F0E5FF606000F0E8FA10BD00BF9C81FF1F000070426666264110B500F0CFFE04468D
:4000C0000D4900F01FFF0D4900F012FE0146204600F018FF0A4900F00DFE0146204600F011FF084900F006FE0146204600F00AFF054900F0FDFD10BDBF24C72D3FC081331D
:4001000000AE3F383128D33A516B5A3F10B50446134900F0F7FE134900F0ECFD0146204600F0F0FE104900F0E3FD0146204600F0E9FE0E4900F0DEFD0146204600F0E2FE83
:400140000B4900F0D7FD01F02DF800B2B0F59E6F01DD4FF49E60002800DA002010BD00BF2AA4E1BD86D88140D3EAF541CC1F0443FB2BFA4210B50446B0F59E6F01DD4FF42C
:400180009E6414F59E6F00DA114C002C09DD012000F0B2FC002000F0BBFCA0B200F04CFC10BD002C0ADA002000F0A6FC012000F0AFFC604280B200F03FFC10BD002000F0A7
:4001C0009BFC002000F0A4FC002000F035FC10BD10FBFFFF2DE9F04796B062B600F07EFC00F0ECFA00F0D0FC00F08AFA374800F039FB374800F0F8FC364800F0F5FC3648A3
:4002000000F0F2FC354800F0EFFC0024A0460027264600F0C7FC054610B30D2801D00A2814D1EEB116AB3344002603F8086C14A800F0DEFF00F008FD0746FFF767FF8046B4
:40024000FFF798FF264800F0CFFC09E0062E07D800F0BEFC731C16AA164406F8085CDEB20134A4B2312C2CD9384600F09BFF044600F0F4FD0146384600F03AFD194900F029
:4002800041FE0546184BD3F804904046FFF714FF8246284600F086FF0546504600F082FF0290484600F07EFF0190CDF800802B4622460E4904A800F0DFFF04A800F094FC2D
:4002C00000240A2000F058FBA3E700BF85000000D03E0000E83E00000C3F0000303F0000543F0000000020419C81FF1F583F0000FEE700BFF0B40022174611E050F8276064
:40030000F3B226F0FF0608E001EB420511F812406D78A5550132013BDBB2002BF4D10137242FEBD9F0BC7047064B1B78DBB203F00701054A11701B09013213704422034B40
:400340001A707047CF0100496E5800407658004008B50A46002100F086FF08BD38B51722254B1A801823254A1370192502321580023213700222224B1A7008224FF04023A5
:400380001A70032103F5007319701E4B1B78DBB21D490B701D4B1A8041F25122023B1A8000240CE01A4B1B7803F0010343EA440404F003044FF4F07000F036FC013D0DB182
:4003C000032CEFD115B90320FFF792FF114B4FF480721A8007221A7000220F490A704820023108701A700222033B1A700B4A137843F00303137038BD8040004082400040A8
:400400000043004008010049A146004022420040254200400440004006400040A243004008B500F015FF08BD38B572B6394A137843F00403137000240CE0374D63001919B7
:400440004A0011462A44084691882858FFF780FF0134E4B2062CF0D900240BE02E48A20011194B0003449A8E196BD86AFFF7D8FF0134E4B2012CF1D928494FF09040FFF775
:4004800039FF274A274B1A60274A137843F0020313701032137843F002031370234C237843F040032370A2F58632513A137843F0100313700A221E491E48FFF7B1FF0A225C
:4004C0001D491E48FFF7ACFF08221D491D48FFF7A7FF08221C491D48FFF7A2FF0A221C491C48FFF79DFF1C4A137843F0080313701A4D61232B70FFF731FF81232B7001222C
:40050000174B1A70FFF710FF0E2221461548FFF787FF38BDE8460040843F00009400004804040444D808014003500140A0430040A40C004800510040B00C0048C051004052
:40054000BC0C004812510040C40C004822510040CC0C004830510040224300400048004004000840B043004008B500F045FE03680C2B00D1FEE7FEE708B5094B1A6810445C
:40058000084BC31A802B02DC054B186005E000F033FE0C2303604FF0FF32104608BD00BFCC80FF1FC081FF1F08B5104E104D16E029686B68AC68002204E051F8040B43F890
:4005C000040B0432A242F8D1E868002203E0002143F8041B04328242F9D11035013E002EE6D100F00FFEFFF7F5FDFEE7010000008841000008B5104A104B1A60104A1368B7
:4006000043F40073136000230AE0032B03D80D4A52F8231000E00C490C4A42F8231001332F2BF2D90A4B1A780A4B1A70074A0A4B1A60FFF7F9FE08BD0004FA050CED00E0EE
:4006400014ED00E000000000690500000080FF1FBC760040C080FF1F08ED00E0024A137843F080031370704777650040014B1870704700BF88640040014B1878704700BF3D
:400680006864004008B50146014800F0B7F908BD26650040024B186820F07F40704700BF4665004008B50146014800F0A7F908BD0665004008B501E0FFF7ECFFFFF7DCFF17
:4006C00010F0080FF8D108BD10B50B4C2046FFF7D9FF2046FFF7E6FF00F0AEFA074A137843F01003137000F0ABFAFFF7E3FF0120FFF7BCFF10BD00BF7FA903009864004055
:4007000008B5054B1B7823B9FFF7DEFF0122024B1A70FFF7A3FF08BDA481FF1F08B50122054B1A600549002000F03CF90721002000F04CF908BD00BF80E100E0F107000059
:4007400010B50124064B1C6000F0B4F8A0F5004000B2044B1B68044A1460184410BD00BF80E100E0A881FF1F00E100E0024B187800F00F00704700BF6B64004040F0070042
:40078000014B1870704700BF8B64004008B50F20FFF7F4FFFFF7EAFF00F04EFA054A137843F01003137000F04BFA0122024B1A6008BD00BF9B64004000E100E008B500F0E1
:4007C000CBF84FF4004000F06FF80022064B1A60064B1B7823B9FFF7A1FF0122034B1A70FFF7D4FF08BD00BFA881FF1FA581FF1F0D4B1B78DBB213F0010F06D00B490A681F
:4008000002F5FF427F320A6007E013F0020F04D006490A68A2F500420A6013F0040F02D00022024B1A6070476B640040A881FF1F014B1B689864704708ED00E04001C0B2AA
:40084000014B1870704700BF02E400E00422014B1A60704700E100E00422014B1A60704780E100E010B50446FFF7F6FF2046FFF7DFFF0720FFF7E2FFFFF7E8FF10BD00BF85
:40088000024A137843F080031370704778640040014B1870704700BF89640040014B1878704700BF69640040014B1880704700BF10680040024B1B78024B188880B27047B7
:4008C0000864004090680040014B188880B2704790680040014B1880704700BF50680040014B1880704700BF7068004008B501E0FFF7EAFFFFF7D2FF10F0400FF8D108BD22
:4009000008B5134B1A7802F0F8021A701A7802F0FC021A70FFF7EAFF4FF40040FFF7DAFF4FF40040FFF7C0FF0020FFF7B1FFFFF7B5FF4FF40040FFF7D3FF00F07DF9054AAF
:40094000137843F01003137000F07AF908BD00BF786400409964004008B5054B1B7823B9FFF7CEFF0122024B1A70FFF789FF08BDAC81FF1F01BE704710B5044605E0084B5F
:40098000186800F051F9A4F50044B4F5004FF6D8034B586800FB04F000F046F910BD00BFD080FF1F70B504460E46074B1D681F2802D90020FFF7DEFF04F01F04103455F85D
:4009C000240045F8246070BD08ED00E038B504460D46072902D90020FFF7CCFF1F2C02D90020FFF7C7FF04F01F0000F1604000F564406D01EDB2057038BD00BFCBB2037035
:400A0000C1F307234370C1F307418170704700BF024A137843F08003137070477D640040014B1880704700BF18680040014B1880704700BF98680040014B1880704700BFCC
:400A400058680040014B1870704700BF8A640040014B1878704700BF6A640040014B188880B27047B868004008B501E0FFF7F6FFFFF7EEFF10F0100FF8D108BD08B5154A34
:400A8000137803F0C00343F0090313701F32137843F0010313700132137843F0010313704FF49E60FFF7BCFF4FF49E60FFF7BEFF0020FFF7C1FF0020FFF7C4FF00F0BCF8EC
:400AC000054A137843F01003137000F0B9F8FFF7CBFF08BD7D6400409A64004008B5054B1B7823B9FFF7CAFF0122024B1A70FFF78FFF08BDAD81FF1F044A137803F0BF0376
:400B0000800100F0400018431070704720510040044A137803F0DF03400100F02000184310707047205100407222084B1A70202201331A700622A3F25F131A7047221033A9
:400B40001A7000224C331A70704700BF8965004010B500F071F804460A4A137843F0200313700132137843F010031370A2F20312137843F01003137000F048F8204600F0F2
:400B80005FF810BD9965004008B5054B1B7823B9FFF7CAFF0122024B1A70FFF7D9FF08BDAE81FF1F084B1B78DBB213F0200F06D0064A1078C0B213F01E0F02D1704700201F
:400BC00070470020704700BF6A6500404A650040034B1B7813F0040FFAD1024B18707047676400404465004038B5074B1B782BB938BDFFF7EDFF0134A4B201E00546002400
:400C0000285D0028F5D138BDAE81FF1F054A137843F0020313701032137843F002031370704700BFA24300400230800803D000BF01380046FCD17047EFF3108072B67047A7
:400C400080F31088704700BF4FEA4102B2F1E04324BFB3F5001CDCF1FE5C0DD901F0004C4FEAC0024CEA5070B2F1004F40EB830008BF20F00100704711F0804F21D113F1DA
:400C80003872BCBF01F00040704741F480114FEA5252C2F11802C2F1200C10FA0CF320FA02F018BF40F001004FEAC1234FEAD32303FA0CFC40EA0C0023FA02F34FEA4303A3
:400CC000CCE77FEA625307D150EA01331EBF4FF0FE4040F44000704701F0004040F0FE4040F40000704700BF80F0004002E000BF81F0004142001FBF5FEA410392EA030FD1
:400D00007FEA226C7FEA236C6AD04FEA1262D2EB1363C1BFD218414048404140B8BF5B42192B88BF704710F0004F40F4000020F07F4018BF404211F0004F41F4000121F01E
:400D40007F4118BF494292EA030F3FD0A2F1010241FA03FC10EB0C00C3F1200301FA03F100F0004302D5494260EB4000B0F5000F13D3B0F1807F06D340084FEA310102F13E
:400D80000102FE2A51D2B1F1004F40EBC25008BF20F0010040EA03007047490040EB000010F4000FA2F10102EDD1B0FA80FCACF1080CB2EB0C0200FA0CF0AABF00EBC25042
:400DC00052421843BCBFD0401843704792F0000F81F4000106BF80F400000132013BB5E74FEA41037FEA226C18BF7FEA236C21D092EA030F04D092F0000F08BF0846704729
:400E000090EA010F1CBF0020704712F07F4F04D1400028BF40F00040704712F100723CBF00F50000704700F0004343F0FE4040F4000070477FEA226216BF08467FEA2363D9
:400E40000146420206BF5FEA412390EA010F40F4800070474FF0000304E000BF10F0004348BF40425FEA000C08BF704743F0964301464FF000001CE050EA010208BF7047B3
:400E80004FF000030AE000BF50EA010208BF704711F0004302D5404261EB41015FEA010C02BF84460146002043F0B64308BFA3F18053A3F50003BCFA8CF2083AA3EBC2530B
:400EC00010DB01FA02FC634400FA02FCC2F12002BCF1004F20FA02F243EB020008BF20F00100704702F1200201FA02FCC2F1200250EA4C0021FA02F243EB020008BF20EA58
:400F0000DC7070474FF0FF0C1CEAD0521EBF1CEAD15392EA0C0F93EA0C0F6FD01A4480EA010C400218BF5FEA41211ED04FF0006343EA501043EA5111A0FB01310CF0004079
:400F4000B1F5000F3EBF490041EAD3715B0040EA010062F17F02FD2A1DD8B3F1004F40EBC25008BF20F00100704790F0000F0CF0004C08BF49024CEA502040EA51207F3AEF
:400F8000C2BFD2F1FF0340EAC250704740F400004FF00003013A5DDC12F1190FDCBF00F000407047C2F10002410021FA02F1C2F1200200FA02FC5FEA310040F1000053EAA8
:400FC0004C0308BF20EADC70704792F0000F00F0004C02BF400010F4000F013AF9D040EA0C0093F0000F01F0004C02BF490011F4000F013BF9D041EA0C018FE70CEAD153F9
:4010000092EA0C0F18BF93EA0C0F0AD030F0004C18BF31F0004CD8D180EA010000F00040704790F0000F17BF90F0004F084691F0000F91F0004F14D092EA0C0F01D14202B2
:401040000FD193EA0C0F03D14B0218BF084608D180EA010000F0004040F0FE4040F40000704740F0FE4040F4400070474FF0FF0C1CEAD0521EBF1CEAD15392EA0C0F93EABF
:401080000C0F69D0A2EB030280EA010C49024FEA402037D04FF0805343EA111143EA10130CF000408B4238BF5B0042F17D024FF4000C8B4224BF5B1A40EA0C00B3EB510F82
:4010C00024BFA3EB510340EA5C00B3EB910F24BFA3EB910340EA9C00B3EBD10F24BFA3EBD10340EADC001B0118BF5FEA1C1CE0D1FD2A3FF650AF8B4240EBC25008BF20F072
:40110000010070470CF0004C4CEA50207F32C2BFD2F1FF0340EAC250704740F400004FF00003013A37E792F0000F00F0004C02BF400010F4000F013AF9D040EA0C0093F0B2
:40114000000F01F0004C02BF490011F4000F013BF9D041EA0C0195E70CEAD15392EA0C0F08D142027FF47DAF93EA0C0F7FF470AF084676E793EA0C0F04D14B023FF44CAF22
:4011800008466EE730F0004C18BF31F0004CCAD130F000427FF45CAF31F000437FF43CAF5FE700BF4FEA4002B2F1FE4F0FD34FF09E03B3EB12620DD94FEA002343F00043A3
:4011C00010F0004F23FA02F018BF404270474FF00000704712F1610F01D1420205D110F0004008BF6FF0004070474FF000007047002100F089BE0000014B1868704700BF3F
:401200004081FF1F0E4B70B51E460E4C0025E41AA410A54204D056F8253098470135F8E702F0A0FF084B094C1E46E41AA4100025A54204D056F8253098470135F8E770BD77
:401240007041000070410000704100007841000010B5431E0A44914204D011F8014B03F8014FF8E710BD03460244934202D003F8011BFAE7704700000EB400B54FF4027129
:401280009CB0ADF814106FF00041049107914FF6FF711DAB02900690084853F8042BADF81610006802A9019301F008FE029B00221A701CB05DF804EB03B070474081FF1FD2
:4012C0002DE9F0410F46904601F00EFC04460D46B8F1000F11D0C7F30A53C3F16B03002B0BDD1B0503F17F55002405F5401522462B4602F009FBBDE8F08120462946BDE845
:40130000F0810000000000002DE9F04F82460C469DB00023139218934FF000084FF000091791179B1A780D2A05D8092A13D2002A00F0AD8112E02B2A04D02D2A04D0202A8E
:401340000CD108E0002200E001220C925A1C17925B782BB99BE101331793E2E700230C93179D2B78302B5CD16B78582B01D0782B4CD10C9BA84A019318AB009317A919AB4D
:40138000504600F014FE10F00706044600F08585062E05D10135002317950C9300F07DBD189A3AB135211AA801F085FC1899504601F009F9062E22D8DFE806F0040D0818EF
:4013C0001D0D04004FF00009C84618E0DDF86880DDF86C9013E01B9B199A23F4801302F23342DDF8688043EA025908E0DFF82C924FF0000803E06FF000494FF0FF38210742
:4014000040F14B8549F0004900F047BD179B5A1C17925B78302BF9D0002B00F03E85012300E000230593179B0A22069300239B4602930493179D2E78A6F13003D9B2092948
:4014400011D8BBF1080FD5BF0499029902FB013302FB013305F10105D4BF049302930BF1010B1795E6E7504601F074F80768504601F070F8006801F0C1FF394602462846B7
:4014800001F0C4FF074628B1002033465D46024601465AE0504601F05DF8006801F0AEFF179B1A1817921B5CBBF1000F45D15846302B05D1179B01305A1C17925B78F7E714
:4014C000A3F13102082A46D8179A0692024600200546303B00F1010129D00A44294605EB000C0A2661450FD0013101F1FF3EBEF1080F03DC049F77430497F3E71029DEBF66
:40150000029F77430297EDE72844082800F1010505DC04980A2101FB0033049306E0102DDFBF02980A2101FB003302930021179B581C17905B78084602E05D4638463A4606
:40154000A3F130010929C4D90121652B01D0452B4FD16DB904E0652B40F0AD840022012128B9059B002B00F09280054600E00025179C631C179363782B2B06D02D2B02D07A
:401580000026039606E0012300E000230393A31C1793A378A3F13006092E29D8302B04D1179B5E1C17965B78F8E7A3F13106082E1FD8A3F1300E179B1F46179B5E1C1796CE
:4015C0005B78A3F1300CBCF1090F05D80A2606FB0E3EAEF1300EF0E7F61B082E44F61F6602DC7645A8BF7646039F1FB1764201E017940026002D52D1002840F04E84059ABE
:40160000002A40F04A84002941D14E2B20D007DC492B0AD03BE000BFE83F00000000F07F692B02D06E2B13D031E0AA4917A800F0EFFE60B3179BA849013B17A8179300F070
:40164000E7FE10B9179B01331793DFF8A8921AE0A24917A800F0DCFEC8B1179B1B78282B0FD11AAA9E4917A800F0E5FE052808D11B9BDDF8688043F0FF4949F4E00900F075
:401680000CBCDFF874924FF0000800F006BC139B1794002B00F00C8400230C93FFE32C46BBF1000F08BFAB460498102DA8BF1024B71A02F0B3F8092C8046894613DD894B8F
:4016C00003EBC40353E9122302F01EF980460298894602F0A3F802460B464046494601F061FF804689460F2D33DC002F00F0D58322DD162F07DC7B4D424605EBC7014B46E9
:40170000D1E9000113E0C5F125039F4221DC754CC5F10F0504EBC5017D1B4246D1E900014B4604EBC50402F0EFF8D4E9002302F0EBF880468946B0E317F1160F09DB694D5E
:401740004046A5EBC703D3E90023494602F006FAEFE72C1B3C44002C5DDD14F00F010AD0604B424603EBC101D1E900014B4602F0CBF88046894634F00F0400F0C180B4F5AE
:401780009A7F0FDD4FF0000BCDF808B0CDF814B0CDF810B02223CAF80030DFF858914FF0000889E14046494600234F4E24110293012C0CDDE20704D5D6E9002302F0A4F8C0
:4017C0000123029A6410013202920836F0E70BB180468946444B029AA9F1547903EBC201D1E9000142464B4602F08EF821F0004389460A461B0D3D491B058B428046C1D88C
:40180000A1F580118B4286BFDFF8F0904FF0FF3802F1547974E073D0644214F00F020AD0304B404603EBC2034946D3E9002302F095F980468946241162D01F2C08DD4FF0A9
:40184000000BCDF808B0CDF814B0CDF810B02CE14046494614F0100F0CBF00236A23244E03930023002C09DDE20704D5D6E9002302F04AF8012364100836F3E70BB18046CB
:401880008946039BEBB1C9F30A53C3F16B03002B494616DD1F2B0EDD342BDEBF203B4FF0FF3202FA03F34FF00008CCBF4FF05C7903EA010905E04FF0FF3202FA03F303EA38
:4018C0000808002200234046494602F085FA0028B5D117E0DC3F0000DF3F0000E53F0000C83F000030400000084100000000A07C004000000000F07F0000F8FFFFFFEF7F1D
:4019000000230393049B5A46009306992B46504600F0ABFE059000283FF434AF002FC7F10003A8BF00230D934FF0000B27EAE7731293CDF808B0059B5046596800F00EFE2C
:40194000049000283FF426AF059B0C301A6903F10C0102329200FFF77BFC1AAB019319AB009342464B465046CDE9088901F02DF9189000283FF40EAF0121504600F000FFEC
:40198000029000283FF406AF199B0399002BACBF0D9A129A1A9CACBFD618D21AA3EB01032344B14903F1FF33ACBF129A0D9E8B42C4F1360480F28580C91A1F29C8BFAB4D99
:4019C0004FF00107D4BF07FA01F3ED1AA4EB0104D9BF0793002507FA05F507973719039BBE4214441C443346A8BF3B46A342A8BF2346002BC2BFFF1AE41AF61A0D9B002B2B
:401A000063D1002F7ADC129B002B40F08180002C00F38880002E00F38F80049A1899504601F003F8834600283FF4B4AEC3680024C4600299069300F0DCFFA04280F28B8065
:401A4000069B002B40F00282B8F1000F40F0FE81C9F31303002B40F0F98129F000431B0D1B05B3F1D66F40F2F181DBF81430002B6CD059460122504600F06AFF0299834614
:401A800000F0B7FF002840F3E18129F00043039A1B0D1B05002A00F08D80B3F1D66F00F38980B3F15C7F00F3D38122234FF000084FF00009CAF80030059B002B40F0D98195
:401AC000EBE101230025079388E71A460299504600F0F0FE029000283FF45CAE0146189A504600F056FE069000283FF453AE1899504600F068FD069B189382E73A4618991B
:401B0000504600F025FF189000287FF47CAF41E6129A0499504600F0CDFE049000287FF476AF37E622460499504600F011FF049000287FF46FAF2DE632460299504600F0C7
:401B400007FF029000287FF468AF23E6DBF81030012B8EDC7AE161D1069AC9F3130322B343494A468B422ED1039B414663B1414B1340B3F1D46F07D81B0DC3F16B034FF046
:401B8000FF3000FA03F301E04FF0FF338B421AD139498A4202D101333FF4FCAD354B4FF00008134003F5801950E163B9B8F1000F09D16AE7A3F580136FEA13594FF0FF388A
:401BC0006FEA095942E115B115EA090F02E0079B13EA080F00F03A81069B039A4046494653B1FFF76DFB02460B46DDE9080101F0D9FC8046894629E1FFF762FB02460B4679
:401C0000DDE9080101F0CCFC002200238046894602F0E2F800287FF448AF17E10299584601F021F800224FF0804306460F4602F0E7F800283FD0069B13B100260F4F10E003
:401C4000B8F1000F03D1C9F313033BB91AE0B8F1010F03D1B9F1000F3FF427AF084F00260024064D3CE000BF02FCFFFFE2FBFFFFFFFF0F000000F07FFFFFEF7F0000F03F0C
:401C80000000F0BF00229A4B3046394602F0AEF840B90022974B3046394601F035FE04460D4601E0069C934D05F1004314941593DDE9146714E08F4B00223046394601F02B
:401CC00023FE069B04460D4623B901F100430E900F9303E002460B46CDE90E23DDE90E6729F000431B0D1B050793079A824B9A422BD1DDE90823A9F1547940464946CDE9EF
:401D00000A2300F0F1FE02460B463046394601F0FBFD42464B4601F045FC21F000431B0D764A1B05934280460CD9754B0B9A9A4203D10A9B01333FF42DADDFF8C4914FF093
:401D4000FF3872E001F1547939E0039B3BB3079BB3F1D46F23D85EA3D3E900232046294602F04EF8B8B12946204602F08FF8002808BF012001F052FD069B04460D4623B9E4
:401D800001F100431090119303E002460B46CDE91023DDE91067079A07F1D6639F1ADDE9080100F0A1FE02460B463046394601F0ABFDDDE9082301F0F5FB80468946039BF3
:401DC0009BBB29F000431B0D079A1B059A424E462BD12946204602F031F801F02FFD0B4602462946204601F0DBFB069B04460D462BB9B8F1000F02D1C9F313067EB136A310
:401E0000D3E900232046294601F0F0FF88BB34A3D3E900232046294602F006F804E032A3D3E9002301F0E2FF18BB1899504600F0CAFB0499504600F0C6FB0299504600F012
:401E4000C2FB5946504600F0BEFB74E5039B83B12C4B40460B9300230A934946DDE90A2301F052FD8046894619B910B92223CAF800301899504600F0A6FB0499504600F01D
:401E8000A2FB0299504600F09EFB0599504600F09AFB5946504600F096FB139B13B1179B139A13600C9B1BB1424609F1004307E042464B4604E000252A460121FFF747BB4D
:401EC000104619461DB0BDE8F08F00BFAFF300800000C0FFFFFFDF419535A094FFFFDF3F35E5AF350000E03F9535A094FFFFCF3F0000F03F0000E03F0000E07FFFFF9F7C77
:401F0000FFFFEF7F00005039024B0A4601461868FFF7FAB94081FF1FF0B506694B11B34200F1140527DA11F01F0105EB860605EB830201D1294616E0141D55F823202B46D5
:401F4000C1F1200ECA40B44209D2276807FA0EF73A4343F8042B54F8042BCA40F3E71A6052B1043308E0B2420B4605D252F8043B41F8043BF7E72B465B1B9B10036103B982
:401F80004361F0BDA0F13003092B01D820380AE0A0F16103052B01D8473804E0A0F14103052B02D82738C0B27047002070472DE9F04F8BB08A4690460693029000F0CAFA09
:401FC00003684FF0000B1846039301F017FA039B0190034413F8013C0793DAF8003002331F4613F8010B302802D10BF1010BF7E7FFF7C8FF0446E0B9019A0399384601F0D4
:4020000005FA002834D1019BF85CFE18FFF7BAFF80B3334618781F46302803F10103F9D0FFF7B0FFB0FA80F534466D094FF0010B01E000252C463A46164630780132FFF7E1
:40204000A1FF0028F8D1019A0399304601F0DEF950B954B9019BF4182246164630780132FFF790FF0028F8D134B1A41BA40003E03E4600E0044601253378502B01D0702BF6
:402080002AD173782B2B08D02D2B03D0711C4FF0000905E04FF0010901E04FF00009B11C0878FFF76FFF431EDBB2182B14D8A0F1100211F8010FFFF765FF431EDBB2182BA0
:4020C00004D80A2303FB0202103AF2E7B9F1000F00D05242144400E03146CAF800102DB1BBF1000F14BF002006207CE12946F31B013B072B02DD01315B10FAE7029800F033
:402100002DFA4FF000090546CB46019B00F1140AC3F10103CDF810A00893B7422FD2731E0593079A16F8013C93420BD0BBF1200F16D1049BC3F8009004334FF000090493E0
:40214000CB460DE0059B089A13449F42EED81846019A0399099301F059F9099B68B1E5E716F8010CFFF70EFF00F00F0000FA0BF0059B49EA00090BF1040B1E46CDE7049877
:4021800040F8049BCAEB0000801028614701484600F0A9FAD8F80060381AB04226DD871B3946284600F0A1FDC8B17B1E591103F01F024FF001095AF8211009FA02F20A42DE
:4021C0000ED04B4502DC4FF0020909E0B91E284600F08BFD0028F6D04FF0030900E0814639462846FFF798FE3C440CE009DA371A29463A46029800F0ABFB0546E41B00F150
:40220000140A4FF00009D8F808309C4208DD0298294600F0D8F9149A00231360A320E2E0D8F80400844253DA041BA6422EDCD8F80C30022B1AD0032B1CD0012B1DD1A642C3
:402240001BD1012E0BDCD8F80430069A6220136001232B61CAF80030149B1D60C3E0711E284600F042FD0028EDD106E0159B002BE9D002E0159B002BE5D10298294600F05A
:40228000A2F9149A002313605020ACE0671EB9F1000F06D13FB13946284600F026FD814601E04FF001097A11012307F01F0703FA07F75AF8223021461F42284618BF49F09C
:4022C0000209361BFFF728FE0227D8F8044000E00127B9F1000F00F08180D8F80C30022B0ED0032B10D0012B76D119F0020F73D0DAF8000049EA000919F0010F07D16BE038
:40230000159BC3F101031593159B002B64D0D5F810A005F114034FEA8A0903EB090100201A68B2F1FF3F02D001321A6020E043F8040B9942F4D8AB689A4512DB69680298F3
:40234000013100F00BF983462A6905F10C01023292000C30FEF77CFF2946029800F033F95D462B695A1C2A6105EB830301225A61022F05F1140211D1D8F80030013B9E427A
:4023800027D17111012306F01F0603FA06F652F821301E420CBF022701271AE02B699A450ADA01212846FFF7B7FDD8F8083001349C423FF72CAF0BE016F01F0608D09144DA
:4023C00059F8040C00F08FF9C6F12006B042E8DB012747F0200701E047F010073846149B1D60069B1C600BB0BDE8F08FC2F10802920070B5C2F120064368056803FA06F4BB
:402400002C43D340046040F8043F8842F4D370BD30B5036811F8014B01334CB11A78A2F14105192D98BF2032A242F3D0002030BD0360012030BD0B682DE9F04F5E1102EB04
:40244000860613F01F0318BF0436351F174600228246A8462C46914685B0D0F800B0019346F8042C00921BF8011F00293CD0084603920291FFF786FD039A00BB02992029F4
:4024800016D8009B9945EEDD444505D2072A03DC41462046FFF7AAFFBC4223D90023A4F1040844F8043CCDF8009044461A46DAE7292948D10BF10103CAF8003014E0013230
:4024C000082A09F1010906DDBC42CCD9002344F8043C0122043C216800F00F0040EA01102060C0E70822BEE7B9F1000F2BD0444505D2072A03DC41462046FFF777FFBC42EA
:402500000CD93B4654F8042BA54243F8042BF9D2002243F8042B9D42FBD20BE0019B4BB1C3F120024FF0FF33D34056F8042C134046F8043C2B6843B9BD4202D101232B602A
:4025400003E0043DF6E7042000E0052005B0BDE8F08F0000004870474481FF1F70B5456A04460E463DB9102000F066FF6062456085600560C560656AEB6843B1636ADB688D
:4025800053F8260078B1026843F8262017E021220421204600F0CBFB636AE860DB68002BECD1002070BD012101FA06F56A1D9200204600F0BCFB0028F3D0466085600023B7
:4025C0000361C36070BD70B5446A06460D463CB9102000F031FF7062446084600460C4603DB1736A6A68DB6853F82210296043F8225070BD2DE9F04106460C460D691F460E
:4026000001F1140E0023DEF80000013381B202FB0171000C0F0C02FB007089B201EB00419D424FEA10474EF8041BECDCD7B1A3689D4212DB616830460131FFF78FFF804605
:40264000226904F10C01023292000C30FEF700FE21463046FFF7B7FF444604EB850301355F6125612046BDE8F0812DE9F843064615461F46092208330C4693FBF2F30021AD
:4026800001229A4202DA52000131FAE73046FFF765FF089B092D43614FF00103036111DD04F10908C1462C4419F8013B0146303B0A223046FFF79EFFA145F5D108EB05049F
:4026C000083C01E00A3409252D1B63199F4208DD14F8013B0146303B0A223046FFF78AFFF3E7BDE8F883030C1B0413B90004102300E0002310F07F4F04BF0002083310F0A8
:40270000704F04BF0001043310F0404F04BF80000233002803DB420003D5581C70471846704720207047036813F007020BD0D90722D49A074BBF5B089B08036003604CBFD7
:4027400001200220704799B209B91B0C102213F0FF0F04BF1B0A0832190704BF1B090432990704BF9B080232D90702D45B0805D001320360104670470020704720207047F0
:4027800010B50C460121FFF7E9FE01224461026110BD2DE9F74F14460A69236988469A42BEBF0B46A0461C46D8F81070D4F81090D8F80830D8F8041007EB09069E42C8BF86
:4027C0000131FFF7CBFE00F114052B4605EB860C0022634502D243F8042BFAE704F1140208F1140102EB890301EB87070093009B0192934257D9B2F800B0BBF1000F23D028
:402800008946AE464FF0000859F8044BBEF800A0A3B20BFB03A34FEA144ADEF8004043444FEA14480BFB0A84F24604EB13449BB243EA04434F454FEA14484AF8043B01D977
:40284000D646E1E7CEF80480019B0432B3F802A0BAF1000F21D02C4689462B684FF00008B9F800E0B4F802B09BB20AFB0EBEA346F04443EA08434BF8043B59F8043BB4F8E5
:4028800004E01B0C0AFB03E34F4503EB18434FEA134801D95C46E3E763600435A7E75CF8043D13B9013E002EF9DC066103B0BDE8F08F00002DE9F843154612F00302064601
:4028C0000F4607D0214C013A002354F82220FFF791FE0746AD1036D0746A3CB9102000F0ABFD7062446084600460C460D6F82480D8F808404CB940F271213046FFF740FF43
:4029000004460023C8F8080003604FF00008EB070AD5394622463046FFF73BFF814639463046FFF750FE4F466D100CD0206808B10446ECE7224621463046FFF72AFF20602A
:40294000C0F80080F4E73846BDE8F883F84000002DE9F0470C460746914626694FEA621A56444968A368751CAB4202DA01315B00FAE73846FFF7F2FD002380461A4600F1AC
:402980001401534503DA41F823200133F9E72AEAEA73206901EB830319F01F0904F1140101EB800E14D0C9F1200C002208689A4600FA09F0024343F8042B51F8042B8E45B3
:4029C00022FA0CF2F2D8CAF8042042B1B51C06E0043B51F8042B8E4543F8042FF9D8013D3846C8F810502146FFF7EDFD4046BDE8F08703690A6910B59B1A11D192001430C4
:402A0000143183180A4453F8044D52F8041D8C4202D007D3012010BD9842F4D3002010BD184610BD4FF0FF3010BD2DE9F8430C460746114620461546FFF7DBFF061E08D130
:402A400031463846FFF78AFD012303614661BDE8F883BCBF23462C4638466168BABF1D4601260026FFF77AFD2B69C660266905F1140904F1140101EB860709EB830800F113
:402A800014054FF0000C51F8042B59F8044B93B29C44A3B2240CC3EB0C03C4EB124202EB23429BB24FEA224CC84543EA02428E4645F8042BE7D8BE450ED25EF8041B8AB2D9
:402AC0006244131403EB114392B242EA03424FEA234C45F8042BEEE755F8043D0BB9013EFAE70661BDE8F883104B0B40A3F15073002B02DD0020194670475B421B15132BE8
:402B00004FF000004FF0000104DC4FF4002242FA03F17047143B1E2B4FF00102CEBF1346C3F11F0302FA03F3184670470000F07FF8B5056900F1140606EB850555F8044CA0
:402B40002F1F2046FFF7CFFDC0F120030A280B6014DCC0F10B0E24FA0EF1BE4241F07F5334BF55F8081C0021153004FA00F021FA0EF143F4401340EA010223E0BE423ABF0F
:402B8000A5F1080755F8081C00210B3815D08440C0F1200544F07F5444F44014B74221FA05FE44EA0E038CBF57F8044C002401FA00F0EC4040EA040204E00A4644F07F53A4
:402BC00043F4401310461946F8BD2DE9F3411C4601219046089E099DFFF7C0FCC4F31302C4F30A5407460CB142F480120192B8F1000F19D002A840F8088DFFF794FD009BBF
:402C000048B1019AC0F1200102FA01F10B43C2407B61019200E07B61019B002B14BF02210121BB61396107E001A8FFF77CFD019B01217B613961203034B1A4F23344044473
:402C40003460C0F1350009E0A0F2324007EB810330601869FFF747FDC0EB41102860384602B0BDE8F0812DE9F743884669468146FFF75EFF0D46044601A94046FFF758FF61
:402C80000F460646D9F81030D8F8102020469A1A9DE80A00C91A01EB4213002BCCBF05EB0355A7EB035732463B46294600F056FF03B0BDE8F083013910B54911146901312B
:402CC00002F1140300EB810103EB8404A342024604D253F8042B40F8042BF7E700238A4202D242F8043BFAE710BD00F1140200694B11984210B50CDB0CDD11F01F0109D006
:402D000052F8234024FA01F000FA01F18C420CD100E0034602EB8303934204D953F8041D0029F9D001E0002010BD012010BD38B502FB01F4214600F009F8054618B1224625
:402D40000021FEF790FA284638BD000070B5CD1C25F0030508350C2D38BF0C25002D064601DBA94202D90C23336046E000F095FB234B1C681A462146A1B10B685B1B0ED42E
:402D80000B2B03D90B60CC18CD501EE08C420BBF63684B681360636018BF0C4615E00C464968E9E7174C23681BB9304600F016FB20602946304600F011FB431C18D0C41C99
:402DC00024F00304A0420DD12560304600F066FB04F10B00231D20F00700C31A0ED05A42E25070BD211A304600F0F8FA0130EBD10C233360304600F051FB002070BD00BF9F
:402E0000B481FF1FB081FF1F2DE9F0478E6882469E420C46914698463ED88A8912F4906F3AD02568096902236F1A656905EB450595FBF3F57B1C43449D4238BF1D465305EA
:402E40000FD52946FFF782FF064698B13A462169FEF7FEF9A38923F4906343F08003A38113E02A4600F068FB064670B92169504600F016FB0C23CAF80030A3894FF0FF30E6
:402E800043F04003A381BDE8F08726613E44266046466561ED1BA560464528BF464649463246206800F0DEFAA36800209B1BA36023681E442660BDE8F08700002DE9F04F51
:402EC0009DB003938B8980461C060D4616460DD50B695BB94021FFF739FF2860286118B90C23C8F80030CDE040236B610023099320238DF82930DFF89CB130238DF82A3038
:402F000037463C4614F8013B1BB9B7EB060910D003E0252BF9D02746F3E74B46324629464046FFF771FF013000F0A780099B4B4409933B78002B00F0A08000234FF0FF32A6
:402F400004930793059206938DF853301A930126052221784E4800F077FA671C049B38B14B4A3C46801A06FA00F018430490EFE7D90644BF20228DF853201A0744BF2B225F
:402F80008DF8532022782A2A03D0079A00210A200BE0039A111D12680391002A10DA524243F00200079204900BE027463B780134303B092B03D800FB02320121F5E701B105
:402FC00007923B782E2B1ED17B782A2B0AD1039B02371A1D1B680392002BB8BF4FF0FF33059310E0002319460593781C0A2407463A780130303A092A03D804FB0121012390
:40300000F5E703B1059103223978224800F01CFA40B14023CBEB000003FA00F0049B013718430490397806221B487E1C8DF8281000F00AFA88B1194B33B9039B073323F06C
:4030400007030833039314E003AB00932A46144B04A94046AFF3008007E003AB00932A460F4B04A9404600F093F8B0F1FF3F824603D0099B5344099342E7AB895B0601D498
:40308000099801E04FF0FF301DB0BDE8F08F00BF30410000364100003A41000000000000092E00002DE9F04791461F460A698B6806469342B8BF1346C9F8003091F8432019
:4030C0000C46DDF8208012B10133C9F800302368990642BFD9F800300233C9F80030256815F0060510D104F1190A07E00123524639463046C04701301AD00135E368D9F82D
:4031000000209B1A9D42F1DB94F843302268003318BF012392060FD5E118302081F843005A1C94F845102244023382F8431003E04FF0FF30BDE8F08704F14302394630467C
:40314000C0470130F4D02268D9F80050E36802F00602042A08BF5D1B2269A3680CBF25EAE57500259342C4BF9B1AED184FF000091A344D4509D00123224639463046C0476C
:403180000130D5D009F10109F3E70020BDE8F0872DE9F04317460A7E85B06E2A984606460C460C9B01F1430E00F0AE8011D8632A22D009D8002A00F0BB80582A40F0CA8006
:4031C00081F84520834955E0642A1ED0692A1CD0C0E0732A00F0B08009D86F2A2ED0702A40F0B8800A6842F020020A603EE0752A24D0782A3AD0ADE01A6801F14205111D1B
:403200001960136884F84230A8E021681A6811F0800F02D0111D196008E011F0400F02F10401196002D0B2F9003000E01368002B3CDA2D225B4284F8432037E021681A6831
:4032400011F0800F02D0111D196007E011F0400F02F10401196001D0138800E01368227E5C496F2A14BF0A2208221BE078225A4984F845202268186812F0800F00F1040521
:403280001D6003D1550601D5038800E00368D00744BF42F0200222601BB9226822F0200222601022002084F8430001E049490A226568002DA56008DB206820F00400206044
:4032C0002BB9002D7DD175460CE0002B79D07546B3FBF2F002FB1033CB5C05F8013D03460028F5D1082A0BD12368DA0708D5236962689A42DEBF302305F8013C05F1FF3553
:40330000C5EB0E0323612EE008681A6810F0800F496903D0101D1860136808E010F0400F02F104001860136801D0198000E0196000232361754616E01A68111D1960156832
:4033400000216268284600F07FF808B1401B6060636804E004F1420584F8422001232361002384F84330CDF800803B4603AA21463046FFF797FE013002D14FF0FF3026E0E3
:4033800023692A4639463046C0470130F5D023689B0710D5002504F1190907E001234A4639463046C0470130E7D00135E368039A9B1A9D42F2DBE068039B9842B8BF18463E
:4033C00005E00B7804F1420584F842308AE705B0BDE8F083414100005241000038B5064C0023054608462360FDF7C6F8431C02D1236803B12B6038BDB881FF1F034613F81C
:40340000012B002AFBD1181A0138704730B582B1451E013915F8013F11F8014FA34206D1EC431444E04201D0002BF3D11C46181B30BD104630BD0000024B01461868FFF7F9
:4034400085BC00BF4081FF1F10B5C9B202449042034605D01C7801308C42F8D1184610BD002010BD884210B501EB020301D8421E0BE09842FBD28118D21AD34204D013F8BF
:40348000014D01F8014DF8E710BD994204D011F8014B02F8014FF8E710BD70477047000038B50546002944D051F8043C0C1F002BB8BFE418FFF7F1FF1E4A1368114613B9B0
:4034C0006360146030E0A3420DD92268A018834201BF18685B681218226063600C6023E0A24203D813465A68002AF9D118681918A1420BD12168014458188242196013D135
:4035000010685268014419605A600DE002D90C232B6009E021686018824201BF106852680918216062605C602846BDE83840FFF7B5BF38BDB481FF1FF8B5074615460E46B9
:4035400021B91146BDE8F840FFF700BC1AB9FFF7A7FF2846F8BD00F015F885420ED929463846FFF7F3FB044650B131462A46FDF76FFE31463846FFF793FF01E03046F8BD61
:403580002046F8BD51F8040C0028BEBF091851F8043CC0180438704781F0004102E000BF83F0004330B54FEA41044FEA430594EA050F08BF90EA020F1FBF54EA000C55EA45
:4035C000020C7FEA645C7FEA655C00F0E2804FEA5454D4EB5555B8BF6D420CDD2C4480EA020281EA030382EA000083EA010180EA020281EA0303362D88BF30BD11F0004FCF
:403600004FEA01314FF4801C4CEA113102D0404261EB410113F0004F4FEA03334CEA133302D0524263EB430394EA050F00F0A780A4F10104D5F1200E0DDB02FA0EFC22FA6E
:4036400005F2801841F1000103FA0EF2801843FA05F359410EE0A5F120050EF1200E012A03FA0EFC28BF4CF0020C43FA05F3C01851EBE37101F0004507D54FF0000EDCF122
:40368000000C7EEB00006EEB0101B1F5801F1BD3B1F5001F0CD349085FEA30004FEA3C0C04F101044FEA445212F5800F80F09A80BCF1004F08BF5FEA500C50F1000041EB5A
:4036C000045141EA050130BD5FEA4C0C404141EB010111F4801FA4F10104E9D191F0000F04BF01460020B1FA81F308BF2033A3F10B03B3F120020CDA0C3208DD02F1140C98
:40370000C2F10C0201FA0CF021FA02F10CE002F11402D8BFC2F1200C01FA02F120FA0CFCDCBF41EA0C019040E41AA2BF01EB0451294330BD6FEA04041F3C1CDA0C340EDCD0
:4037400004F11404C4F1200220FA04F001FA02F340EA030021FA04F345EA030130BDC4F10C04C4F1200220FA02F001FA04F340EA0300294630BD21FA04F0294630BD94F0F6
:40378000000F83F4801306BF81F480110134013D4EE77FEA645C18BF7FEA655C29D094EA050F08BF90EA020F05D054EA000C04BF1946104630BD91EA030F1EBF0021002047
:4037C00030BD5FEA545C05D14000494128BF41F0004130BD14F580043CBF01F5801130BD01F0004545F0FE4141F470014FF0000030BD7FEA645C1ABF194610467FEA655CA4
:403800001CBF0B46024650EA013406BF52EA033591EA030F41F4002130BD00BF90F0000F04BF0021704730B54FF4806404F132044FF000054FF0000150E700BF90F0000F73
:4038400004BF0021704730B54FF4806404F1320410F0004548BF40424FF000013EE700BF42004FEAE2014FEA31014FEA02701FBF12F07F4393F07F4F81F06051704792F0C2
:40388000000F14BF93F07F4F704730B54FF4607401F0004521F0004120E700BF50EA010208BF704730B54FF000050AE050EA010208BF704730B511F0004502D5404261EB7B
:4038C00041014FF4806404F132045FEA915C3FF4DCAE4FF003025FEADC0C18BF03325FEADC0C18BF033202EBDC02C2F1200300FA03FC20FA02F001FA03FE40EA0E0021FA8E
:4039000002F11444C1E600BF70B54FF0FF0C4CF4E06C1CEA11541DBF1CEA135594EA0C0F95EA0C0F00F0DEF82C4481EA030621EA4C5123EA4C5350EA013518BF52EA03353A
:4039400041F4801143F4801338D0A0FB02CE4FF00005E1FB02E506F00042E0FB03E54FF00006E1FB03569CF0000F18BF4EF0010EA4F1FF04B6F5007F64F5407404D25FEA1B
:403980004E0E6D4146EB060642EAC62141EA55514FEAC52040EA5E504FEACE2EB4F1FD0C88BFBCF5E06F1ED8BEF1004F08BF5FEA500E50F1000041EB045170BD06F000462F
:4039C00046EA010140EA020081EA0301B4EB5C04C2BFD4EB0C0541EA045170BD41F480114FF0000E013C00F3AB8014F1360FDEBF002001F0004170BDC4F10004203C35DA05
:403A00000C341BDC04F11404C4F1200500FA05F320FA04F001FA05F240EA020001F0004221F0004110EBD37021FA04F642EB06015EEA430E08BF20EAD37070BDC4F10C049F
:403A4000C4F1200500FA04F320FA05F001FA04F240EA020001F0004110EBD37041F100015EEA430E08BF20EAD37070BDC4F1200500FA05F24EEA020E20FA04F301FA05F2BC
:403A800043EA020321FA04F001F0004121FA04F220EA020000EBD3705EEA430E08BF20EAD37070BD94F0000F0FD101F00046400041EB010111F4801F08BF013CF7D041EABC
:403AC000060195F0000F18BF704703F00046520043EB030313F4801F08BF013DF7D043EA0603704794EA0C0F0CEA135518BF95EA0C0F0CD050EA410618BF52EA4306D1D1BC
:403B000081EA030101F000414FF0000070BD50EA410606BF1046194652EA430619D094EA0C0F02D150EA013613D195EA0C0F05D152EA03361CBF104619460AD181EA03018F
:403B400001F0004141F0FE4141F470014FF0000070BD41F0FE4141F4780170BD70B54FF0FF0C4CF4E06C1CEA11541DBF1CEA135594EA0C0F95EA0C0F00F0A7F8A4EB05043C
:403B800081EA030E52EA03354FEA013100F088804FEA03334FF0805545EA131343EA12634FEA022245EA111545EA10654FEA00260EF000419D4208BF964244F1FD0404F597
:403BC000407402D25B084FEA3202B61A65EB03055B084FEA32024FF480104FF4002CB6EB020E75EB030E22BFB61A754640EA0C005B084FEA3202B6EB020E75EB030E22BF9C
:403C0000B61A754640EA5C005B084FEA3202B6EB020E75EB030E22BFB61A754640EA9C005B084FEA3202B6EB020E75EB030E22BFB61A754640EADC0055EA060E18D04FEA77
:403C4000051545EA16754FEA06164FEAC30343EA52734FEAC2025FEA1C1CC0D111F4801F0BD141EA00014FF000004FF0004CB6E711F4801F04BF01430020B4F1FD0C88BF48
:403C8000BCF5E06F3FF6AFAEB5EB030C04BFB6EB020C5FEA500C50F1000041EB045170BD0EF0004E4EEA113114EB5C04C2BFD4EB0C0541EA045170BD41F480114FF0000E87
:403CC000013C90E645EA060E8DE60CEA135594EA0C0F08BF95EA0C0F3FF43BAF94EA0C0F0AD150EA01347FF434AF95EA0C0F7FF425AF104619462CE795EA0C0F06D152EA57
:403D000003353FF4FDAE1046194622E750EA410618BF52EA43067FF4C5AE50EA41047FF40DAF52EA43057FF4EBAE12E74FF0FF3C06E000BF4FF0010C02E000BF4FF0010C5D
:403D40004DF804CD4FEA410C7FEA6C5C4FEA430C18BF7FEA6C5C1BD001B050EA410C0CBF52EA430C91EA030F02BF90EA020F0020704710F1000F91EA030F58BF994208BF67
:403D800090422CBFD8176FEAE37040F0010070474FEA410C7FEA6C5C02D150EA013C07D14FEA430C7FEA6C5CD6D152EA033CD3D05DF8040B704700BF8446104662468C46F8
:403DC0001946634600E000BF01B5FFF7B7FF002848BF10F1000F01BD4DF808EDFFF7F4FF0CBF012000205DF808FB00BF4DF808EDFFF7EAFF34BF012000205DF808FB00BF13
:403E00004DF808EDFFF7E0FF94BF012000205DF808FB00BF4DF808EDFFF7CEFF94BF012000205DF808FB00BF4DF808EDFFF7C4FF34BF012000205DF808FB00BF4FEA410266
:403E400012F5001215D211D56FF47873B3EB625212D94FEAC12343F0004343EA505311F0004F23FA02F018BF404270474FF00000704750EA013005D111F0004008BF6FF061
:403E8000004070474FF00000704700BF4A0011D212F5001211D20DD56FF47873B3EB62520ED44FEAC12343F0004343EA505323FA02F070474FF00000704750EA013002D16C
:403EC0004FF0FF3070474FF000007047000000003D3D3D204D6F746F7220436F6E74726F6C203D3D3D0D0A00496E677265736520566F6C74616A652028656A3A20372E3503
:403F000029202B20456E7465720D0A00565F696E20207C2050574D2020207C2052504D5F6D6564207C2052504D5F6573740D0A002D2D2D2D2D2D2B2D2D2D2D2D2D2D2B2DC3
:403F40002D2D2D2D2D2D2D2D2B2D2D2D2D2D2D2D2D0D0A000D0A0000563A2532642E253164207C2050574D3A253564207C204D45443A253564207C204553543A2535640D06
:403F80000A000000405100403000F0510040100000000140001000140140000800400140000A004C014000021050014010000000605200408C0C0048060000500140940CE3
:403FC000004810004300000034000000CEFBFFFFCB03000001000000000000006E6600696E69747900616E0035000000CEFBFFFFCB030000010000000000000000000000C1
:40400000BC89D897B2D29C3C33A7A8D523F649393DA7F444FD0FA5329D978CCF08BA5B25436FAC6428066811504F534958002E00000000000000F03F0000000000002440F1
:4040400000000000000059400000000000408F40000000000088C34000000000006AF8400000000080842E4100000000D01263410000000084D797410000000065CDCD41FF
:40408000000000205FA00242000000E876483742000000A2941A6D42000040E59C30A2420000901EC4BCD64200003426F56B0C430080E03779C3414300A0D88557347643C3
:4040C00000C84E676DC1AB43003D9160E458E143408CB5781DAF154450EFE2D6E41A4B4492D54D06CFF08044F64AE1C7022DB544B49DD9794378EA44050000001900000000
:404100007D000000000000000080E03779C34143176E05B5B5B89346F5F93FE9034F384D321D30F94877825A3CBF737FDD4F1575232D302B2000686C4C0065666745464794
:40414000003031323334353637383941424344454600303132333435363738396162636465660000F8B500BFF8BC08BC9E4670474D000000F5050000F8B500BFF8BC08BC91
:404180009E4670472900000098410000C880FF1FB80000004000000000000000C081FF1F0000E02EC05D00001800000000366E0100000000000000000000000000000000BD
:4041C00000000000000000000000000000000000C43F00000000000000000000000000000000000000000000000000000000000000000000000000000000000000000000BC
:4042000000000000000000000000000000000000E080FF1F2E400000354100003541000035410000354100003541000035410000354100003541000035410000FFFFFFFF70
:40424000FFFFFFFFFFFFFFFFFFFF00000000000000000000000000000000000000000000000000000000000000000000000000000000000000000000000000000000000048
:4042800000000000000000000000000000000000000000000000000000000000000000000000000000000000000000000000000000000000000000000000000000000000FE
:4042C00000000000000000000000000000000000000000000000000000000000000000000000000000000000000000000000000000000000000000000000000000000000BE
:40430000000000000000000000000000000000000000000000000000000000000000000000000000000000000000000000000000000000000000000000000000000000007D
:40434000000000000000000000000000000000000000000000000000000000000000000000000000000000000000000000000000000000000000000000000000000000003D
:020000040003F7
:0200000480007A
:4000000001520040076400400265004001010140050301404904014047050140690601404B0701405F08014054090140520A0140470B01405A0C0140380D0140010F0140FD
:4000400059140140461501406F16014049170140511801404D190140521A0140501B01400640014006410140024201400143014003450140034601400147014002480140E5
:4000800004490140064C0140084D014006500140015101401180846F870F880D896F8A0D8B0F8C0F89728A38E601808084088A20E202E60301960368050E060407F0080225
:4000C00009C50B3A0C0210011402170119A31B5C1C102008217F22012602280829FE2A102B012C023001321033FF3406360838803E053F04540F580459045B045C095D901B
:400100005F058194836085CF860787308A808B0F94609530960497C998379C019E02A061A202A404A573A857A9FDAB02AD9EAE08AF60B1FFB20FB470B680B820BF01D80462
:40014000D904DC09DF01000801800308062409040A910D200E100F0210011284130815101680174819091A0A1B101C301D201E011F2022082740284029222C012D102E808B
:400180002F2A3008322036043708380839023B103C103D083E203F0259596104621078408010811082808608881089019880A008A202A304A620AE02B704C067C2EDC4FF04
:4001C000CA75CC46CEE7D60FD806DE08E008E401E840EA0200070807099E0B600D300FC911731207140115941602176019CF1B3020042401260229FD2A042B022E082F0FAF
:40020000300F31FF3F014056410449FF4AFF4BFF4DA04F015018580459045A045C095D095F016040628064406540668068406A806C406D206E808001860289968B6891C597
:40024000933A95A3975C997FA001A204A701A801A9FEAB01AD0EAE02AFF0B004B202B401B5FFB820BE10BF10C052C104C52EC6C4C703C81FC9FFCAFFCBFFCDAFCE07CF01B2
:40028000D018D401D804D904DA04DB04DC09DD19DF01E040E280E440E540E680E840EA80EC40ED20EE800102032005220D020F1010021284150217581A9C1D021F01200820
:4002C000274029802B192D202F01301031203218330235023620371838203C803F1041024204450249044A824E0650805214580159485B208282854089088C80940895025D
:400300009680971098809DA69E14A120A202A314A404A504A6A4A70BA804AD40B120B205B708C05CC230C4FBCA3ECCE7CE34D085D238D60FE201E60CEC01EE080201080118
:40034000090212101601182619061A181C061D061E28201422282301242626082A2A2F01301E3101320134203504370239A03A023E143F414035410449FF4AFF4BFF4DA09F
:400380004F01501852805401580459045A045B045C915D995F016040628064406540668068406A806C406D206E808201910196019F03B102B301B401BE10BF04C031C1048A
:4003C000C542C6C3C70EC81FC9FFCAFFCBFFCDAFCE07CF01D018D40FD804D904DA04DB04DC90DD99DF05E040E280E440E540E680E840EA80EC40ED20EE8001020510074065
:400400000A200DD00EA0140815011640170418041C801D081F202205244B25102F823281341036A03D103E204001410A450B49014A204C01529458905A085B015C405F05EB
:40044000621477407910800883058720884089108D048E0190809220940895209684978098089A609B149C029DA49E019F20A101A210A440A544A64CAA01AF20B101B230A3
:40048000B310B702C058C2F4C470CA90CC39CE20D0CBD210D6DFD806DE04E440E620E8B0EC800002070108030C030D02160117021B011F0229023301340335023820392033
:4004C0003A023E103F045405580459045B045C115F0181DC83228514862088018C208D108FAC9109921893D0950C960697719A209B039E10A018A110A206A340A402A61C55
:40050000A802AA0CAB20AE01B020B31FB401B5E0B61EBA80BB20BE11C006C540C9FFCA07CBFFCC40CD20CEF0CF05D008D40FD604D804D904DA04DB04DC11DD91DF01E0401E
:40054000E1A8E240E320008202400304040805800708080809080C010D280E800F0115201641170418801B101C421F202214271429202C802F0831103248340137143880CA
:400580003A043C823E044C804F215508570859015A485C405F266480662067048101860189208A2092409502960197A099119A049B089C829D04A544A625AE04B610C0EBFF
:4005C000C2F4C4F0CAA4CCEECEDAD220D6FBD880E020E48002010308070109020D0211041204150416021B041C011F10210422042404270229042E013004310C3202330279
:400600003401350137103E113F044060410249FF4AFF4BFF4DA04F0450185280540F5604580459045A045B045C995D905F01604062C06440654066C068C06AC06CC06EC0EC
:400640008602920198049B01A606B004B202B401B501C020C106C5D1C702C813C9FFCAFFCBFFCDAFCE0FCF04D018D280D804D904DA04DB04DF01E040E2C0E440E540E6C0FF
:40068000E8C0EAC0ECC0EEC00004064009220D880F80102015021788180419101A501B101E841F082120259027A82D202F5030203504362137803DA83E013F8040044604D3
:4006C000482049014A084F20520C5C025E885F206740710276408108830887C089209C80C014C2BAC4B4CAE0CCF4CEF0D024D224D6F0D880E020E2018080001C043C05201A
:400700000704080109300A020B080C140E2810021201133C14281614170219301B041C011E022001211C22022430260C280C292C2A302B102E402F0130033101333C343C57
:40074000364037023A024031410446BE47C0482C49FF4AFF4BFF4EF04F44500C580459045A045C995D015F0166C06A406B0281018302850287018E08910493089508960437
:40078000970499049A019B089D019F02A504A708AD01AE02AF02B002B208B303B404B50CB601BB28D804D904DC99DF0100A40102020A060108800A400B100E24116012A0DE
:4007C0001780180419601A411B011E261F0222802390242825142604271829622E042F02322A3611378838083B103D083E01410842825020510153408120820185018B10A8
:400800008D0291409428979098809A829D229F18A050A108A220A420A604A701A940AD80AF08B020B621C08FC26DC48FCA5DCCF7CEC6D00BE403EE0403F0041805C0060603
:400840000720080A090C0A140B010C140D080E0A0F01110C1302141E15801710190B1A011B041C061E181F0F2107240E257029B02B402DC02F10321E33F03401350F4056BE
:4008800049FF4AFF4BFF4F015018580459045A045C995D095F016040624064406540668068806A806C806E8081028301861E88168A088C188E04900191019302940E9901B1
:4008C0009A409B029E20A010A202A304A418A501A602A702B01EB103B201B304B420B640BB02BE04C052C9FFCAFFCBFFCD83CE03CF01D018D280D804D904DA04DB04DC995D
:40090000DD99DF01E040E240E440E540E680E880EA80EC80EE80031A04A0072008010A260B800C400E200F0A104011081410188019081A021B121D101E241F0820A021017E
:4009400025042628272028802B102C102D022F0A3110320135A0360539023C803D083F12432048024C024E047002860487208802922094289502971098909A829C019D2A53
:400980009F08A108A304A442A504A62CA72BAA10B102B520B720C0E7C2EFC42CCAF3CCF5CEF1D004D238E60803010D011501160119042D0234013504370339803F10402404
:4009C00045EC4602480749FF4AFF4BFF4D834E034F015018580459045A045C195D095F016040624064406540668068806A806C806E80830184038518881389088A0C8C1FF7
:400A00008DFF900F921093E6940C9539961397C4980299809C019D10A008A141A404A5C0A80CA9E7AB18AD19AE13AFE2B01CB1C0B31FB40FB538BA22BB08D602D713D8044F
:400A4000D904DB04DC11DD10DF010040012804C0085009080A880E2010A1121013501520160419201A801B011D102118220925202640284029282A022B012F0130913108BF
:400A80003714388A3A103C803D01440446404F05564057805B026802691470A47310878088048B028D209084910193029684978599019B149C809DB29F21A040A111A23065
:400AC000A580A64CA782B140B402B544C007C22FC40FCA1FCC6FCE9FD0A0D601E480E810EC20EE1004440502062A09020D04110214021504161518211ACA1B011D042308C0
:400B000024672701286729042D08301831023207330134603508368037043E013F54406541014202440445E046C0480A49FF4AFF4BFF4C624DA04EF04F41500C541858043D
:400B400059045A045B045C115D115F016640670269106A306B106D106E106F12810182018B019102940C98069B069C0A9D01A40CB001B104B301B40EB60EB702B8A0BF445C
:400B8000D804D904DC99DF010320050108200A100E0A0F2011141508184219081A181B201E881F822008220823422602272129A12A042B023002312832403662388039949E
:400BC0003D224040415049224B4051205A026004624082018580864888A489048A028B408F809084913492829402960897C099219A049C809D8A9E029F23A002A119A220B4
:400C0000A310A580A604B204B710C014C2E6C426CA0FCCBFCEAED00DD20CD601D80CE240E480E810EC20EE043102324036208240CC70E68003208620A502A620C010E640F2
:400C4000A502B720A50262048110D802A510B604EC08A510A902EA8005018101C020E02009100F088C02A510C203E402104074028840A002AB04C408DE04E2011002110137
:400C80001A021B011C021D01003F0000808000004000000003010000000000000000020103010101010000010000000000000000800040808000800000000000C00B0B001C
:400CC0000000000000E0E0008000000002000002000000000000000000000000000000000000000000000000000000000000000000000000000000000000000000000000B0
:400D000000000000000000000000000000000000000000000000000000000000000000000000000000000000000000000000000000000000000000000000000000000000B3
:400D40000000000000000000000000000000000000000000000000000000000000000000000000000000000000000000000000000000000000000000000000000000000073
:400D80000000000000000000000000000000000000000000000000000000000000000000000000000000000000000000000000000000000000000000000000000000000033
:400DC00000000000000000000000000000000000000000000000000000000000000000000000000000000000000000000000000000000000000000000000000000000000F3
:0200000490006A
:0400000000004005B7
:0200000490105A
:04000000BC90ACAF55
:0200000490303A
:02000000C9B67F
:0200000490402A
:4000000000000000000000000000000000000000000000000000000000000000000000000000000000000000000000000000000000000000000000000000000000000000C0
:400040000000000000000000000000000000000000000000000000000000000000000000000000000000000000000000000000000000000000000000000000000000000080
:400080000000000000000000000000000000000000000000000000000000000000000000000000000000000000000000000000000000000000000000000000000000000040
:4000C0000000000000000000000000000000000000000000000000000000000000000000000000000000000000000000000000000000000000000000000000000000000000
:0200000490501A
:0C00000000012E16106900012E33DA1FDB
:00000001FF