:400000000080002011000000690600006906000008B5044B1A6803F53F5302331A6000F043FB00BFFA46004010B5054C237833B9044B13B10448AFF300800123237010BD5B
:400040005881FF1F000000000C1E0000084B10B51BB108490848AFF300800848036803B910BD074B002BFBD0BDE81040184700BF000000005C81FF1F0C1E0000C880FF1F8E
:400080000000000010B592B062B600F091FD00F015FC00F0E1FD00F083FE00F0B1FB264800F060FC254800F007FE254800F004FE244800F001FE244800F0FEFD0024234B08
:4000C0001B7813F0FF0F13D00022204B1A7000F0DBF81F4B18681F4900F094FF01F058F902461D49684601F0DDF9684600F0E4FD00F0C0FD0028E2D00D2801D00A2811D145
:40010000002CDCD012AB2344002403F8084C10A801F084F900F022FF104901F027F8104B1860CCE7062CCAD8621C12A90C4404F8080CD4B2C3E700BFCD010000101E0000D2
:40014000301E0000681E00008C1E00007481FF1F7881FF1F0000C842B01E0000000020418C81FF1F10B50446134900F04BFF134900F040FE0146204600F044FF104900F01B
:4001800037FE0146204600F03DFF0E4900F032FE0146204600F036FF0B4900F02BFE01F0F7F800B2B0F59E6F01DD4FF49E60002800DA002010BD00BF2AA4E1BD86D88140DF
:4001C000D3EAF541CC1F0443FB2BFA4208B500F0D3FA044A0123137053889BB201339BB2538008BD7481FF1F10B50446B0F59E6F01DD4FF49E6414F59E6F00DA114C002C58
:4002000009DD012000F0E2FC002000F0EBFCA0B200F07CFC10BD002C0ADA002000F0D6FC012000F0DFFC604280B200F06FFC10BD002000F0CBFC002000F0D4FC002000F0CA
:4002400065FC10BD10FBFFFF08B5002000F0BEFC002000F0C7FC002000F058FC08BD00BF08B5074800F0C0F8064B00225A6000221A817F2000F05CFDFFF7E6FF08BD00BF20
:40028000CC80FF1F7481FF1F38B500F0D9FA254CE368E060C01A00F061FE234900F0B2FE224900F063FF20612069214900F0AAFE6061A0691F4901F061F838B1A0691E4942
:4002C00001F03EF810B1FFF7CBFF38BD154CA16962691A4800F038F805466060002101F043F820B12846FFF73DFF208107E005F10040FFF737FF404200B20A4B1881094B80
:40030000188900B2FFF770FF0D49284600F072FD0C4900F077FE01F061F8C0B200F008FD38BD00BF7481FF1F000070426666A6405077D63D0AD723BC0AD7233CCC80FF1F08
:400340000000404100002A412DE9F84304460846114600F04DFD0646216800F053FE80466168304600F04EFE1E4900F04BFEE16800F040FD0746E0606569294600F0FEFFF3
:4003800008B1E56008E0D4F818904946384600F0D7FF08B1C4F80C90A7682169304600F027FD0146384600F02DFE0E4900F0DEFE07462661E168404600F01CFD0146384668
:4003C00000F018FD06460146284600F0B9FF30B9A5692946304600F0B3FF00B935462846BDE8F8830AD7A33B0023C36003617047FEE700BFF0B40022174611E050F8276068
:40040000F3B226F0FF0608E001EB420511F812406D78A5550132013BDBB2002BF4D10137212FEBD9F0BC70470A4B1B78DBB203F00701094A11701B09013213704022074B3A
:400440001A70012203F677131A704422A3F20D231A707047CF0100496E5800400C51004008B50A46002101F014F808BD38B51722254B1A801823254A137019250232158046
:40048000023213700222224B1A7008224FF040231A70032103F5007319701E4B1B78DBB21D490B701D4B1A8041F25122023B1A8000240CE01A4B1B7803F0010343EA44049F
:4004C00004F003044FF4F07000F07EFC013D0DB1032CEFD115B90320FFF78AFF114B4FF480721A8007221A7000220F490A704820023108701A700222033B1A700B4A13785E
:4005000043F00303137038BD80400040824000400043004008010049A146004022420040254200400440004006400040A243004008B500F0A3FF08BD38B572B6374A13785D
:4005400043F00403137000240CE0354D630019194A0011462A44084691882858FFF780FF0134E4B2072CF0D900240BE02C49A3001819420088188022416B006BFFF7D8FFA5
:400580000134E4B2002CF1D026494FF09040FFF731FF254A254B1A60254A137843F0020313701032137843F002031370214C237843F040032370A2F58632513A137843F0A0
:4005C000100313700A221C491C48FFF7B1FF0A221B491C48FFF7ACFF08221B491B48FFF7A7FF08221A491B48FFF7A2FF1A4A137843F008031370194D61232B70FFF736FFC1
:4006000081232B700122164B1A70FFF70DFF0E2221461448FFF78CFF38BD00BFE8460040B81E00008800004804040484D808014003500140A0430040A40C0048005100403E
:40064000B00C0048C0510040BC0C004812510040C40C004822510040224300400048004004000840B043004008B500F0DBFE03680C2B00D1FEE7FEE708B5094B1A68104451
:40068000084BC31A802B02DC054B186005E000F0C9FE0C2303604FF0FF32104608BD00BFE880FF1FB081FF1F08B5104E104D16E029686B68AC68002204E051F8040B43F8ED
:4006C000040B0432A242F8D1E868002203E0002143F8041B04328242F9D11035013E002EE6D100F0A5FEFFF7CDFCFEE7010000004C20000008B5104A104B1A60104A1368A6
:4007000043F40073136000230AE0032B03D80D4A52F8231000E00C490C4A42F8231001332F2BF2D90A4B1A780A4B1A70074A0A4B1A60FFF701FF08BD0004FA050CED00E0E4
:4007400014ED00E000000000690600000080FF1FBC760040C080FF1F08ED00E0024A137843F080031370704774640040014B1870704700BF86640040014B1878704700BF41
:400780006664004008B50146014800F0A1F908BD24640040024B186820F07F40704700BF4464004008B50146014800F091F908BD0464004008B501E0FFF7ECFFFFF7DCFF4D
:4007C00010F0080FF8D108BD10B50B4C2046FFF7D9FF2046FFF7E6FF00F0FEFA074A137843F01003137000F0FBFAFFF7E3FF0120FFF7BCFF10BD00BFBFD40100966400404D
:4008000008B5054B1B7823B9FFF7DEFF0122024B1A70FFF7A3FF08BD9081FF1F08B50122054B1A600549002000F026F90721002000F036F908BD00BF80E100E0F108000097
:4008400010B50124064B1C6000F0B4F8A0F5004000B2044B1B68044A1460184410BD00BF80E100E09481FF1F00E100E0024B187800F00F00704700BF6A64004040F0070056
:40088000014B1870704700BF8A64004008B50F20FFF7F4FFFFF7EAFF00F09EFA054A137843F01003137000F09BFA0122024B1A6008BD00BF9A64004000E100E008B500F042
:4008C000CBF84FF4004000F06FF80022064B1A60064B1B7823B9FFF7A1FF0122034B1A70FFF7D4FF08BD00BF9481FF1F9181FF1F0D4B1B78DBB213F0010F06D00B490A6846
:4009000002F5FF427F320A6007E013F0020F04D006490A68A2F500420A6013F0040F02D00022024B1A6070476A6400409481FF1F014B1B689864704708ED00E04001C0B2BE
:40094000014B1870704700BF02E400E00422014B1A60704700E100E00422014B1A60704780E100E010B50446FFF7F6FF2046FFF7DFFF0720FFF7E2FFFFF7E8FF10BD00BF84
:40098000024A137843F08003137070477B640040014B1870704700BF89640040014B1878704700BF69640040014B1880704700BF10680040024B1B78024B188880B27047B3
:4009C0000864004090680040014B188880B2704790680040014B1880704700BF50680040014B1880704700BF7068004008B501E0FFF7EAFFFFF7D2FF10F0400FF8D108BD21
:400A000008B5134B1A7802F0F8021A701A7802F0FC021A70FFF7EAFF4FF40040FFF7DAFF4FF40040FFF7C0FF0020FFF7B1FFFFF7B5FF4FF40040FFF7D3FF00F0CDF9054A5E
:400A4000137843F01003137000F0CAF908BD00BF7B6400409964004008B5054B1B7823B9FFF7CEFF0122024B1A70FFF789FF08BD9881FF1F01BE704770B504460E46074B51
:400A80001D681F2802D90020FFF7F4FF04F01F04103455F8240045F8246070BD08ED00E038B504460D46072902D90020FFF7E2FF1F2C02D90020FFF7DDFF04F01F0000F14F
:400AC000604000F564406D01EDB2057038BD00BFCBB20370C1F307234370C1F307418170704700BF024A137843F08003137070477F640040014B1880704700BF1C6800409B
:400B0000014B1880704700BF9C680040014B1880704700BF5C680040014B1870704700BF8F640040014B1878704700BF6F640040014B188880B27047BC68004008B501E000
:400B4000FFF7F6FFFFF7EEFF10F0100FF8D108BD10B5154A137803F0C00343F0090313701F32137843F001031370104C237843F0010323704FF49E60FFF7BCFF4FF49E6049
:400B8000FFF7BEFF0020FFF7C1FF0020FFF7C4FF00F022F9237843F01003237000F020F9FFF7CCFF10BD00BF7F6400409F64004008B5054B1B7823B9FFF7CAFF0122024BED
:400BC0001A70FFF78FFF08BD9981FF1F044A137803F0BF03800100F0400018431070704720510040044A137803F0DF03400100F02000184310707047205100407222074B40
:400C00001A702022063B1A7006225F3B1A70472210331A70002252331A7070478A65004010B500F0D9F804460A4A137843F020031370063A137843F01003137003321378A8
:400C400043F01003137000F049F8204600F0C8F810BD00BF9A65004008B5054B1B7823B9FFF7CCFF0122024B1A70FFF7D9FF08BD9A81FF1F084B1B78DBB213F0200F06D01B
:400C8000064A1078C0B213F01E0F02D17047002070470020704700BF646500404A650040034B1B7813F0040FFAD1024B18707047676500404765004038B5074B1B782BB9CF
:400CC00038BDFFF7EDFF0134A4B201E005460024285D0028F5D138BD9A81FF1F054A137843F0020313701032137843F002031370704700BFA2430040054A137843F00103D8
:400D000013701032137843F001031370704700BFA8430040054B1A7802F0FD021A701A7800F0020010431870704700BF20580040014B1870704700BF805B0040064B1B78D5
:400D4000C3F3810303F19243063393F82031DBB2024A1370704700BF205800400846004008B5064B1A7802F0F3021A701A7800F00C0010431870FFF7E1FF08BD2058004076
:400D800010B50024054B1C7001331C700420FFF7E7FF2046FFF7BEFF10BD00BF2058004008B5074B1B7823B9FFF7EAFF0122044B1A70FFF7A1FF6420FFF7BAFF08BD00BFAB
:400DC0009C81FF1F000000000230800803D000BF01380046FCD17047EFF3108072B6704780F31088704700BF80F0004002E000BF81F0004142001FBF5FEA410392EA030F59
:400E00007FEA226C7FEA236C6AD04FEA1262D2EB1363C1BFD218414048404140B8BF5B42192B88BF704710F0004F40F4000020F07F4018BF404211F0004F41F4000121F01D
:400E40007F4118BF494292EA030F3FD0A2F1010241FA03FC10EB0C00C3F1200301FA03F100F0004302D5494260EB4000B0F5000F13D3B0F1807F06D340084FEA310102F13D
:400E80000102FE2A51D2B1F1004F40EBC25008BF20F0010040EA03007047490040EB000010F4000FA2F10102EDD1B0FA80FCACF1080CB2EB0C0200FA0CF0AABF00EBC25041
:400EC00052421843BCBFD0401843704792F0000F81F4000106BF80F400000132013BB5E74FEA41037FEA226C18BF7FEA236C21D092EA030F04D092F0000F08BF0846704728
:400F000090EA010F1CBF0020704712F07F4F04D1400028BF40F00040704712F100723CBF00F50000704700F0004343F0FE4040F4000070477FEA226216BF08467FEA2363D8
:400F40000146420206BF5FEA412390EA010F40F4800070474FF0000304E000BF10F0004348BF40425FEA000C08BF704743F0964301464FF000001CE050EA010208BF7047B2
:400F80004FF000030AE000BF50EA010208BF704711F0004302D5404261EB41015FEA010C02BF84460146002043F0B64308BFA3F18053A3F50003BCFA8CF2083AA3EBC2530A
:400FC00010DB01FA02FC634400FA02FCC2F12002BCF1004F20FA02F243EB020008BF20F00100704702F1200201FA02FCC2F1200250EA4C0021FA02F243EB020008BF20EA57
:40100000DC7070474FF0FF0C1CEAD0521EBF1CEAD15392EA0C0F93EA0C0F6FD01A4480EA010C400218BF5FEA41211ED04FF0006343EA501043EA5111A0FB01310CF0004078
:40104000B1F5000F3EBF490041EAD3715B0040EA010062F17F02FD2A1DD8B3F1004F40EBC25008BF20F00100704790F0000F0CF0004C08BF49024CEA502040EA51207F3AEE
:40108000C2BFD2F1FF0340EAC250704740F400004FF00003013A5DDC12F1190FDCBF00F000407047C2F10002410021FA02F1C2F1200200FA02FC5FEA310040F1000053EAA7
:4010C0004C0308BF20EADC70704792F0000F00F0004C02BF400010F4000F013AF9D040EA0C0093F0000F01F0004C02BF490011F4000F013BF9D041EA0C018FE70CEAD153F8
:4011000092EA0C0F18BF93EA0C0F0AD030F0004C18BF31F0004CD8D180EA010000F00040704790F0000F17BF90F0004F084691F0000F91F0004F14D092EA0C0F01D14202B1
:401140000FD193EA0C0F03D14B0218BF084608D180EA010000F0004040F0FE4040F40000704740F0FE4040F4400070474FF0FF0C1CEAD0521EBF1CEAD15392EA0C0F93EABE
:401180000C0F69D0A2EB030280EA010C49024FEA402037D04FF0805343EA111143EA10130CF000408B4238BF5B0042F17D024FF4000C8B4224BF5B1A40EA0C00B3EB510F81
:4011C00024BFA3EB510340EA5C00B3EB910F24BFA3EB910340EA9C00B3EBD10F24BFA3EBD10340EADC001B0118BF5FEA1C1CE0D1FD2A3FF650AF8B4240EBC25008BF20F071
:40120000010070470CF0004C4CEA50207F32C2BFD2F1FF0340EAC250704740F400004FF00003013A37E792F0000F00F0004C02BF400010F4000F013AF9D040EA0C0093F0B1
:40124000000F01F0004C02BF490011F4000F013BF9D041EA0C0195E70CEAD15392EA0C0F08D142027FF47DAF93EA0C0F7FF470AF084676E793EA0C0F04D14B023FF44CAF21
:4012800008466EE730F0004C18BF31F0004CCAD130F000427FF45CAF31F000437FF43CAF5FE700BF4FF0FF3C06E000BF4FF0010C02E000BF4FF0010C4DF804CD4FEA4002B0
:4012C0004FEA41037FEA226C18BF7FEA236C11D001B052EA530C18BF90EA010F58BFB2EB030088BFC81738BF6FEAE17018BF40F0010070477FEA226C02D15FEA402C05D18B
:401300007FEA236CE4D15FEA412CE1D05DF8040B704700BF844608466146FFE70FB5FFF7C9FF002848BF10F1000F0FBD4DF808EDFFF7F4FF0CBF012000205DF808FB00BF47
:401340004DF808EDFFF7EAFF34BF012000205DF808FB00BF4DF808EDFFF7E0FF94BF012000205DF808FB00BF4DF808EDFFF7D2FF94BF012000205DF808FB00BF4DF808ED69
:40138000FFF7C8FF34BF012000205DF808FB00BF4FEA4002B2F1FE4F0FD34FF09E03B3EB12620DD94FEA002343F0004310F0004F23FA02F018BF404270474FF000007047CA
:4013C00012F1610F01D1420205D110F0004008BF6FF0004070474FF00000704742000ED2B2F1FE4F0BD34FF09E03B3EB126209D44FEA002343F0004323FA02F070474FF0A5
:401400000000704712F1610F01D1420202D14FF0FF3070474FF00000704700BF0A22002100F0EAB8014B1868704700BF4C81FF1F0E4B70B51E460E4C0025E41AA410A542B9
:4014400004D056F8253098470135F8E700F0ECFD084B094C1E46E41AA4100025A54204D056F8253098470135F8E770BD3420000034200000342000003C20000010B5431E48
:401480000A44914204D011F8014B03F8014FF8E710BD03460244934202D003F8011BFAE7704700000EB400B54FF402719CB0ADF814106FF00041049107914FF6FF711DAB7A
:4014C00002900690084853F8042BADF81610006802A9019300F0F4F8029B00221A701CB05DF804EB03B070474C81FF1F2DE9F0470F4680463F48D0F800903D4615F8014BDB
:4015000009EB0400407800F0080000F0FF0608B12F46F2E72D2C03D1BD1C7C78012603E02B2C04BF7C78BD1C13B1102B0AD15BE0302C57D1287800F0DF0058284DD16C7892
:4015400010230235002E14BF4FF0004C6FF0004CBCFBF3FA0027384603FB1ACC09EB040E9EF801E01EF0040F01D0303C0BE01EF0030E1BD0BEF1010F0CBF4FF0370E4FF080
:40158000570ECEEB0404A34210DDB7F1FF3F0AD0504506D801D1644503DC03FB0040012701E04FF0FF3715F8014BD7E77B1C0CD1002E4FF0220314BF4FF000406FF00040DC
:4015C000C8F800302AB9BDE8F08706B1404272B107B1691E1160BDE8F0873024002BB1D10823AFE70A23ADE7302CA3D0AAE7BDE8F08700BF5081FF1F13460A4601460248ED
:401600000068FFF773BF00BF4C81FF1F2DE9F0478E6882469E420C46914698463ED88A8912F4906F3AD02568096902236F1A656905EB450595FBF3F57B1C43449D4238BF25
:401640001D4653050FD5294600F040FB064698B13A462169FFF712FFA38923F4906343F08003A38113E02A4600F08EFB064670B92169504600F0DEFA0C23CAF80030A389F5
:401680004FF0FF3043F04003A381BDE8F08726613E44266046466561ED1BA560464528BF464649463246206800F0A8FAA36800209B1BA36023681E442660BDE8F087000086
:4016C0002DE9F04F9DB003938B8980461C060D4616460DD50B695BB9402100F0F7FA2860286118B90C23C8F80030CDE040236B610023099320238DF82930DFF89CB1302327
:401700008DF82A3037463C4614F8013B1BB9B7EB060910D003E0252BF9D02746F3E74B46324629464046FFF771FF013000F0A780099B4B4409933B78002B00F0A08000234F
:401740004FF0FF3204930793059206938DF853301A930126052221784E4800F041FA671C049B38B14B4A3C46801A06FA00F018430490EFE7D90644BF20228DF853201A078D
:4017800044BF2B228DF8532022782A2A03D0079A00210A200BE0039A111D12680391002A10DA524243F00200079204900BE027463B780134303B092B03D800FB023201215B
:4017C000F5E701B107923B782E2B1ED17B782A2B0AD1039B02371A1D1B680392002BB8BF4FF0FF33059310E0002319460593781C0A2407463A780130303A092A03D804FB60
:4018000001210123F5E703B1059103223978224800F0E6F940B14023CBEB000003FA00F0049B013718430490397806221B487E1C8DF8281000F0D4F988B1194B33B9039BF9
:40184000073323F007030833039314E003AB00932A46144B04A94046AFF3008007E003AB00932A460F4B04A9404600F093F8B0F1FF3F824603D0099B5344099342E7AB8999
:401880005B0601D4099801E04FF0FF301DB0BDE8F08F00BFF51F0000FB1F0000FF1F0000000000000D1600002DE9F04791461F460A698B6806469342B8BF1346C9F8003012
:4018C00091F843200C46DDF8208012B10133C9F800302368990642BFD9F800300233C9F80030256815F0060510D104F1190A07E00123524639463046C04701301AD0013575
:40190000E368D9F800209B1A9D42F1DB94F843302268003318BF012392060FD5E118302081F843005A1C94F845102244023382F8431003E04FF0FF30BDE8F08704F143026D
:4019400039463046C0470130F4D02268D9F80050E36802F00602042A08BF5D1B2269A3680CBF25EAE57500259342C4BF9B1AED184FF000091A344D4509D00123224639460C
:401980003046C0470130D5D009F10109F3E70020BDE8F0872DE9F04317460A7E85B06E2A984606460C460C9B01F1430E00F0AE8011D8632A22D009D8002A00F0BB80582A1B
:4019C00040F0CA8081F84520834955E0642A1ED0692A1CD0C0E0732A00F0B08009D86F2A2ED0702A40F0B8800A6842F020020A603EE0752A24D0782A3AD0ADE01A6801F12E
:401A00004205111D1960136884F84230A8E021681A6811F0800F02D0111D196008E011F0400F02F10401196002D0B2F9003000E01368002B3CDA2D225B4284F8432037E0DF
:401A400021681A6811F0800F02D0111D196007E011F0400F02F10401196001D0138800E01368227E5C496F2A14BF0A2208221BE078225A4984F845202268186812F0800F28
:401A800000F104051D6003D1550601D5038800E00368D00744BF42F0200222601BB9226822F0200222601022002084F8430001E049490A226568002DA56008DB206820F0E6
:401AC000040020602BB9002D7DD175460CE0002B79D07546B3FBF2F002FB1033CB5C05F8013D03460028F5D1082A0BD12368DA0708D5236962689A42DEBF302305F8013C11
:401B000005F1FF35C5EB0E0323612EE008681A6810F0800F496903D0101D1860136808E010F0400F02F104001860136801D0198000E0196000232361754616E01A68111D16
:401B40001960156800216268284600F049F808B1401B6060636804E004F1420584F8422001232361002384F84330CDF800803B4603AA21463046FFF797FE013002D14FF070
:401B8000FF3026E023692A4639463046C0470130F5D023689B0710D5002504F1190907E001234A4639463046C0470130E7D00135E368039A9B1A9D42F2DBE068039B9842F6
:401BC000B8BF184605E00B7804F1420584F842308AE705B0BDE8F083062000001720000010B5C9B202449042034605D01C7801308C42F8D1184610BD002010BD884210B56A
:401C000001EB020301D8421E0BE09842FBD28118D21AD34204D013F8014D01F8014DF8E710BD994204D011F8014B02F8014FF8E710BD000038B50546002944D051F8043C36
:401C40000C1F002BB8BFE41800F0D4F81E4A1368114613B96360146030E0A3420DD92268A018834201BF18685B681218226063600C6023E0A24203D813465A68002AF9D111
:401C800018681918A1420BD12168014458188242196013D110685268014419605A600DE002D90C232B6009E021686018824201BF106852680918216062605C602846BDE856
:401CC000384000F098B838BDA481FF1F70B5CD1C25F0030508350C2D38BF0C25002D064601DBA94202D90C23336046E000F082F8234B1C681A462146A1B10B685B1B0ED4E8
:401D00000B2B03D90B60CC18CD501EE08C420BBF63684B681360636018BF0C4615E00C464968E9E7174C23681BB9304600F052F820602946304600F04DF8431C18D0C41CB7
:401D400024F00304A0420DD12560304600F053F804F10B00231D20F00700C31A0ED05A42E25070BD211A304600F034F80130EBD10C233360304600F03EF8002070BD00BF21
:401D8000A481FF1FA081FF1FF8B5074615460E4621B91146BDE8F840FFF798BF1AB9FFF749FF2846F8BD00F027F885420ED929463846FFF78BFF044650B131462A46FFF717
:401DC0005DFB31463846FFF735FF01E03046F8BD2046F8BD38B5064C0023054608462360FEF74AFC431C02D1236803B12B6038BDA881FF1F7047704751F8040C0028BEBFE8
:401E0000091851F8043CC01804387047000000003D3D3D204D6F746F7220504920436F6E74726F6C6C6572203D3D3D0D0A000000496E6772657365206F6D6567612073656C
:401E400074706F696E7420656E207261642F732028656A3A2031302E3529202B20456E7465720D0A0000000053505B7261642F735D207C204D45445B7261642F735D207C07
:401E80002050574D5F6F75740D0A00002D2D2D2D2D2D2D2D2D2D2B2D2D2D2D2D2D2D2D2D2D2D2B2D2D2D2D2D2D2D2D0D0A000000256C640D0A000000305100404000F0516C
:401EC00000401000000001400010001401400006801A0140800100400140000A004C01400002005001402000001A0140240C004880004300002020202020202020202828B9
:401F0000282828202020202020202020202020202020202020881010101010101010101010101010100404040404040404040410101010101010414141414141010101014F
:401F400001010101010101010101010101010101101010101010424242424242020202020202020202020202020202020202020210101010200000000000000000000000DD
:401F80000000000000000000000000000000000000000000000000000000000000000000000000000000000000000000000000000000000000000000000000000000000021
:401FC0000000000000000000000000000000000000000000000000000000000000000000000000000000000000000000000000000000000000232D302B2000686C4C006591
:4020000066674546470030313233343536373839414243444546003031323334353637383961626364656600F8B500BFF8BC08BC9E4670474D000000F5060000F8B500BFCA
:40204000F8BC08BC9E4670472900000060200000C880FF1F9000000058000000000000000000000020D21F401500633D00000000000000000000000000004041000040C1CE
:40208000B081FF1F0000000000000000000000000000000000000000000000000000000000000000F21E0000000000000000000000000000000000000000000000000000C1
:4020C000000000000000000000000000000000000000000000000000000000000000000000000000EC80FF1FF41E0000000000000000000000000000000000000000000044
:40210000000000000000000000000000000000000000000000000000000000000000000000000000000000000000000000000000000000000000000000000000000000009F
:40214000000000000000000000000000000000000000000000000000000000000000000000000000000000000000000000000000000000000000000000000000000000005F
:40218000000000000000000000000000000000000000000000000000000000000000000000000000000000000000000000000000000000000000000000000000000000001F
:4021C00000000000000000000000000000000000000000000000000000000000000000000000000000000000000000000000000000000000000000000000000000000000DF
:020000040003F7
:0200000480007A
:40000000035200400664004003650040010101400503014061040140330501405A060140410701406308014054090140440A0140400B0140570C0140390D0140520E0140D3
:400040002F0F01404E1401404D150140501601404217014048180140411901400B1A01404D1B01400640014007410140064201400245014002460140064C0140094D01405B
:400080000C50014001510140108061806440860D896F8A0F8D6F8E0F8F0D8438870F8A72E20485018C08A602B202E040050108A30A5C0F04100E12F013041501160118FE34
:4000C0001A011C961E681F01230224C5263A29012C7F2D0130FF310433033E01405449FF4AFF4BFF4F0150185280580459045A045B045C905D995F01604062406440654007
:40010000668068806A806C806E808501870288FD89018A028B028C738F1091079430950796C999049A0F9F04A0CFA230A308A494A660A707A89EAA60B30FB510B6FFBE40B6
:40014000C054C9FFCAFFCBFFCD83CE03CF01D018D804D904DA04DC90DD09DF01E040E240E440E540E680E880EA80EC80EE8003080706084109480A080B800C200E28110C03
:4001800012021480172819021F80210924142604280129022B082C202F803042320434803610370639043A803C803E043F104280468048024C027002884095029808A60234
:4001C000C0C2C26FC475CACDCCFBCE7AD081D218E420E60100010202040106020701093C111C1702180119281A021B141C021D301E011F0C2340250C273029142B282F405E
:4002000031023301353C360337403A803F40405445EC4602480749FF4AFF4BFF4D834E034F0150185401580459045A045B045C995D995F016040624064406540668068807E
:400240006A806C806E808410870F880C890C8A038B028C079003920C940A950B96059704980F99089B019E10A10CA210A301A507A610A810AC05AE0AB010B30FB40FBE01F9
:40028000D804D904DC99DF010008020203080404074009040A0A0B800E0910A811801A481B101E011F40233025302644274428802A082C022E042F843220330434803604D2
:4002C00037223B183C043D2046804C024F05568057805A045B085E805F0589209004960C979098889E809F2EA002A544A612A708A880B108B410C037C2CFC40FCAF3CCF61B
:40030000CE66D080D210D6D0EE01017304C5063A080E0AF00F0F11CF12011330147F159E176019301BC91C961E6824FE260129FD2B022CA32D942E5C2F6034FF35FF3E10C5
:400340003F104024410649FF4AFF4BFF4DA04F015018580459045A045D095F016040628064406540668068406A806C406D206E808D028F04920195029F01A202A504A802D9
:40038000A902B104B201B301B602B702B980BE40BF41C021C106C543C6C2C70EC81FC9FFCAFFCBFFCDAFCE07CF01D018D40FD804D904DA04DB04DC99DD99DF05E040E280CC
:4003C000E440E540E680E840EA80EC40ED20EE8006280B800C400D800EA010801208174819881D102010214022092302240829082B082F0630803104341035013601370487
:4004000038803E403F034004414045104702488049244A204F2050405108521053C0582059805A0A610862107A10882089048A018B88900492489418950196019780992071
:400440009B409C509D109EAA9F0CA110A240A310A629A709AB40B008B520B710C060C2B8C4AACA36CCEACE98D0ACD224D60FD806DE02E480E810EC2009020A020E020F0238
:40048000100417041C011F01220124042802290230043101340135023602370438023E503F105280540F5604580459045B045C995D905F01800283018404871E89188A0885
:4004C0008B029201940295019C029D189F04A110A204A302A404A516A708A804A90EAC04AF01B00CB11EB401B501B602B880BE40BF10D280D804D904DB04DC99DD90DF018A
:4005000000400120051006A00A020B800C800EA0108012281440150416081748184019801A041D801E881F02229124042510274029202C442D042F0A30883604374038501C
:400540003C023E28580459805A21608071017401808092489408950196049C109D019E829F04A080A210A408A580A6A1A701B310C073C2B9C4FECAF4CC5ACEECD60FD8018C
:400580000007060808010A0212071A101B011E0420012202240425012C07300F341037013F404051410449FF4AFF4BFF4DA04F015018580459045A045C095D095F01604058
:4005C000628064406540668068406A806C406D206E80830486018D018E0297029B019D02A302A904B001B102B301B402B704BF45C051C104C502C6C3C74EC83DC9FFCAFF81
:40060000CBFFCDAFCE07CF01D018D40FD804D904DA04DB04DC09DD99DF05E040E280E440E540E680E840EA80EC40ED20EE8002210408068007040C200E4214111501160256
:40064000184019201D021E401F2122442340270129212F20300832A03420361038403A014182458248204A104B404F405080521558205A845B0162147B01931097029C0131
:400680009D20A4A0A502B204C075C2D0C4B0CA45CC2ECE09D099D218D60FD806DE08EC20030107020802100213011B021E02200124012901310133023402360138803E10F5
:4006C0003F014020410649FF4AFF4BFF4DA04F045018540F5604580459045A045B045C095D905F01604062C06440654066C068C06AC06CC06EC087029A029B01AB02AD01B2
:40070000AE01B002B302B401B701BF04C020C106C5D1C702C813C9FFCAFFCBFFCDAFCE0FCF04D018D280D405D804D904DA04DB04DF01E040E2C0E440E540E6C0E8C0EAC09F
:40074000ECC0EEC0012009020A020F0410A0174019101A021C041D201F022390264429202C082F023120320136203B063C044004452048084C084E204F05540858015910B7
:400780005A045B805E885F01620177408201C002C249C48CCA34CC25CE43D024D224D6DFD801020605010605070E09010A030B060E080F10110C120813031B031C061E0151
:4007C0001F102202230C260128082C082F083008310F3407351038023A203B0A3F105418580459045B045C115D105F01840689018A018B029102930196089A02A004A50100
:40080000A702A806AD01AF02B001B206B408B703B808BB80BE04C003C740C9FFCA07CBFFCC40CD20CEF0CF05D008D804D904DA04DC99DD01DF01E040E1A8E240E320000A34
:4008400001A20408051009020A020E140F081022110212081522184819201D181F222101220923042540270229022B012F22302032413702384839203E1045084C2C4F08D6
:40088000550156015701580262806304800281028240858087028A808C028E089120921096069E01A005A428A540A904AE18AF06B001B210B308B410B510B682C06FC269B8
:4008C000C45FCA59CC8DCE2ED040D601D80CE20DE402E601EA04EE0A010C051809140D010E040F021101130219021A011B0122082501270229182A023001311C320234082B
:400900003503360439023B20580459045C995F01841489138A038B0C8C108F08910A93149513970499209B059C1C9D039E029F04A009A210A410A60CA80CA940AA11B21FB3
:40094000B340B50FB730B980BB20BF04C032C106C50BC6ECC80DC9FFCAFFCBFFCEF0CF44D00CD401D804D904DA04DB04DC11DD11DF01E6C0EA40EB020010010802010440C7
:400980000A020E0810081305148818101C401E1A1F20200A2150220423052501262227082A102F2830A83201362139A03A203C403D0A3F204224480849085080529058016E
:4009C00059105A488620888092409602970898089E089F0AA310A4ACA544A632A708AE04AF10B201C087C241C45ECA64CCAFCEFCD006D204D60FE402E808EC080006010B63
:400A000003040510068007200860090C0A080B020C580D0C0E200F0110601210130F140515101720180319801C381D201F1024062510276029082A782B012C402D072E083E
:400A400030783180320733403480350F373038083B803F01580459045C995F0184E788298A428E189018961898549A229C1A9E05A080A4E7A701AA18AC18B018B280B460FD
:400A8000B501B607D804D904DC91DF01002802020404060207440A590D040E800F09110412091302140616201A991B201C801D011EA01F182004230825B6268027042820A7
:400AC0002B0C2C042E802F1034023520368037083C803D283E02810286089108970198049A229B409C109D019E889F04A580A610A708AE22AF04B004B101B302C0F7C2FF99
:400B0000C4EFCA72CCF0CEF0E001E220EC8083028D01910195019F02AD01B101B502BF11D904DF010102020903200A5110AA18041A401B022190228A261027402A292B022A
:400B40002D802F023080320A3502368A380839203B803C403F8140444180423049844B015B40680469046B0270AC72088104820283028412860888128A108B408E418F408E
:400B80009291950496409C129E019F02A320A414A60AA920AE80AF08B240B420B520B680B701C00FC20DC40FCA1FCCDBCE9ED00FD208D608E290E440E810EA20EC10324049
:400BC000330835808180CC70E220038087088F809680A708C010E640078082408B809680C020E6805E01D601B201EC0108800E0882108880C203E2041080721088809210C5
:400C0000B604C408DC01E601EA02000101010B010D010E010F01100211011A021B011C021D01003F0F000000020610000C0003200F20001003260C49002E038100000000A6
:400C40000304200008EF0000040200000C0000C901E910060F0700E63010000E0000020A000010005304010002CE000003FFFFFF62A0F0410C00000000000210040404048C
:400C8000111100010000000000004002001030100010101200000000000000000000000000000000010000010000000040000000880040888000800000000000C00B0B00E5
:400CC0000000000000E0E0008000000000000000000000000000000000000000000000000000000000000000000000000000000000000000000000000000000000000000B4
:400D000000000000000000000000000000000000000000000000000000000000000000000000000000000000000000000000000000000000000000000000000000000000B3
:400D40000000000000000000000000000000000000000000000000000000000000000000000000000000000000000000000000000000000000000000000000000000000073
:400D80000000000000000000000000000000000000000000000000000000000000000000000000000000000000000000000000000000000000000000000000000000000033
:400DC00000000000000000000000000000000000000000000000000000000000000000000000000000000000000000000000000000000000000000000000000000000000F3
:0200000490006A
:0400000000004005B7
:0200000490105A
:04000000BC90ACAF55
:0200000490303A
:02000000EE4BC5
:0200000490402A
:4000000000000000000000000000000000000000000000000000000000000000000000000000000000000000000000000000000000000000000000000000000000000000C0
:400040000000000000000000000000000000000000000000000000000000000000000000000000000000000000000000000000000000000000000000000000000000000080
:400080000000000000000000000000000000000000000000000000000000000000000000000000000000000000000000000000000000000000000000000000000000000040
:4000C0000000000000000000000000000000000000000000000000000000000000000000000000000000000000000000000000000000000000000000000000000000000000
:0200000490501A
:0C00000000012E16106900012E25FEB430
:00000001FF